:020000040800F2
:10000000B00400209D010008F351000853130008BC
:10001000F151000895040008D552000800000000C6
:10002000000000000000000000000000F751000880
:10003000F106000800000000F5510008F951000821
:10004000B7010008B7010008B7010008B7010008B0
:10005000B7010008B7010008B7010008F50600085D
:10006000B7010008B7010008B7010008B701000890
:10007000B7010008B7010008B7010008B701000880
:10008000B7010008B7010008B7010008B701000870
:10009000B7010008B7010008B7010008B701000860
:1000A000B7010008B7010008B7010008B701000850
:1000B000B7010008B7010008B7010008B701000840
:1000C000B7010008B7010008B7010008B701000830
:1000D000B7010008B7010008B7010008B701000820
:1000E000B7010008B7010008B7010008B701000810
:1000F000B7010008B7010008B7010008B701000800
:10010000B7010008B7010008B7010008B7010008EF
:10011000B7010008B7010008B7010008B7010008DF
:10012000B7010008B7010008B7010008B7010008CF
:10013000B7010008B7010008B7010008B7010008BF
:10014000B7010008B7010008B7010008B7010008AF
:10015000B7010008B7010008B7010008B70100089F
:10016000B7010008B7010008B7010008B70100088F
:10017000B7010008B7010008B7010008000000003F
:10018000B7010008B7010008DFF80CD000F070F9E3
:100190000048004715580008B00400200648804772
:1001A00006480047FEE7FEE7FEE7FEE7FEE7FEE75C
:1001B000FEE7FEE7FEE7FEE781520008890100083E
:1001C0002DE9F05F0546002092469B46884606468C
:1001D000814640241BE0284641464746224600F01F
:1001E000D9F853465A46C01A914110D311461846C1
:1001F000224600F0C0F82D1A67EB01084F46224650
:100200000120002100F0B7F817EB00094E41201E35
:10021000A4F10104DFDC484631462A464346BDE8E6
:10022000F09FD2B201E000F8012B491EFBD27047CB
:100230000022F6E710B513460A4604461946FFF7B2
:10024000F0FF204610BD2DE9FE4F81EA030404F0C3
:10025000004421F0004100944FF0000B23F00043D4
:1002600050EA01045ED052EA03045BD0C3F30A549F
:10027000C1F30A552C44A4F2F3340194A0FB0254B8
:10028000C1F3130141F48011C3F3130343F480134A
:1002900001FB024400FB034E840A970A44EA81549E
:1002A00047EA8357A4FB076802958D0A05FB07857B
:1002B0004FEA932C04FB0C542705029D4FEA065885
:1002C00047EA1637B5EB08056EEB070C870E920E62
:1002D00047EA811742EA8312A7FB0201B6EB0B0142
:1002E00064EB00042B0D43EA0C335E1844EB1C5006
:1002F000DA465146E7FB0201C5F313044FEA0B331C
:1003000043EA14534FEA0432019C43EA0603A4F182
:100310000C040294009CCDE900B400F05AF803B03C
:10032000BDE8F08F00200146F9E70EB540F23341F9
:1003300002910021CDE900110A460B4600F049F870
:1003400003B000BDC1F30A5210B5C1F3130140F26E
:10035000FF3341F480119A4201DA002010BD40F2CF
:1003600033439A42A2F2334203DC524200F012F8C5
:1003700010BD904010BD202A04DB203A00FA02F1A3
:10038000002070479140C2F1200320FA03F3194383
:1003900090407047202A04DB203A21FA02F0002125
:1003A000704721FA02F3D040C2F120029140084385
:1003B0001946704710B5141E73F1000408DA401C8A
:1003C00041F1000192185B411A4301D120F0010074
:1003D00010BD2DE9F04D92469B4611B1B1FA81F264
:1003E00002E0B0FA80F220329046FFF7C4FF0446E4
:1003F0000F4640EA0A0041EA0B0153465A460843B9
:1004000013D0114653EA010019D0C8F140025046FA
:10041000FFF7C0FF05460E46504659464246FFF7D5
:10042000AAFF084305D0012004E020463946BDE874
:10043000F08D0020054346EAE0762C4337430A98C6
:100440006305E40AA0EB08000022FD0A44EA4754D1
:100450000A3002D500200146E9E70105101969417B
:10046000DDE9084500196941BDE8F04DA2E700004B
:10047000064C074D06E0E06840F0010394E80700F1
:1004800098471034AC42F6D3FFF782FE3071000873
:1004900050710008FEE7000070B50F4C0025C4F84D
:1004A00080520E48016821F440010160016841F466
:1004B00080010160022004F5207405F079F90848F4
:1004C000C0F8AC52022005F073F901202060022030
:1004D00005F06EF9256070BD0080404200140240B6
:1004E0000080424270B50F4C0025C4F880520E487F
:1004F000016821F440010160016841F4800101605C
:10050000022004F5207405F053F908480126C0F8CC
:10051000AC62022005F04CF92660022005F048F993
:10052000256070BD008040420014024000804242BD
:100530002DE9F047824618480024016821F4400163
:100540000160016801601E2005F032F90025134E9C
:10055000DFF84C902F464FF0010800BFC6F88072BC
:10056000022005F025F9C6F880826006040ED9F84D
:100570002C0208B1641CE4B26D1CEDB2082DEDD361
:10058000BAF1000F04D0FFF787FF2046BDE8F087DF
:10059000FFF7A8FFF9E70000001402400080404286
:1005A000008042422DE9F04706461548016821F4D3
:1005B00040010160016841F480010160114D002794
:1005C000C5F88072022005F0F3F8DFF83C800024C3
:1005D0004FF00109F109C8F8AC127006060EC5F813
:1005E0008092022005F0E4F8C5F88072022005F040
:1005F000DFF8641CE4B2082CECD3BDE8F0870000FF
:1006000000140240008040420080424270B50F4812
:10061000016821F440010160016841F4800101603A
:100620000B4C0120C4F8AC020A4DC5F880021E2014
:1006300004F52B7405F5207505F0BAF80026266040
:10064000022005F0B5F82E6070BD000000140240D5
:10065000008042420080404270B50D48016821F49C
:1006600040010160016841F48001016009480125F1
:10067000C0F880521E2005F09BF8074C0020C4F8FB
:10068000AC02022004F52B7405F092F8256070BDD1
:1006900000140240008040420080424270B5114880
:1006A0000024016821F440010160016801600E4EE0
:1006B0000120C6F8AC020D4DC5F8800207E0641CAD
:1006C000E4B2FA2C03D9FFF7C7FF012070BD022066
:1006D00005F06EF8D6F82C020028F0D1C5F880029B
:1006E00070BD000000140240008042420080404281
:1006F000704700000648D0F8040228B9054810F8F1
:10070000211F41F080010170022000F0FFB90000BC
:1007100000804042040000207047000070B5B3F52F
:10072000804F05D06FF0704140F82210002070BD5E
:1007300050F82240084B8E891C40D1E9003543EA2D
:1007400005138D6889692D0245EA06452B430B4345
:10075000234340F82230E9E70000F0CFF0B50C6801
:1007600050F82430114A1340D1E90125D1E903673B
:100770002A433E4332434E6932438E693243CE6947
:1007800032430E6A32434E6A32438E6A3243CE6A35
:100790003243CE6B096B32430A431A43082D01D111
:1007A00042F0400240F824200020F0BD8000F0FF1D
:1007B00030B500EB820250688D8900F04043D1E9EA
:1007C000000440EA04108C68240244EA05442043F3
:1007D0000C8A074D05EB045420430C7D6D0105EB9D
:1007E000046489692043084318435060002030BDE9
:1007F0000000F0FF38B500F00DF90122694640F223
:10080000177000F01DF89DF80000012204026946EF
:100810004FF4E36000F014F89DF800000443A4F5E1
:100820000050103804D002208DF80000C0B238BD4E
:100830006A21024800F0ACF8F6E70000B470000846
:100840002DE9F04115460E460446FFF7DFFEBA20BB
:10085000FFF7A8FEFFF722FF200AFFF7A3FEFFF72E
:100860001DFFE0B2FFF79EFEFFF718FFFFF7CEFE79
:10087000BB20FFF797FEFFF711FF00246F1E09E072
:10088000BC4201D0012000E00020FFF751FE3055AE
:10089000641CE4B2AC42F3D3BDE8F041FFF7DCBE28
:1008A00010B53A4C8AB094F8210000066BD522228C
:1008B000694640F22170FFF7C3FF9DF8000000F089
:1008C0001F0084F821009DF803009DF8021000EB42
:1008D0000120C0F5F07060829DF805009DF80410BD
:1008E00000EB012024F8080F9DF8060020759DF804
:1008F00008009DF8071000EB0120C0F5F070A08102
:100900009DF80A009DF8091000EB012060809DF819
:100910000B0060759DF80D009DF80C1000EB012098
:10092000C0F5F070E0819DF80F009DF80E1000EB0F
:100930000120A0809DF81000A0759DF818009DF87A
:10094000111000EB0120C0F5F07020829DF81A0014
:100950009DF8191000EB0120E0809DF81B00E07568
:100960009DF81D009DF81C1000EB0120C0F5F070F3
:1009700060829DF81F009DF81E1000EB0120208171
:100980009DF8200020760AB010BD00000400002071
:100990002DE9F0410E468046002440F2A267F2B2F3
:1009A0004146384600F00CF8050006D00A2004F055
:1009B000FDFE641CE4B2052CF1D32846BDE8F081AD
:1009C0002DE9F04116460F4604460025FFF71EFEAE
:1009D000BA20FFF7E7FDFFF761FE200AFFF7E2FD0F
:1009E000FFF75CFEE0B2FFF7DDFDFFF757FE0024E6
:1009F00008E0385DFFF7D6FDFFF750FE050003D194
:100A0000641CE4B2B442F4D3FFF726FE2846BDE8E6
:100A1000F081000010B5084C0020C4F8B4020A2090
:100A200004F52D7404F0C2FE01202060BDE81040E2
:100A3000642004F0BBBE00000000414270B50446D3
:100A400000F04EF90546601C02D0044800780444CA
:100A500000F046F9401BA042FAD370BD30000020E0
:100A60002DE9F04186B014216846FFF7E1FB2048EC
:100A70000168002939D1012101601E480024016864
:100A800041F00101016000684FF4805800F001005E
:100A90000C27CDF80080CDE90470032602250396CB
:100AA000CDE901546946144800F03CF84FF68070D7
:100AB000CDE9000502AA694682E8D0000F4800F09F
:100AC00031F84CF23370CDE9000502AA694682E89C
:100AD000D0000B4800F026F802AA694682E8D00050
:100AE000CDE90085074800F01DF806B0BDE8F081AB
:100AF0002800002038380240001402400010024054
:100B0000000C02400018024070470000044910B574
:100B10000A68024202D00860FFF7F6FF10BD00002D
:100B2000143C01402DE9F84FDFF87CB100224FF072
:100B300001084FF0030A4FF00F090BF1040E00BF3C
:100B40000B6808FA02F42340A3426ED14D68022DCF
:100B500001D0122D0ED1D50800EB850CDCF8205009
:100B60005607F70E09FA07F6B5430E69BE402E4345
:100B7000CCF82060066855000F790AFA05FC07F0EA
:100B8000030726EA0C06AF40374307604E68012E84
:100B900005D0022E03D0112E01D0122E0ED1866860
:100BA000CF6826EA0C06AF40374387604668A64305
:100BB0000C79C4F30014944034434460C6688C68D4
:100BC00026EA0C06AC403443C4604C68E40065D5AA
:100BD000364C256845F480452560246822F00305DD
:100BE00004F480440094324C2E19D6F80848950736
:100BF0002F0F09FA07F5AC432E4DA84201D100256D
:100C000024E02D4DA84201D101251FE02B4DA84223
:100C100001D102251AE02A4DA84201D1032515E091
:100C2000284DA84202D1042510E037E0264DA84205
:100C300001D105250AE0254DA84201D1062505E090
:100C4000234DA84201D1072500E00825BD402543DA
:100C5000C6F80858DBF800405D464E689C43F60332
:100C600000D51C432C60DEF8004075464E689C435E
:100C7000B60300D51C432C600B4D08352C684E681C
:100C80009C43F60200D51C432C60074D0C352C68A4
:100C90004E689C43B60200D51C432C60521C102A9F
:100CA000FFF44EAFBDE8F88F003C014044380240ED
:100CB00000300140000002400004024000080240F1
:100CC000000C0240001002400014024000180240D4
:100CD000001C02400AB1816170470904FBE7000073
:100CE0000148806870470000300000200248816899
:100CF0000278114481607047300000200B4810B525
:100D0000016841F400710160016841F48061016093
:100D1000016841F480710160032000F06FF8002049
:100D200000F006F800F024F8002010BD003C02405E
:100D300070B50D4D04464FF47A712878B1FBF0F090
:100D40000A490968B1FBF0F000F0EFFA48B9102C3D
:100D500007D200222146501E00F030F800206C60BF
:100D600070BD012070BD0000300000203C0000205C
:100D70000A4808B5016841F480410160006800F448
:100D8000804000900548001F016841F080510160DB
:100D9000006800F08050009008BD00004438024018
:100DA000002809DB00F01F0201219140400980006A
:100DB00000F1E020C0F8001170470000F0B40E4BC5
:100DC0001B680C46C3F30223C3F10705042D00D9A9
:100DD0000425191D072901D2002300E0DB1E01268E
:100DE00006FA05F1491E214099409E40761E1640A4
:100DF0003143F0BC04F084BA0CED00E0064900F089
:100E0000070208684FF6FF03184040EA0220034A31
:100E100010430860704700000CED00E00000FA0588
:100E20002DE9F0470E46050065D0DFF81481D8F8AB
:100E30000000F7B200F00F00B04207D288F800704F
:100E4000D8F8000000F00F00B04254D128683D4CA3
:100E5000810712D5400703D5206840F4E050206098
:100E60002878000703D5206840F46040206020689F
:100E7000A96820F0F000084320602878C0072DD032
:100E8000304968680839012812D0022813D0032895
:100E900011D00968890700292DDA216821F00301A2
:100EA00001432160FFF71CFF814641F2883A0EE0C2
:100EB00009688903EFE709688901ECE7FFF710FF8C
:100EC000A0EB0901514502D90320BDE8F087206855
:100ED000696800F00C00B0EB810FEFD1D8F800107A
:100EE000404601F00F01B14207D90770006800F0D9
:100EF0000F00B04201D00120E7E72878400705D570
:100F00002068E96820F4E050084320602878000752
:100F100006D52068296920F4604040EAC1002060BD
:100F200000F016F82168084AC1F30311515CC8406B
:100F3000064908600020FFF7FBFE0020C5E700001F
:100F4000003C0240083802401E7100083C000020AE
:100F5000154810B5006810F00C02144813D014495D
:100F6000042A0FD0082A0ED10F4C241F22682368B0
:100F700002F03F025B0207D52068C0F38810A0FB97
:100F8000010106E0084610BD2168C1F38811A1FBEC
:100F900000010023FFF714F92168C1F30141491C46
:100FA0004900B0FBF1F010BD083802400024F40005
:100FB00040787D012DE9F84F050076D02878DFF8DC
:100FC000F8B2BE4CC00749D0DBF800105846C1F358
:100FD0008101012908D00068C0F3810002280AD1EC
:100FE000201D0068400206D52068800336D5686859
:100FF0000028E2D032E06868B0F5803F10D0B0F54C
:10100000A02F206810D020F480302060206820F4C9
:10101000802020606868A0B1FFF762FE06460CE001
:10102000206840F48030F4E740F480202060F7E747
:10103000FFF756FE801B642873D820688003F7D51D
:101040000CE0FFF74DFE064605E000BFFFF748FE47
:10105000801B6428F0D820688003F7D42878DFF854
:10106000608280074FF000093ED5DBF8001058463B
:1010700011F00C0F09D00068C0F3810002280BD1D9
:101080008D48001F0068400206D42068800715D5EF
:10109000E868012809D111E0E868B8B10120C8F872
:1010A0000000FFF71DFE064605E002E1FFF718FE0F
:1010B000801B0228C0D820688007F7D520682969DE
:1010C00020F0F80040EAC10020600DE0C8F8009070
:1010D000FFF706FE064604E0FFF702FE801B02282B
:1010E0001FD820688007F7D42878000722D5724ED1
:1010F000744869696C3671B101210160FFF7F0FD38
:10110000074604E0FFF7ECFDC01B022809D8306851
:101110008007F7D50EE0C0F80090FFF7E1FD074625
:1011200005E083E0FFF7DCFDC01B02287ED83068B5
:101130008007F7D42878400768D5DFF87CA100271E
:101140000AF1380ADAF80000C0000BD4DAF800100F
:1011500041F08051CAF80010DAF80000012700F0D1
:1011600080500090584E3068C00510D4306840F46C
:1011700080703060FFF7B4FD009005E0FFF7B0FD30
:101180000099401A022851D83068C005F6D54A4E59
:10119000A868683601280FD00528306810D020F0E4
:1011A00001003060306820F004003060A868B8B1F9
:1011B000FFF796FD00900FE0306840F00100F4E783
:1011C00040F004003060F7E7FFF78AFD0099411A0C
:1011D00041F28830814264D830688007F4D50EE04F
:1011E000FFF77EFD009007E0FFF77AFD0099411AB6
:1011F00041F28830814254D830688007F4D42FB14E
:10120000DAF8001021F08051CAF80010A869C0B3C4
:10121000DBF80010C1F3810102294AD002284846B8
:1012200007D0C8F86000FFF75BFD00E039E0054635
:101230003AE04746C8F86000FFF752FD064604E072
:10124000FFF74EFD801B02282BD820688001F7D4C1
:10125000D5E907010843A96A1C4A490802EB014184
:101260006A6A41EA8211084395F82C1040EA01614C
:101270001148001F016001203866FFF731FD054667
:1012800005E014E0FFF72CFD401B022809D8206878
:101290008001F7D50BE000BFFFF722FD401B0228BD
:1012A00002D90320BDE8F88F20688001F4D4002023
:1012B000F8E70120F6E70000083802400038024055
:1012C00000004742800E4742007000400000FFFFD0
:1012D00070B515460E46040003D094F8490010B1CD
:1012E00007E0012070BD002084F84800204600F08F
:1012F0001AF804F108012068FFF730FA3146A268B5
:101300002068FFF755FAD4E901022946236BFFF75D
:1013100005FAA168206850F8212042F0010240F847
:101320002120002070BDFFF79BBB10B5401EB0F11F
:10133000807F01D3012010BD4FF0E02460610F21B8
:10134000601703F0DDFF0020A0610720206100206E
:1013500010BDFEE72DE9F043174C8146002520889B
:1013600066884643A088A0F5D041043902D1A0790F
:10137000012808D00021084603F002FD03F05AFEC0
:101380004FF0D84013E00020A0712A2767814FF06A
:101390002B08A4F80C80014603F0F2FC0120A07198
:1013A000A4F80A80A781E9E7A0F880906D1CB542F7
:1013B000FAD3BDE8F0830000400000202DE9F04F93
:1013C0004A492A242B25898845F2105A4FF4305B6C
:1013D0004FF4285E4FF448764FF0F00C49F2413953
:1013E0004FF4A07345F210374FF4F07280B13F48CC
:1013F0004FF00108494580F806800380A0F802C03C
:1014000001D0B9423ED12C2606814481858157E026
:1014100036484FF00008494580F80680A0F800C023
:10142000438006D0A1F5D04CBCF1040C01D0B942E8
:101430000CD12C2606814481A1F5D0448581043C41
:1014400001D0B94244D10380428041E0514507D1E7
:10145000A0F808B0A0F80AE04FF42C5181810EE00A
:10146000A1F5C853633B06D022210181202141818F
:10147000212181812CE02C21018145818481028000
:10148000468025E0A1F5D04CBCF1040C09D05145B3
:101490000BD1A0F808B0A0F80AE04FF42C548481D6
:1014A00021E02C260681458109E0A1F5C85CBCF14C
:1014B000630C12D0222404812124448120248481BD
:1014C000A1F5D044043C01D0B94201D1028043804F
:1014D000BDE8F04F002003F051BB4FF02C0CA0F8FA
:1014E00008C04481858106804280E9E740000020F1
:1014F0002DE9F043444C91460246A08823460D4610
:101500004FEA1128160A5B89A0F51341413917D01B
:10151000A0F5A641103913D0A0F5AA41103914D076
:101520002646A0F5C857B1793688B61A761E633FAD
:1015300025D0A0F5D047043F3DD0012951D051E03E
:10154000184603F06BFD30463CE0184603F066FD9C
:10155000304603F057FD6089401C80B203F05EFD09
:10156000D0B203F04FFDA08903F058FD404603F0D0
:1015700049FDA089401C80B203F050FD2DE001B967
:10158000B2B2184603F04AFD160A304603F03AFD9F
:10159000D0B203F037FD304603F034FDD0B203F093
:1015A00031FDA08903F03AFD404603F02BFDE8B27F
:1015B00003F028FD0EE0012900D1B2B2184603F075
:1015C0002DFD100A03F01EFDD0B203F01BFDA08913
:1015D00003F024FD404603F015FDE8B203F012FDD0
:1015E00008E0B2B21146184603F02EFDA089294644
:1015F00003F02AFD4FF0D840218920F87E1FA0F883
:101600000290BDE8F0830000400000202DE9F84F73
:1016100000200090322004F0C9F80121002003F0DE
:1016200013FD322004F0C2F8002003F075FAFE4FDB
:101630004FF020494FF6FF7AB88049F2413545F224
:10164000103645F2105441F6631246F60408FF289E
:1016500004D3504502D0B0F5134F73D1D32003F01B
:10166000DDFC03F04FFAB88003F04CFAB88003F0C9
:1016700049FA0AEA0020B88003F044FAB98808431E
:10168000B880A8425ED0BF2003F0C8FC03F03AFA4D
:10169000B88003F037FAB88003F034FAB88003F06A
:1016A00031FA0AEA0020B88003F02CFAB98808431E
:1016B000B880404546D0D42003F0B0FC03F022FAB5
:1016C000B88003F01FFAB88003F01CFA0AEA002081
:1016D000B88003F017FAB9880843B880B04231D017
:1016E0004FF45A4003F09AFC03F00CFAB8804FF420
:1016F0005B4003F093FC03F005FA0AEA0020B8808F
:101700004FF45C4003F08AFC03F0FCF9B98808430D
:10171000B880B0F5004F38D0A04213D0A12003F01C
:101720007DFC03F0EFF9B88003F0ECF90AEA002041
:10173000B88003F0E7F9B9880843A0F5AE41B88056
:10174000613920D080B2A84205D0B04203D0A04277
:1017500001D090421BD1D9F81C11484621F00F014D
:10176000C9F81C11D9F81C1121F47061C9F81C11B9
:10177000D9F81C1141F00301C9F81C11D9F81C114A
:1017800041F4007120E0BA80E5E7BC80E3E7404522
:1017900003D0A0F54541053918D1D9F81C114846A8
:1017A00021F00F01C9F81C11D9F81C1121F4706146
:1017B000C9F81C11D9F81C1141F00A01C9F81C1113
:1017C000D9F81C1141F44061C0F81C11B888A84236
:1017D0007ED1CF2003F022FC002003F013FCC120B7
:1017E00003F010FC302003F00DFCED2003F016FC9C
:1017F000642003F007FC032003F004FC122003F034
:1018000001FC812003F0FEFBE82003F007FC8520AB
:1018100003F0F8FB102003F0F5FB7A2003F0F2FB55
:10182000CB2003F0FBFB392003F0ECFB2C2003F072
:10183000E9FB002003F0E6FB342003F0E3FB022089
:1018400003F0E0FBF72003F0E9FB202003F0DAFBD4
:10185000EA2003F0E3FB002003F0D4FB002003F0B8
:10186000D1FBC02003F0DAFB1B2003F0CBFBC1202F
:1018700003F0D4FB012003F0C5FBC52003F0CEFB31
:10188000302003F0BFFB302003F0BCFBC72003F087
:10189000C5FBB72003F0B6FB362003F0BFFB4820A2
:1018A00003F0B0FB3A2003F0B9FB552003F0AAFB8C
:1018B000B12003F0B3FB002003F0A4FB1A2003F0D7
:1018C000A1FBB62003F0AAFB0A2003F09BFB00E07B
:1018D00090E0A22003F096FBF22003F09FFB002093
:1018E00003F090FB262003F099FB012003F08AFB14
:1018F000E02003F093FB0F2003F084FB2A2003F089
:1019000081FB282003F07EFB082003F07BFB0E20E8
:1019100003F078FB082003F075FB542003F072FB02
:10192000A92003F06FFB432003F06CFB0A2003F0B7
:1019300069FB0F2003F066FB002003F063FB00202F
:1019400003F060FB002003F05DFB002003F05AFB76
:10195000E12003F063FB002003F054FB152003F0AB
:1019600051FB172003F04EFB072003F04BFB112027
:1019700003F048FB062003F045FB2B2003F042FB5D
:10198000562003F03FFB3C2003F03CFB052003F016
:1019900039FB102003F036FB0F2003F033FB3F2010
:1019A00003F030FB3F2003F02DFB0F2003F02AFB58
:1019B0002B2003F033FB002003F024FB002003F076
:1019C00021FB012003F01EFB3F2003F01BFB2A201C
:1019D00003F024FB002003F015FB002003F012FBB2
:1019E000002003F00FFBEF2003F00CFB112003F0AD
:1019F00015FBA9E040457DD1112003F00FFB142019
:101A000003F0D4FED02003F009FB072003F0FAFA1C
:101A1000422003F0F7FA1D2003F0F4FAD12003F07E
:101A2000FDFA002002E000004000002003F0EAFA86
:101A30001A2003F0E7FA092003F0E4FAD22003F0B9
:101A4000EDFA012003F0DEFA222003F0DBFAC020D9
:101A500003F0E4FA102003F0D5FA3B2003F0D2FAA9
:101A6000002003F0CFFA022003F0CCFA112003F09B
:101A7000C9FAC52003F0D2FA032003F0C3FAC82044
:101A800003F0CCFA002003F0BDFA252003F0BAFAE7
:101A9000212003F0B7FA052003F0B4FA002003F088
:101AA000B1FA0A2003F0AEFA652003F0ABFA252064
:101AB00003F0A8FA772003F0A5FA502003F0A2FA69
:101AC0000F2003F09FFA002003F09CFAF82003F0A7
:101AD000A5FA012003F096FAFE2003F09FFA0020F9
:101AE00003F090FA022003F08DFA202003F096FA1A
:101AF000362000E02EE003F091FA082003F082FA8D
:101B00003A2003F08BFA552003F07CFA2B2003F0E7
:101B100085FA002003F076FA002003F073FA012022
:101B200003F070FA3F2003F06DFA2A2003F076FAF2
:101B3000002003F067FA002003F064FA012003F0AC
:101B400061FADF2003F05EFA782003F02FFE2920EF
:101B500001F0FBBEB0427CD1ED2003F05FFA012022
:101B600003F050FAFE2003F04DFAEE2003F056FA8F
:101B7000DE2003F047FA212003F044FAF12003F0BD
:101B80004DFA012003F03EFADF2003F047FA10205F
:101B900003F038FAC42003F041FA8F2003F032FA40
:101BA000C62003F03BFA002003F02CFAE22003F0F9
:101BB00029FAE22003F026FAE22003F023FABF20FC
:101BC00003F02CFAAA2003F01DFAB02003F026FA45
:101BD0000D2003F017FA002003F014FA0D2003F093
:101BE00011FA002003F00EFA112003F00BFA002086
:101BF00003F008FA192003F005FA002003F002FAB6
:101C0000212003F0FFF9002003F0FCF92D2003F060
:101C1000F9F9002003F0F6F93D2003F0F3F9002074
:101C200003F0F0F95D2003F0EDF9002003F0EAF98C
:101C30005D2003F0E7F9002003F0E4F9B12003F0A0
:101C4000EDF9802003F0DEF9002003F0DBF98B20B2
:101C500000E0FCE303F0D6F9002003F0D3F996206E
:101C600003F0D0F9002003F0CDF9B22003F0D6F94B
:101C7000002003F0C7F9002003F0C4F9022003F0AC
:101C8000C1F9002003F0BEF9032003F0BBF90020E6
:101C900003F0B8F9B32003F0C1F9002003F0B2F962
:101CA000002003F0AFF9002003F0ACF9002003F0AE
:101CB000A9F9002003F0A6F9002003F0A3F9002001
:101CC00003F0A0F9002003F09DF9002003F09AF939
:101CD000002003F097F9002003F094F9002003F0AE
:101CE00091F9002003F08EF9002003F08BF9002019
:101CF00003F088F9002003F085F9002003F082F951
:101D0000002003F07FF9002003F07CF9002003F0AD
:101D100079F9002003F076F9002003F073F9002030
:101D200003F070F9002003F06DF9B42003F076F9A8
:101D30008B2003F067F9002003F064F9962003F08C
:101D400061F9002003F05EF9A12003F05BF90020A7
:101D500003F058F9B52003F061F9022003F052F9BD
:101D6000002003F04FF9032003F04CF9002003F0AA
:101D700049F9042003F046F9002003F043F9B620A6
:101D800003F04CF9002003F03DF9002003F03AF98C
:101D9000B72003F043F9002003F034F9002003F0EA
:101DA00031F93F2003F02EF9002003F02BF95E20DB
:101DB00003F028F9002003F025F9642003F022F94C
:101DC000002003F01FF98C2003F01CF9002003F021
:101DD00019F9AC2003F016F9002003F013F9DC2008
:101DE00003F010F9002003F00DF9702003F00AF958
:101DF000002003F007F9902003F004F9002003F01D
:101E000001F9EB2003F0FEF8002003F0FBF8DC20E2
:101E100003F0F8F8002003F0F5F8B82003F0FEF81E
:101E2000002003F0EFF8002003F0ECF8002003F0AE
:101E3000E9F8002003F0E6F8002003F0E3F80020C2
:101E400003F0E0F8002003F0DDF8002003F0DAF8FA
:101E5000BA2003F0E3F8242003F0D4F8002003F0C4
:101E6000D1F8002003F0CEF8002003F0CBF8C12019
:101E700003F0D4F8202003F0C5F8002003F0C2F8E6
:101E8000542003F0BFF8002003F0BCF8FF2003F05B
:101E9000B9F8002003F0B6F8C22003F0BFF80A201A
:101EA00003F0B0F8002003F0ADF8042003F0AAF826
:101EB000002003F0A7F8C32003F0B0F83C2003F0A3
:101EC000A1F8002003F09EF83A2003F09BF80020D0
:101ED00003F098F8392003F095F8002003F092F809
:101EE000372003F08FF8002003F08CF83C2003F03B
:101EF00089F8002003F086F8362003F083F80020EC
:101F000003F080F8322003F07DF8002003F07AF827
:101F10002F2003F077F8002003F074F82C2003F052
:101F200071F8002003F06EF8292003F06BF8002010
:101F300003F068F8262003F065F8002003F062F84B
:101F4000242003F05FF8002003F05CF8242003F065
:101F500059F8002003F056F8232003F053F800202E
:101F600003F050F83C2003F04DF8002003F04AF84D
:101F7000362003F047F8002003F044F8322003F045
:101F800041F8002003F03EF82F2003F03BF800203A
:101F900003F038F82C2003F035F8002003F032F875
:101FA000292003F02FF8002003F02CF8262003F05E
:101FB00029F8002003F026F8242003F023F800205D
:101FC00003F020F8242003F01DF8002003F01AF895
:101FD000232003F017F8002003F014F8C42003F0C6
:101FE0001DF8622003F00EF8002003F00BF8052026
:101FF00003F008F8002003F005F8842003F002F84D
:10200000002002F0FFFFF02002F0FCFF002002F0B1
:10201000F9FF182002F0F6FF002002F0F3FFA420E1
:1020200002F0F0FF002002F0EDFF182002F0EAFFBE
:10203000002002F0E7FF502002F0E4FF002002F051
:10204000E1FF0C2002F0DEFF002002F0DBFF172092
:1020500002F0D8FF002002F0D5FF952002F0D2FF59
:10206000002002F0CFFFF32002F0CCFF002002F0AE
:10207000C9FFE62002F0C6FF002002F0C3FFC52022
:1020800002F0CCFF322002F0BDFF002002F0BAFFC8
:10209000442002F0B7FF002002F0B4FF652002F0F8
:1020A000B1FF002002F0AEFF762002F0ABFF00206F
:1020B00002F0A8FF882002F0A5FF002002F0A2FF96
:1020C000C62002F0ABFF202002F09CFF002002F0AF
:1020D00099FF172002F096FF002002F093FF0120E5
:1020E00002F090FF002002F08DFFC72002F096FF63
:1020F000002002F087FF002002F084FF002002F0A1
:1021000081FF002002F07EFFC82002F087FF002040
:1021100002F078FF002002F075FF002002F072FF4D
:10212000002002F06FFFC92002F078FF002002F0CB
:1021300069FF002002F066FF002002F063FF00202C
:1021400002F060FF002002F05DFF002002F05AFF65
:10215000002002F057FF002002F054FF002002F0A0
:1021600051FF002002F04EFF002002F04BFF002044
:1021700002F048FF002002F045FF002002F042FF7D
:10218000002002F03FFF002002F03CFFE02002F0C0
:1021900045FF162002F036FF002002F033FF1C201E
:1021A00002F030FF002002F02DFF212002F02AFF74
:1021B000002002F027FF362002F024FF002002F06A
:1021C00021FF462002F01EFF002002F01BFF5220DC
:1021D00002F018FF002002F015FF642002F012FF49
:1021E000002002F00FFF7A2002F00CFF002002F026
:1021F00009FF8B2002F006FF002002F003FF992068
:1022000002F000FF002002F0FDFEA82002F0FAFE1E
:10221000002002F0F7FEB92002F0F4FE002002F0E8
:10222000F1FEC42002F0EEFE002002F0EBFECA2018
:1022300002F0E8FE002002F0E5FED22002F0E2FE0D
:10224000002002F0DFFED92002F0DCFE002002F0C8
:10225000D9FEE02002F0D6FE002002F0D3FEF320EB
:1022600002F0D0FE002002F0CDFEE12002F0D6FE0A
:10227000162002F0C7FE002002F0C4FE1C2002F06F
:10228000C1FE002002F0BEFE222002F0BBFE0020B4
:1022900002F0B8FE362002F0B5FE002002F0B2FED9
:1022A000452002F0AFFE002002F0ACFE522002F00A
:1022B000A9FE002002F0A6FE642002F0A3FE00208A
:1022C00002F0A0FE7A2002F09DFE002002F09AFEAD
:1022D0008B2002F097FE002002F094FE992002F07D
:1022E00091FE002002F08EFEA82002F08BFE00205E
:1022F00002F088FEB92002F085FE002002F082FE86
:10230000C42002F07FFE002002F07CFECA2002F012
:1023100079FE002002F076FED22002F073FE00204B
:1023200002F070FED82002F06DFE002002F06AFE7E
:10233000E02002F067FE002002F064FEF32002F0CD
:1023400061FE002002F05EFEE22002F067FE052042
:1023500002F058FE002002F055FE0B2002F052FE63
:10236000002002F04FFE1B2002F04CFE002002F085
:1023700049FE342002F046FE002002F043FE4420D5
:1023800002F040FE002002F03DFE4F2002F03AFE37
:10239000002002F037FE612002F034FE002002F03F
:1023A00031FE792002F02EFE002002F02BFE882064
:1023B00002F028FE002002F025FE972002F022FE07
:1023C000002002F01FFEA62002F01CFE002002F0FA
:1023D00019FEB72002F016FE002002F013FEC22004
:1023E00002F010FE002002F00DFEC72002F00AFEEF
:1023F000002002F007FED12002F004FE002002F0CF
:1024000001FED62002F0FEFD002002F0FBFDDD20E3
:1024100002F0F8FD002002F0F5FDF32002F0F2FDDD
:10242000002002F0EFFDE32002F0F8FD052002F0AD
:10243000E9FD002002F0E6FD0A2002F0E3FD0020A5
:1024400002F0E0FD1C2002F0DDFD002000E0FDE2D6
:1024500002F0D8FD332002F0D5FD002002F0D2FDBD
:10246000442002F0CFFD002002F0CCFD502002F00D
:10247000C9FD002002F0C6FD622002F0C3FD00206D
:1024800002F0C0FD782002F0BDFD002002F0BAFD90
:10249000882002F0B7FD002002F0B4FD972002F082
:1024A000B1FD002002F0AEFDA62002F0ABFD002041
:1024B00002F0A8FDB72002F0A5FD002002F0A2FD69
:1024C000C22002F09FFD002002F09CFDC72002F018
:1024D00099FD002002F096FDD12002F093FD00202E
:1024E00002F090FDD52002F08DFD002002F08AFD63
:1024F000DD2002F087FD002002F084FDF32002F0D1
:1025000081FD002002F07EFDE42002F087FD012025
:1025100002F078FD002002F075FD012002F072FD4E
:10252000002002F06FFD022002F06CFD002002F09E
:1025300069FD2A2002F066FD002002F063FD3C20C8
:1025400002F060FD002002F05DFD4B2002F05AFD1C
:10255000002002F057FD5D2002F054FD002002F043
:1025600051FD742002F04EFD002002F04BFD84204E
:1025700002F048FD002002F045FD932002F042FDEC
:10258000002002F03FFDA22002F03CFD002002F0FE
:1025900039FDB32002F036FD002002F033FDBE20ED
:1025A00002F030FD002002F02DFDC42002F02AFDD3
:1025B000002002F027FDCD2002F024FD002002F0D3
:1025C00021FDD32002F01EFD002002F01BFDDD20C6
:1025D00002F018FD002002F015FDF32002F012FDBC
:1025E000002002F00FFDE52002F018FD002002F0AF
:1025F00009FD002002F006FD002002F003FD00208E
:1026000002F000FD022002F0FDFC002002F0FAFCC6
:10261000292002F0F7FC002002F0F4FC3C2002F03C
:10262000F1FC002002F0EEFC4B2002F0EBFC00205D
:1026300002F0E8FC5D2002F0E5FC002002F0E2FC84
:10264000742002F0DFFC002002F0DCFC842002F0A9
:10265000D9FC002002F0D6FC932002F0D3FC00202D
:1026600002F0D0FCA22002F0CDFC002002F0CAFC57
:10267000B32002F0C7FC002002F0C4FCBE2002F030
:10268000C1FC002002F0BEFCC42002F0BBFC002014
:1026900002F0B8FCCD2002F0B5FC002002F0B2FC44
:1026A000D32002F0AFFC002002F0ACFCDC2002F0F2
:1026B000A9FC002002F0A6FCF32002F0A3FC0020FD
:1026C00002F0A0FCE62002F0A9FC112002F09AFC26
:1026D000002002F097FC342002F094FC002002F06D
:1026E00091FC562002F08EFC002002F08BFC76203C
:1026F00002F088FC002002F085FC772002F082FCCA
:10270000002002F07FFC662002F07CFC002002F03A
:1027100079FC882002F076FC002002F073FC9920FE
:1027200002F070FC002002F06DFCBB2002F06AFC9D
:10273000002002F067FC992002F064FC002002F007
:1027400061FC662002F05EFC002002F05BFC55207C
:1027500002F058FC002002F055FC552002F052FC1B
:10276000002002F04FFC452002F04CFC002002F05B
:1027700049FC432002F046FC002002F043FC4420C8
:1027800002F040FC002002F03DFCE72002F046FC95
:10279000322002F037FC002002F034FC552002F019
:1027A00031FC002002F02EFC762002F02BFC0020F1
:1027B00002F028FC662002F025FC002002F022FC3A
:1027C000672002F01FFC002002F01CFC672002F0D2
:1027D00019FC002002F016FC872002F013FC0020F8
:1027E00002F010FC992002F00DFC002002F00AFC1F
:1027F000BB2002F007FC002002F004FC992002F04C
:1028000001FC002002F0FEFB772002F0FBFB002021
:1028100002F0F8FB442002F0F5FB002002F0F2FB8E
:10282000562002F0EFFB002002F0ECFB232002F028
:10283000E9FB002002F0E6FB332002F0E3FB00207E
:1028400002F0E0FB452002F0DDFB002002F0DAFBA5
:10285000E82002F0E3FB002002F0D4FB002002F0AD
:10286000D1FB992002F0CEFB002002F0CBFB8720A9
:1028700002F0C8FB002002F0C5FB882002F0C2FB7A
:10288000002002F0BFFB772002F0BCFB002002F02A
:10289000B9FB662002F0B6FB002002F0B3FB8820F3
:1028A00002F0B0FB002002F0ADFBAA2002F0AAFB70
:1028B000002002F0A7FBBB2002F0A4FB002002F0E6
:1028C000A1FB992002F09EFB002002F09BFB6620FA
:1028D00002F098FB002002F095FB552002F092FBDD
:1028E000002002F08FFB552002F08CFB002002F04C
:1028F00089FB442002F086FB002002F083FB442089
:1029000002F080FB002002F07DFB552002F07AFBF4
:10291000002002F077FBE92002F080FBAA2002F001
:1029200071FB002002F06EFB002002F06BFB002028
:1029300002F068FB002002F071FBAA2002F062FBAB
:10294000CF2002F06BFB002002F05CFB002002F0C5
:1029500059FB002002F056FB002002F053FB002040
:1029600002F050FB002002F04DFB002002F04AFB79
:10297000002002F047FB002002F044FB002002F0A0
:1029800041FB002002F03EFB002002F03BFB002058
:1029900002F038FB002002F035FB002002F032FB91
:1029A000002002F02FFB002002F02CFBF02002F0B0
:1029B00035FB002002F026FB502002F023FB002014
:1029C00002F020FB002002F01DFB002002F01AFBA9
:1029D000F32002F023FB002002F014FBF92002F0A8
:1029E0001DFB062002F00EFB102002F00BFB29203D
:1029F00002F008FB002002F005FB3A2002F00EFB7B
:102A0000552002F0FFFA112002F008FB642002F0CA
:102A1000CDFE292002F002FB352002F0FFFA002053
:102A200002F0F0FA512002F0F9FAFF2002F0EAFA7F
:102A3000532002F0F3FA2C2002F0E4FA552002F0C1
:102A4000EDFA822002F0DEFA2C20FCE3A0427DD1D8
:102A50004FF470435521184602F0F6FA4FF2010484
:102A6000AA21204602F0F0FA651C5221284602F005
:102A7000EBFAA61C0821304602F0E6FAE71C012119
:102A8000384602F0E1FA0D214FF4304002F0DCFA52
:102A90000D214BF2010002F0D7FA0D214BF202009A
:102AA00002F0D2FA4FF436483421404602F0CCFA14
:102AB00034214BF2016002F0C7FA34214BF202607C
:102AC00002F0C2FA4FF431490D21484602F0BCFA37
:102AD0004BF2011B0D21584602F0B6FA0D214BF2C4
:102AE000021002F0B1FA34214FF4374002F0ACFA90
:102AF00034214BF2017002F0A7FA34214BF202703C
:102B000002F0A2FA00214FF4324002F09DFA0021B7
:102B10004BF2012002F098FA00214BF2022002F061
:102B200093FA24214FF4384002F08EFA24214BF618
:102B3000010002F089FA24214BF6020002F084FA27
:102B400001214FF43F4002F07FFA00E0FEE30F2145
:102B50004FF4334002F078FA0F214BF2013002F0CB
:102B600073FA0F214BF2023002F06EFA34214FF467
:102B7000394002F069FA34214BF6011002F064FA90
:102B800034214BF6021002F05FFA08214FF4354071
:102B900002F05AFA08214BF2015002F055FA0821CE
:102BA0004BF2025002F050FA03214FF4424002F07F
:102BB0004BFA24214FF43A4002F046FA24214BF616
:102BC000012002F041FA24214BF6022002F03CFAE7
:102BD00000214FF43C4002F037FA78214BF60140D7
:102BE00002F032FA00214BF6024002F02DFA0021E9
:102BF0004FF43D4002F028FA78214BF6015002F0E4
:102C000023FA00214BF6025002F01EFA00214FF485
:102C10003E4002F019FA64214BF6016002F014FA0A
:102C200000214FF4514002F00FFA33214DF2011010
:102C300002F00AFA00214DF2021002F005FA3421E6
:102C40004DF2031002F000FA00214DF2041002F0E0
:102C5000FBF93A214DF2051002F0F6F900214DF290
:102C6000061002F0F1F94A214DF2071002F0ECF9DA
:102C700000214DF2081002F0E7F95C214DF2091035
:102C800002F0E2F900214DF20A1002F0DDF9812193
:102C90004DF20B1002F0D8F900214DF20C1002F0A9
:102CA000D3F9A6214DF20D1002F0CEF900214DF21C
:102CB0000E1002F0C9F9E5214DF20F1002F0C4F92F
:102CC00001214DF2101002F0BFF913214DF2111045
:102CD00002F0BAF901214DF2121002F0B5F95421B7
:102CE0004DF2131002F0B0F901214DF2141002F070
:102CF000ABF982214DF2151002F0A6F901214DF237
:102D0000161002F0A1F9CA214DF2171002F09CF939
:102D100002214DF2181002F097F900214DF219101E
:102D200002F092F902214DF21A1002F08DF9012100
:102D30004DF21B1002F088F902214DF21C1002F036
:102D400083F934214DF21D1002F07EF902214DF27B
:102D50001E1002F079F967214DF21F1002F074F98C
:102D600002214DF2201002F06FF984214DF2211062
:102D700002F06AF902214DF2221002F065F9A42155
:102D80004DF2231002F060F902214DF2241002F0FE
:102D90005BF9B7214DF2251002F056F902214DF2F0
:102DA000261002F051F9CF214DF2271002F04CF914
:102DB00002214DF2281002F047F9DE214DF22910D0
:102DC00002F042F902214DF22A1002F03DF9F221FF
:102DD0004DF22B1002F038F902214DF22C1002F0C6
:102DE00033F9FE214DF22D1002F02EF903214DF2A0
:102DF0002E1002F029F910214DF22F1002F024F9C3
:102E000003214DF2301002F01FF933214DF2311041
:102E100002F01AF903214DF2321002F015F96D217A
:102E20004DF2331002F010F900214FF4524002F03D
:102E30000BF933214DF2012002F006F900214DF289
:102E4000022002F001F934214DF2032002F0FCF8D7
:102E500000214DF2042002F0F7F83A214DF205204E
:102E600002F0F2F800214DF2062002F0EDF84A21BE
:102E70004DF2072002F0E8F800214DF2082002F0A0
:102E8000E3F85C214DF2092002F0DEF800214DF25A
:102E90000A2002F0D9F881214DF20B2002F0D4F87B
:102EA00000214DF20C2002F0CFF8A6214DF20D20AA
:102EB00002F0CAF800214DF20E2002F0C5F8E5211B
:102EC0004DF20F2002F0C0F801214DF2102002F067
:102ED000BBF813214DF2112002F0B6F801214DF29A
:102EE000122002F0B1F854214DF2132002F0ACF898
:102EF00001214DF2142002F0A7F882214DF2152095
:102F000002F0A2F801214DF2162002F09DF8CA212C
:102F10004DF2172002F098F802214DF2182002F02D
:102F200093F800214DF2192002F08EF802214DF2A3
:102F30001A2002F089F801214DF21B2002F084F8DA
:102F400002214DF21C2002F07FF834214DF21D20A9
:102F500002F07AF802214DF21E2002F075F8672186
:102F60004DF21F2002F070F802214DF2202002F0F5
:102F70006BF884214DF2212002F066F802214DF217
:102F8000222002F061F8A4214DF2232002F05CF827
:102F900002214DF2242002F057F8B7214DF22520EE
:102FA00002F052F802214DF2262002F04DF8CF2116
:102FB0004DF2272002F048F802214DF2282002F0BD
:102FC00043F8DE214DF2292002F03EF802214DF2B5
:102FD0002A2002F039F8F2214DF22B2002F034F8C9
:102FE00002214DF22C2002F02FF8FE214DF22D206F
:102FF00002F02AF803214DF22E2002F025F81021CC
:103000004DF22F2002F020F803214DF2302002F083
:103010001BF833214DF2312002F016F803214DF256
:10302000322002F011F86D214DF2332002F00CF83D
:1030300000214FF4534002F007F833214DF20130E4
:1030400002F002F800214DF2023001F0FDFF3421C0
:103050004DF2033001F0F8FF00214DF2043001F091
:10306000F3FF3A214DF2053001F0EEFF00214DF261
:10307000063001F0E9FF4A214DF2073001F0E4FF8C
:1030800000214DF2083001F0DFFF5C214DF20930E4
:1030900001F0DAFF00214DF20A3001F0D5FF812165
:1030A0004DF20B3001F0D0FF00214DF20C3001F059
:1030B000CBFFA6214DF20D3001F0C6FF00214DF2ED
:1030C0000E3001F0C1FFE5214DF20F3001F0BCFFE1
:1030D00001214DF2103001F0B7FF13214DF21130F4
:1030E00001F0B2FF01214DF2123001F0ADFF542189
:1030F0004DF2133001F0A8FF01214DF2143001F020
:10310000A3FF82214DF2153001F09EFF01214DF207
:10311000163001F099FFCA214DF2173001F094FFEB
:1031200002214DF2183001F08FFF00214DF21930CD
:1031300001F08AFF02214DF21A3001F085FF0121D2
:103140004DF21B3001F080FF02214DF21C3001F0E6
:103150007BFF34214DF21D3001F076FF02214DF24C
:103160001E3001F071FF67214DF21F3001F06CFF3E
:1031700002214DF2203001F067FF84214DF2213011
:1031800001F062FF02214DF2223001F05DFFA42127
:103190004DF2233001F058FF02214DF2243001F0AE
:1031A00053FFB7214DF2253001F04EFF02214DF2C1
:1031B000263001F049FFCF214DF2273001F044FFC6
:1031C00002214DF2283001F03FFFDE214DF229307F
:1031D00001F03AFF02214DF22A3001F035FFF221D1
:1031E0004DF22B3001F030FF02214DF22C3001F076
:1031F0002BFFFE214DF22D3001F026FF03214DF271
:103200002E3001F021FF10214DF22F3001F01CFF74
:1032100003214DF2303001F017FF33214DF23130F0
:1032200001F012FF03214DF2323001F00DFF6D214C
:103230004DF2333001F008FF00214FF4544001F00B
:1032400003FF332100E080E34DF2014001F0FCFE7A
:1032500000214DF2024001F0F7FE34214DF203400F
:1032600001F0F2FE00214DF2044001F0EDFE3A21A2
:103270004DF2054001F0E8FE00214DF2064001F05C
:10328000E3FE4A214DF2074001F0DEFE00214DF23F
:10329000084001F0D9FE5C214DF2094001F0D4FE56
:1032A00000214DF20A4001F0CFFE81214DF20B408A
:1032B00001F0CAFE00214DF20C4001F0C5FEA6212E
:1032C0004DF20D4001F0C0FE00214DF20E4001F024
:1032D000BBFEE5214DF20F4001F0B6FE01214DF29B
:1032E000104001F0B1FE13214DF2114001F0ACFE8F
:1032F00001214DF2124001F0A7FE54214DF213407E
:1033000001F0A2FE01214DF2144001F09DFE822148
:103310004DF2154001F098FE01214DF2164001F0EA
:1033200093FECA214DF2174001F08EFE02214DF2AC
:10333000184001F089FE00214DF2194001F084FE91
:1033400002214DF21A4001F07FFE00E000E301216E
:103350004DF21B4001F078FE02214DF21C4001F0BD
:1033600073FE34214DF21D4001F06EFE02214DF23C
:103370001E4001F069FE67214DF21F4001F064FE1E
:1033800002214DF2204001F05FFE84214DF22140E8
:1033900001F05AFE02214DF2224001F055FEA42117
:1033A0004DF2234001F050FE02214DF2244001F085
:1033B0004BFEB7214DF2254001F046FE02214DF2B1
:1033C000264001F041FECF214DF2274001F03CFEA6
:1033D00002214DF2284001F037FEDE214DF2294056
:1033E00001F032FE02214DF22A4001F02DFEF221C1
:1033F0004DF22B4001F028FE02214DF22C4001F04D
:1034000023FEFE214DF22D4001F01EFE03214DF260
:103410002E4001F019FE10214DF22F4001F014FE54
:1034200003214DF2304001F00FFE33214DF23140C7
:1034300001F00AFE03214DF2324001F005FE6D213C
:103440004DF2334001F000FE00214FF4554001F0F1
:10345000FBFD33214DF2015001F0F6FD00214DF24C
:10346000025001F0F1FD34214DF2035001F0ECFD6A
:1034700000214DF2045001F0E7FD3A214DF20550D4
:1034800001F0E2FD00214DF2065001F0DDFD4A2180
:103490004DF2075001F0D8FD00214DF2085001F027
:1034A000D3FD5C214DF2095001F0CEFD00214DF21B
:1034B0000A5001F0C9FD81214DF20B5001F0C4FD0D
:1034C00000214DF20C5001F0BFFDA6214DF20D5030
:1034D00001F0BAFD00214DF20E5001F0B5FDE521DD
:1034E0004DF20F5001F0B0FD01214DF2105001F0EE
:1034F000ABFD13214DF2115001F0A6FD01214DF25B
:10350000125001F0A1FD54214DF2135001F09CFD29
:1035100001214DF2145001F097FD82214DF215501A
:1035200001F092FD01214DF2165001F08DFDCA21EE
:103530004DF2175001F088FD02214DF2185001F0B4
:1035400083FD00214DF2195001F07EFD02214DF264
:103550001A5001F079FD01214DF21B5001F074FD6C
:1035600002214DF21C5001F06FFD34214DF21D502F
:1035700001F06AFD02214DF21E5001F065FD672148
:103580004DF21F5001F060FD02214DF2205001F07C
:103590005BFD84214DF2215001F056FD02214DF2D8
:1035A000225001F051FDA4214DF2235001F04CFDB9
:1035B00002214DF2245001F047FDB7214DF2255074
:1035C00001F042FD02214DF2265001F03DFDCF21D8
:1035D0004DF2275001F038FD02214DF2285001F044
:1035E00033FDDE214DF2295001F02EFD02214DF276
:1035F0002A5001F029FDF2214DF22B5001F024FD5B
:1036000002214DF22C5001F01FFDFE214DF22D50F4
:1036100001F01AFD03214DF22E5001F015FD10218D
:103620004DF22F5001F010FD03214DF2305001F00A
:103630000BFD33214DF2315001F006FD03214DF217
:10364000325001F001FD6D214DF2335001F0FCFCD0
:1036500000214FF4564001F0F7FC33214DF2016098
:1036600001F0F2FC00214DF2026001F0EDFC34218A
:103670004DF2036001F0E8FC00214DF2046001F01E
:10368000E3FC3A214DF2056001F0DEFC00214DF231
:10369000066001F0D9FC4A214DF2076001F0D4FC2C
:1036A00000214DF2086001F0CFFC5C214DF2096071
:1036B00001F0CAFC00214DF20A6001F0C5FC812135
:1036C0004DF20B6001F0C0FC00214DF20C6001F0E6
:1036D000BBFCA6214DF20D6001F0B6FC00214DF2BD
:1036E0000E6001F0B1FCE5214DF20F6001F0ACFC81
:1036F00001214DF2106001F0A7FC13214DF2116081
:1037000001F0A2FC01214DF2126001F09DFC542158
:103710004DF2136001F098FC01214DF2146001F0AC
:1037200093FC82214DF2156001F08EFC01214DF2D7
:10373000166001F089FCCA214DF2176001F084FC8B
:1037400002214DF2186001F07FFC00214DF219605A
:1037500001F07AFC02214DF21A6001F075FC0121A2
:103760004DF21B6001F070FC02214DF21C6001F073
:103770006BFC34214DF21D6001F066FC02214DF21C
:103780001E6001F061FC67214DF21F6001F05CFCDE
:1037900002214DF2206001F057FC84214DF221609E
:1037A00001F052FC02214DF2226001F04DFCA421F7
:1037B0004DF2236001F048FC02214DF2246001F03B
:1037C00043FCB7214DF2256001F03EFC02214DF291
:1037D000266001F039FCCF214DF2276001F034FC66
:1037E00002214DF2286001F02FFCDE214DF229600C
:1037F00001F02AFC02214DF22A6001F025FCF221A1
:103800004DF22B6001F020FC02214DF22C6001F002
:103810001BFCFE214DF22D6001F016FC03214DF240
:103820002E6001F011FC10214DF22F6001F00CFC14
:1038300003214DF2306001F007FC33214DF231607D
:1038400001F002FC03214DF2326001F0FDFB6D211D
:103850004DF2336001F0F8FB5521184601F0F4FBFE
:10386000AA21204601F0F0FB5221284601F0ECFB92
:103870000821304601F0E8FB0021384601F0E4FB66
:10388000CC21484601F0E0FB0021584601F0DCFB6A
:103890000521404601F0D8FB70214FF4374001F07C
:1038A000D3FB70214BF2017001F0CEFB01214FF4EC
:1038B000384001F0C9FB03214BF6010001F0C4FBC5
:1038C00003214BF6020001F0BFFB03214BF603007E
:1038D00001F0BAFB02214FF43C4001F0B5FB00219E
:1038E0004BF6014001F0B0FB00214BF6024001F025
:1038F000ABFBD0214FF4494001F0A6FB02214CF66E
:10390000011001F0A1FB50214CF6021001F09CFBCC
:1039100050214CF6031001F097FB50214CF6041097
:1039200001F092FB00214FF4545001F08DFB552122
:103930004FF4685001F088FB4FF4885001F06EFBA3
:10394000782001F035FF4FF4245001F067FBFEE0D2
:10395000A0F513414FF480744FF4E06640F2022763
:1039600040F23F1B4FF4274825397DD0F51DA0F5C7
:103970001341283979D0A0F513414FF488784FF4DA
:103980001C59203972D0A0F5134131396FD0A0F500
:10399000A84108396CD0A0F5A8514FF440780539FA
:1039A00067D0A0F5354105397ED0A0F545410539F0
:1039B0007BD0A0F58A41313978D0A0F58A413539DC
:1039C00075D09042C3D1E22001F028FB1D2001F008
:1039D00019FB022001F016FB042001F013FB642008
:1039E00001F0E6FEE02001F019FB012001F00AFBE6
:1039F0000A2001F0DBFEE02001F010FB032001F0C3
:103A000001FB0C2001F0D2FE012001F007FB0A208F
:103A100001F0CCFEE62001F001FB2F2001F0F2FACC
:103A2000FF2001F0EFFAFF2001F0ECFAB02001F0E6
:103A3000F5FA202001F0E6FA002001F0E3FA032075
:103A400001F0E0FA40F21F3001F0DCFA012001F051
:103A5000D9FA40F2DF1001F0D5FA002001F0D2FAD5
:103A6000B42001F0DBFA05E07DE047E102E2A8E2E4
:103A70007CE3FDE3042001F0C5FA40F21F4001F0B1
:103A8000C1FA002001F0BEFA2E2001F0BBFA00209E
:103A900001F0B8FA002001F0B5FA002001F0B2FA06
:103AA000002001F0AFFA03E0FDE3FDE3FDE3FDE3F9
:103AB000B62001F0B3FA022001F0A4FA4FF403702B
:103AC00001F0A0FA002001F09DFA172001F09AFA07
:103AD000152001F097FA002001F094FA002001F07F
:103AE00091FAF02001F09AFA032001F08BFA2920D4
:103AF00001F094FAD02001F091FA002001F082FA4E
:103B0000BE2001F08BFA052001F07CFAFE2001F0C6
:103B100079FA012001F076FA002001F073FA002012
:103B200001F070FA002001F06DFAB82001F076FA89
:103B3000032001F067FA012001F064FABA2001F0D5
:103B40006DFA012001F05EFA642000F0EFFF002022
:103B5000FDF734FCFE490120C1F8BC025046BDE827
:103B6000F84FFDF7F7BB47F6F001E52001F06CFADE
:103B70002146012001F068FA3146022001F064FA82
:103B800041F23001032001F05FFA0021042001F02E
:103B90005BFA3946082001F057FA0021092001F0AC
:103BA00053FA00210A2001F04FFA00210C2001F005
:103BB0004BFA00210D2001F047FA00210F2001F0FF
:103BC00043FA0021102001F03FFA0721112001F0F3
:103BD0003BFA0021122001F037FA0021132001F0F6
:103BE00033FA0021072001F02FFA41F290611020F2
:103BF00001F02AFA40F22721112001F025FA9D2137
:103C0000122001F021FA4FF4C851132001F01CFAE0
:103C10002521292001F018FA0D212B2001F014FA9A
:103C20000721302001F010FA40F20331312001F079
:103C30000BFA0321322001F007FA40F20621352069
:103C400001F002FA0821362001F0FEF940F20641A7
:103C5000372001F0F9F94FF44171382001F0F4F9FF
:103C60000721392001F0F0F940F202613C2001F017
:103C7000EBF908213D2001F0E7F90021502001F087
:103C8000E3F9EF21512001F0DFF90021522001F08A
:103C9000DBF95946532001F0D7F94146602001F085
:103CA000D3F90121612001F0CFF900216A2001F050
:103CB000CBF90021802001F0C7F90021812001F01B
:103CC000C3F90021822001F0BFF90021832001F017
:103CD000BBF90021842001F0B7F90021852001F013
:103CE000B3F91021902001F0AFF94FF4C061922098
:103CF00001F0AAF940F233110720FDE341F28F01F0
:103D0000EC2001F0A1F941F23421EF2001F09CF9FF
:103D10002146012001F098F93146022001F094F982
:103D200041F23001032001F08FF90021042001F05D
:103D30008BF93946082001F087F90021092001F0AC
:103D400083F900210A2001F07FF901210C2001F004
:103D50007BF900210D2001F077F900210F2001F0FF
:103D600073F90021102001F06FF90721112001F0F3
:103D70006BF90021122001F067F90021132001F0F6
:103D800063F90121072001F05FF9322001F00EFDF7
:103D900041F29041102001F057F940F22721112003
:103DA00001F052F9322001F001FD8A21122001F0C8
:103DB0004BF9322001F0FAFC4FF4D051132001F0FE
:103DC00043F90621292001F03FF90D212B2001F0B4
:103DD0003BF9322001F0EAFC0021202001F034F907
:103DE0000021212001F030F9322001F0DFFC002118
:103DF000302001F029F940F20461312001F024F96A
:103E000040F20531322001F01FF90021352001F088
:103E10001BF940F60941362001F016F94FF4017103
:103E2000372001F011F940F20131382001F00CF98E
:103E30002946392001F008F900213C2001F004F95D
:103E400040F60A213D2001F0FFF8322001F0AEFCDF
:103E50000021502001F0F8F8EF21512001F0F4F892
:103E60000021522001F0F0F85946532001F0ECF8FF
:103E7000414650E10021084601F0E6F821460120C4
:103E800001F0E2F83146022001F0DEF841F23001A3
:103E9000032001F0D9F80021042001F0D5F83946BB
:103EA000082001F0D1F80021092001F0CDF800210F
:103EB0000A2001F0C9F801210C2001F0C5F8002109
:103EC0000D2001F0C1F800210F2001F0BDF83220D3
:103ED00001F06CFC40F20111072001F0B5F832202E
:103EE00001F064FC4FF48651102001F0ADF8072179
:103EF000112001F0A9F843464146122001F0A4F830
:103F00004FF43061132001F09FF80021292001F0C7
:103F10009BF844F210012B2001F096F8002150206C
:103F200001F092F8EF21512001F08EF8002152208B
:103F300001F08AF85946532001F086F8494660207E
:103F400001F082F80121612001F07EF8002101E0FA
:103F5000008040426A2001F077F80021802001F0C3
:103F600073F80021812001F06FF80021822001F018
:103F70006BF80021832001F067F80021842001F014
:103F800063F80021852001F05FF81021902001F0F6
:103F90005BF80021922001F057F80121932001F0F5
:103FA00053F81946952001F04FF80021972001F0B1
:103FB0004BF80021982001F047F840F273110720D8
:103FC0007AE341F21401E72001F03EF82146012096
:103FD00001F03AF84FF40071022001F035F841F297
:103FE0003801032001F030F83946082001F02CF8A0
:103FF0000021092001F028F800210A2001F024F80E
:1040000000210C2001F020F800210D2001F01CF807
:1040100000210F2001F018F80021102001F014F801
:104020000721112001F010F80021122001F00CF8F6
:104030000021132001F008F8C82001F0B7FB41F27D
:104040009061102001F000F840F22721112000F0CB
:10405000FBFF322001F0AAFB0C21122000F0F4FF3C
:10406000322001F0A3FB4FF40061132000F0ECFFBD
:104070001121292000F0E8FF0B212B2000F0E4FFA4
:10408000322001F093FB0021202000F0DDFF5B4691
:104090005946212000F0D8FF0021302000F0D4FF45
:1040A0004FF483742146312000F0CEFF00213220EE
:1040B00000F0CAFF4FF40171352000F0C5FF41F256
:1040C0000A61362000F0C0FF2946372000F0BCFF0F
:1040D0002146382000F0B8FF2946392000F0B4FF0F
:1040E00040F202413C2000F0AFFF40F60F413D207E
:1040F00000F0AAFF0021502000F0A6FFEF21512080
:1041000000F0A2FF0021522000F09EFF194653202C
:1041100000F09AFF4946602000F096FF01216120DF
:1041200000F092FF00216A2000F08EFF0021802025
:1041300000F08AFF0021812000F086FF002182200C
:1041400000F082FF0021832000F07EFF0021842008
:1041500000F07AFF0021852000F076FF10219020EA
:1041600000F072FF4FF4C0619220FCE32146012071
:1041700000F06AFF3146022000F066FF41F2300194
:10418000032000F061FF0021042000F05DFF40F2F9
:104190000721082000F058FF0021092000F054FFFB
:1041A00000210A2000F050FF00210C2000F04CFFFD
:1041B00000210D2000F048FF00210F2000F044FFF7
:1041C000142001F0F3FA41F2B061102000F03CFF3E
:1041D0000121112000F038FF0121172000F034FFE9
:1041E0004FF49C71122000F02FFF4FF40061132058
:1041F00000F02AFF0921292000F026FF09212A20AA
:1042000000F022FF0021A42000F01EFF002150201A
:1042100000F01AFFEF21512000F016FF002152207C
:1042200000F012FF5946532000F00EFF494660206F
:1042300000F00AFF0121612000F006FF00216A2042
:1042400000F002FF0021802000F0FEFE002181200E
:1042500000F0FAFE0021822000F0F6FE002183200B
:1042600000F0F2FE0021842000F0EEFE002100E0CC
:104270001DE0852000F0E8FE1321902000F0E4FE10
:104280000021922000F0E0FE0321932000F0DCFEEC
:104290004146952000F0D8FE40F27311072000F04F
:1042A000D3FE322009E10CE107E2CEE283E30021F4
:1042B000072000F0C9FE322001F078FA4FF48E7129
:1042C000122000F0C1FE0121A42000F0BDFE0F214C
:1042D000082000F0B9FE08210A2000F0B5FE0821F0
:1042E0000D2000F0B1FE2946302000F0ADFE072180
:1042F000312000F0A9FE40F20361322000F0A4FE5C
:104300003146332000F0A0FE3946342000F09CFEF8
:104310000221352000F098FE41F60F71362000F0A2
:1043200093FE2946372000F08FFE0021382000F050
:104330008BFE0021392000F087FE29463A2000F04C
:1043400083FE00213B2000F07FFE07213C2000F08F
:104350007BFE00213D2000F077FE322001F026FA9E
:104360000121072000F070FE0121172000F06CFEF3
:10437000322001F01BFA4FF4BD51102000F064FE12
:1043800040F21721112000F05FFE4FF48F711220D0
:1043900000F05AFE4FF47061132000F055FE00212A
:1043A0002A2000F051FE0A21292000F04DFE4FF492
:1043B0009F71122000F048FE0021502000F044FEC2
:1043C000EF21512000F040FE0021522000F03CFE81
:1043D0005946532000F038FE4946602000F034FE74
:1043E0000121612000F030FE00216A2000F02CFE47
:1043F0000021802000F028FE0021812000F024FE12
:104400000021822000F020FE0021832000F01CFE0D
:104410000021842000F018FE0021852000F014FE09
:104420001321902000F010FE4146922000F00CFE77
:104430000521932000F008FE0021952000F004FEE5
:104440000021972000F000FE0021982000F0FCFDE4
:104450002146012000F0F8FD3146022000F0F4FD75
:1044600041F23801032000F0EFFD0021042000F0AC
:10447000EBFD00210C2000F0E7FD00210F2000F0F3
:10448000E3FD0021202000F0DFFD0021212000F0CD
:10449000DBFD2121072000F0D7FD142001F086F973
:1044A0006121072000F0D0FD142001F07FF940F2D7
:1044B0007311072000F0C8FD142001F077F9FFF711
:1044C00046BB0021084600F0BFFD0021084600F071
:1044D000BBFD0021084600F0B7FD0021084600F0B2
:1044E000B3FD0121A42000F0AFFD142001F05EF91E
:1044F0004D464946602000E0DAE000F0A5FD39466F
:10450000082000F0A1FD4FF40571302000F09CFD63
:1045100043F21571312000F097FD40F20461322022
:1045200000F092FD40F61661332000F08DFD42F25E
:104530001121342000F088FD4FF4A851352000F0FF
:1045400083FD48F20751362000F07EFD41F207411D
:10455000372000F079FD41F20341382000F074FD6E
:104560002021392000F070FD1A21902000F06CFD10
:104570000021102000F068FD0721112000F064FDEB
:104580000021122000F060FD0021132000F05CFDEE
:10459000142001F00BF94FF4E661102000F054FDF7
:1045A00040F23711112000F04FFD142001F0FEF809
:1045B0004FF4DC71122000F047FD142001F0F6F8F2
:1045C0004FF47061132000F03FFD80212A2000F09D
:1045D0003BFD4821292000F037FD142001F0E6F8CA
:1045E0002146012000F030FD3146022000F02CFD74
:1045F00041F23801032000F027FD3946082000F081
:1046000023FD00210A2000F01FFD00210C2000F0F6
:104610001BFD00210D2000F017FD30210E2000F0C1
:1046200013FD0021502000F00FFDEF21512000F07C
:104630000BFD0021522000F007FD5946532000F0E9
:1046400003FD2946602000F0FFFC0121612000F0FD
:10465000FBFC00216A2000F0F7FC1121902000F003
:10466000F3FC4FF4C061922000F0EEFC40F20241F6
:10467000932000F0E9FC0221942000F0E5FC1420D6
:1046800001F094F80121072000F0DEFC142001F075
:104690008DF86121072000F0D7FC40F2731107204C
:1046A00000F0D2FC0021202000F0CEFC00212120CF
:1046B00000F0CAFC222100207AE10021084600F027
:1046C000C3FC0021084600F0BFFC142001F06EF886
:1046D0000021084600F0B8FC0021084600F0B4FCB8
:1046E0000021084600F0B0FC0021084600F0ACFCB8
:1046F0000121A42000F0A8FC142001F057F849463D
:10470000602000F0A1FC40F60601082000F09CFCAF
:1047100040F203731946302000F096FC012131204D
:1047200000F092FC0421322000F08EFC4FF48171E5
:10473000332000F089FC45464146342000F084FCDB
:1047400040F20311352000F07FFC1F21362000F0DD
:104750007BFC1946372000F077FC0121382000F05F
:1047600073FC0421392000F06FFC1521902000F02B
:104770006BFC4FF48261102000F066FC40F2472190
:10478000112000F061FC4FF4DE71122000F05CFC9F
:104790004FF46061132000F057FC782001F006F818
:1047A0002146012000F050FC4FF40071022000F07F
:1047B0004BFC41F23001032000F046FC08210A20A6
:1047C00000F042FC00210C2000F03EFC20210E20D5
:1047D00000F03AFC00210F2000F036FC00212020E0
:1047E00000F032FC0021212000F02EFC3D212A2087
:1047F00000F02AFC142000F0D9FF2D21292000F020
:1048000023FC0021502000F01FFC4DF2EF0151204D
:1048100000F01AFC0021522000F016FC59465320EB
:1048200000F012FC0021612000F00EFC00216A2043
:1048300000F00AFC2946922000F006FC0521932096
:1048400000F002FC2146FFF7BABB0121002000F076
:10485000FBFB0A2000F0AAFF41F22861102000F0C3
:10486000F3FB0E21122000F0EFFB40F6392113205C
:1048700000F0EAFB0A2000F099FF4021112000F02F
:10488000E3FB5021152000F0DFFB0A2000F08EFF33
:104890001E21122000F0D8FB0A2000F087FF4FF401
:1048A000B151102000F0D0FB42F63921132000F066
:1048B000CBFB0A2000F07AFF2146012000F0C4FB68
:1048C0004146022000F0C0FB41F23801032000F015
:1048D000BBFB3946082000F0B7FB08210A2000F096
:1048E000B3FB0021302000F0AFFB40F20241312049
:1048F00000F0AAFB4FF48371322000F0A5FB40F2D8
:104900000351332000F0A0FB4FF48271342000F0FB
:104910009BFB40F20131352000F096FB2946362002
:1049200000F092FB40F20531372000F08DFB4FF490
:104930000271382000F088FB40F60B71392000F03E
:1049400083FB0221412000F07FFB4946602000F0FC
:104950007BFB0121612000F077FB4FF40471902074
:1049600000F072FB00E0C8E04FF48571922000F087
:104970006BFB0421932000F067FB2146A02000F090
:1049800063FB0121072000F05FFB2121072000F0DD
:104990005BFB2321072000F057FB3321072000F0A9
:1049A00053FB40F23311072000F04EFB0021A02002
:1049B00000F04AFB83E53021152000F045FB102173
:1049C0009A2000F041FB2021112000F03DFB43F232
:1049D0002841102000F038FB0221122000F034FBA7
:1049E00041F23801132000F02FFB282000F0DEFEFA
:1049F0001221084600F028FB282000F0D7FE43F2E1
:104A00002041102000F020FB43F23801132000F079
:104A10001BFB462000F0CAFE0021302000F014FBF2
:104A200040F20241312000F00FFB40F2073132200A
:104A300000F00AFB4FF44171332000F005FB042124
:104A4000342000F001FB40F20141352000F0FCFA77
:104A50002946362000F0F8FA40F20531372000F000
:104A6000F3FA4FF4C2631946382000F0EDFA194604
:104A7000392000F0E9FA2146012000F0E5FA41462C
:104A8000022000F0E1FA41F23001032000F0DCFAEC
:104A900040F60801082000F0D7FA08210A2000F0AB
:104AA000D3FA4946602000F0CFFA0121612000F0DE
:104AB000CBFA4FF49F71902000F0C6FA2146922065
:104AC00000F0C2FA2146932000F0BEFA4FF44051A4
:104AD000A02000F0B9FA1021A32000F0B5FA0121BE
:104AE000072000F0B1FA2121072000F0ADFA2321C0
:104AF000072000F0A9FA3321072000F0A5FA40F2C0
:104B00003311A0E608B54FF0D840B0F88000ADF8FA
:104B10000000BDF8000008BD10B500F07FFA0520C8
:104B200000F046FEBDE81040FFF7ECBF10B50246AE
:104B3000BE2000F073FA052000F064FA1046FBF77F
:104B4000F4FB9FED0C1B53EC112BFBF77CFBFBF7ED
:104B5000F9FB80B200F056FA012000F053FAFF2072
:104B600000F050FA002000F04DFABDE8104000209F
:104B700000F048BA6666666666660440F0B57F4C2B
:104B800000232146A579898846F6040241F663167A
:104B9000012D01D02DB11DE091421BD0B14202D1B7
:104BA00018E0B14216D1082814D2DFE800F004065C
:104BB000080A0C0E101206200CE007200AE0042060
:104BC00008E0052006E0012004E0002002E00320C8
:104BD00000E00220A1F5134C45F2103745F21055C4
:104BE000BCF1410C07D0914205D0B94203D0A94293
:104BF00001D0B1427BD1082812D2DFE800F01104C5
:104C000006080A0C0E1080230AE0402308E0C023A7
:104C100006E0202304E0602302E0A02300E0E0237C
:104C2000A94202D14FF4585000E03620B94205D0D5
:104C3000A94203D0B14201D043F00803914201D10F
:104C400043F00203194600F0FFF9A188B1420AD0EF
:104C500098062088628802D5904202D303E09042F1
:104C600001D9228060806089A94241D100F0D6F943
:104C7000002000F0C7F96089401C80B200F0CEF936
:104C8000002000F0BFF96089801C80B200F0C6F9F6
:104C90002088401EC0F30F2000F0B4F96089C01CCA
:104CA00080B200F0BBF92078401EC0B200F0AAF933
:104CB000A08900F0B3F9002000F0A4F9A089401CFD
:104CC00080B200F0ABF9002000F09CF9A089801CB4
:104CD00080B200F0A3F96088401EC0F30F2000F0FE
:104CE00091F9A089C01C80B200F098F922E028E078
:104CF00000F094F9002000F085F9002000F082F91E
:104D00002088401EC0F30F2000F07CF92078401E60
:104D1000C0B200F077F9A08900F080F9002000F01F
:104D200071F9002000F06EF96088401EC0F30F207A
:104D300000F068F9A078BDE8F040401EC0B200F075
:104D400061B9082812D2DFE800F0040608110A0C45
:104D50000E1030230AE0102308E0202306E0382359
:104D600004E0282302E0182300E00823BDE8F04017
:104D7000032043F4805100F067B900004000002098
:104D80002DE9F043DFF850810C4602464FEA112925
:104D9000B8F804004146150A4B89A0F51346413E78
:104DA00017D0A0F5A641103913D04646A0F5D0473C
:104DB000B1793688B61A761E043F0FD0A0F5C857D1
:104DC000633F20D0A0F5AA47103F5BD0012977D0E0
:104DD00077E0184600F022F9284606E0012900D1C4
:104DE000B2B2184600F01AF9100A00F00BF9D0B26E
:104DF00000F008F9B8F80C0000F010F9484600F08F
:104E000001F9E0B22BE071B3184600F007F928462B
:104E100000F0F8F8D0B200F0F5F8B8F80000401E45
:104E2000C0F30F2000F0EEF898F80000401EC0B26A
:104E300000F0E8F8B8F80C0000F0F0F8484600F090
:104E4000E1F8E0B200F0DEF8B8F80200401EC0F36E
:104E50000F2000F0D7F898F80200401EC0B2BDE85D
:104E6000F04300F0CFB8B2B2184600F0D7F80020F7
:104E700000F0C8F8002000F0C5F8100A00F0C2F8F1
:104E8000D0B2D5E7184600F0C9F8284600F0BAF8C5
:104E9000B8F80A00401C80B200F0C0F8D0B200F0B0
:104EA000B1F8B8F80C0000F0B9F8484600F0AAF8DC
:104EB000B8F80C00401C80B200F0B0F8A1E7FFE7A2
:104EC000B2B21146184600F0BFF8B8F80C002146FF
:104ED000BDE8F04300F0B8B8400000202DE9FF4FD6
:104EE0001D460C468A46580700D0012000EBD5002D
:104EF000690810FB01F0203A00F0FF09D0B200264B
:104F0000DFF898B0029044E00C2D11D0102D14D091
:104F1000182D40D10298224900EBC00001EB80001F
:104F20004FF00008875D38060CD51E4802880DE05A
:104F300002981D4900EB4000F0E71C49029801EB84
:104F40000010EDE70D9828B91648428821460098D0
:104F5000FCF7CEFA7806070E641CBBF80200A4B278
:104F6000A04218D9A4EB0A00A84209D100985446DF
:104F7000401C80B20090BBF8001081420BD906E0C3
:104F800008F1010000F0FF08B8F1080FCBD3761C40
:104F9000F6B24E45B8D3BDE8FF8F000040000020B8
:104FA0005863000800000020F4580008685D0008FD
:104FB0002DE9F84F044600F0FF0910190D46DDE910
:104FC0000AB61FFA80F8581987B24FF0000A12E0AB
:104FD000444503D305EB0B004C4685B2BD420FD2CE
:104FE0005B4629462046CDF800A0FFF777FF04EB8B
:104FF0005B0084B2761C3278A2F120005E28E7D9EB
:10500000BDE8F88F01B5BDF80000ADF80000BDF8AF
:1050100000004FF0D841A1F8800008BD01B5BDF8EF
:105020000000ADF80000BDF800004FF0D841A1F835
:105030007E0008BD03484FF0D8410089A1F87E00EA
:1050400070470000400000204FF0D84222F87E0F49
:105050005180704700B58FB01C216846FBF7E8F817
:105060001C2107A8FBF7E4F81A494FF02040102252
:10507000086019484860062088600020C860C1E9BF
:1050800004028861C86112020862C1E90902920043
:10509000C1E90B024863886348640F21CDE9001021
:1050A0003C21CDE902100921CDE906010490082137
:1050B000CDE9080105900A900B900C900D9007AA7D
:1050C00069460448FCF704F9002801D0FBF724FBEB
:1050D0000FB000BD5C000020040100A02DE9F047E6
:1050E00086B014216846FBF7A3F83C480025016808
:1050F00041F004010160016801F0040105910168BB
:1051000041F002010160016801F0020105910168AE
:1051100041F020010160016801F020010591016862
:1051200041F010010160016801F010010591016872
:1051300041F008010160016801F008010591016872
:1051400041F0400101600068DFF8948000F0400009
:105150004FF400540590002221464046FBF7BAFD6B
:10516000DFF8809048F20107002239464846FBF7F5
:10517000B1FDDFF874A0A610002231465046FBF7BF
:10518000A9FD00940124CDE90145694640460395F7
:10519000FBF7C8FCCDE90074022569464846CDE915
:1051A0000245FBF7BFFC11480095CDE901046946B3
:1051B0004846FBF7B7FCCDE9006469465046CDE9A7
:1051C0000245FBF7AFFC002203210720FBF7F6FDA9
:1051D0000720FBF7E5FD06B0BDE8F0873038024058
:1051E00000080240000402400014024000002110A8
:1051F000FEE7704770477047FBF778BD30B593B056
:1052000030216846FBF714F814210CA8FBF710F8BE
:1052100019480025016841F080510160006800F0E4
:10522000805011901548016841F480410160006888
:10523000022400F48040119001200390102004907B
:10524000009406940820CDE90750A820CDE9090470
:1052500004200B906846FBF7ADFE0CA90F2081E8F7
:1052600031004FF4A0500F90E002109005210CA8DF
:10527000FBF7D6FD13B030BD40380240007000404F
:105280001048016841F4700101600F48016841F065
:10529000010101600C4A00210832116002680B4BC9
:1052A0001A400260031D0A4A1A60026822F4802232
:1052B000026005480C3001600249580680390860D8
:1052C0007047000088ED00E000380240FFFFF6FE66
:1052D00010300024FEE700000FB4084B10B504A9FD
:1052E00002AA039800F02CF8044602A9002000F05E
:1052F00058FA204610BC5DF814FB0000A3570008C4
:105300000907090E002804DB00F1E02080F80014F2
:10531000704700F00F0000F1E02080F8141D704786
:1053200002E008C8121F08C1002AFAD1704770476E
:10533000002001E001C1121F002AFBD170470000CC
:105340002DE9FF4F8DB00F460546002606E02528C3
:105350000BD0DDE90F1290476D1C761C28780028D1
:10536000F5D111B03046BDE8F08F0024A246A14629
:105370000122EC4900E0044315F8013F203B02FA0A
:1053800003F00842F7D128782A2810D06FF02F02B6
:105390002878A0F13001092914D80AEB8A0102EB20
:1053A000410144F0020400EB010A6D1CF0E701CF5B
:1053B0005FEA000A03D544F40054CAF1000A44F03D
:1053C00002046D1C28782E2817D115F8010F44F01F
:1053D00004042A280ED06FF02F022878A0F13001A3
:1053E00009290AD809EB890102EB410100EB010907
:1053F0006D1CF2E757F8049B6D1C28786C280FD0C1
:1054000006DC4C2817D068280DD06A2814D104E097
:10541000742810D07A280FD10DE044F400140AE06B
:1054200044F4801401E044F440146978814202D1CC
:1054300004F580146D1C6D1C2A786E2A1FD00CDCBC
:10544000632A31D004DC002A8BD0582A11D1A3E082
:10545000642A68D0692A0CD165E0732A2ED004DC56
:105460006F2A73D0702A04D19BE0752A6FD0782AF6
:105470006ED01046DDE90F129047761C50E1C4F360
:105480000250022806D0032809D0042801CF09D0F1
:10549000066045E101CFF117C0E9006140E101CFAD
:1054A00006803DE106703BE117F8040B8DF8000023
:1054B00000208DF80100EB46012003E057F804BB03
:1054C0004FF0FF3061074FF0000102D40DE008F10A
:1054D0000101884649450FDA8045F8DB1BF80810C2
:1054E0000029F4D108E008F1010188468142FADB85
:1054F0001BF808100029F6D1DDE90F23AAEB0800FC
:105500008146214600F036F9304400EB080604E0FD
:10551000DDE90F121BF8010B9047B8F10108F7D233
:1055200021464846F7E00A21C4F302534FF0000B2E
:105530000891022B04D001CFC117032B09D00AE038
:10554000FF1D27F00707F7E8020108E032E01FE03F
:1055500020E000B2C117042B01D140B2C117031ED5
:1055600071F1000307DA4FF0000CD0EB0C006CEB8C
:1055700001012D2302E0230504D52B238DF82430CF
:10558000012303E0E30701D02023F7E7984658E022
:105590000A2110E010210EE010204FF0000B0890BF
:1055A0000CE010214FF0000B44F004044FF0080908
:1055B000089103E008214FF0000B0891C4F3025357
:1055C000022B04D001CF0021032B06D006E0FF1DE3
:1055D00027F00707F7E8020103E080B2042B00D1AF
:1055E000C0B24FF0000823072BD5702A07D0DDF892
:1055F00020C08CF0100C5CEA0B0C05D00EE04023B0
:105600008DF82430012308E050EA010306D030234E
:105610008DF824308DF8252002239846DDF820C02F
:105620008CF0080C5CEA0B0C0BD150EA010301D1A1
:10563000630706D530238DF824304FF00108A9F117
:105640000109582A04D038A20B9208AA0A920BE04A
:105650003AA2F9E75B46089AFAF7B2FD0B9B9B5C0E
:105660000A9A521E0A92137050EA0102F2D10A9865
:10567000ADEB000000F1200B600702D524F480346C
:1056800001E04FF00109D94502DDA9EB0B0000E074
:10569000002000EB0B0141440890AAEB010AE00353
:1056A00006D4DDE90F232146504600F063F8064496
:1056B0004FF0000908E009A911F80900DDE90F120F
:1056C000904709F10109761CC145F4DBE0030CD5D4
:1056D000DDE90F232146504600F04CF8064404E073
:1056E000DDE90F1230209047761C0899481E08907B
:1056F0000029F5DC08E00A980A990078491C0A910B
:10570000DDE90F129047761CBBF10001ABF1010BF4
:10571000F1DC21465046DDE90F2300F019F806447C
:105720006D1C1BE609280100303132333435363721
:1057300038396162636465660000000030313233DD
:10574000343536373839414243444546000000007D
:105750002DE9F041044600251E461746880404D46E
:1057600005E039462020B0476D1C641EF9D5284657
:10577000BDE8F0812DE9F041044600251E46904623
:10578000C80301D5302700E02027880404D505E0B0
:1057900041463846B0476D1C641EF9D52846BDE821
:1057A000F0810A68531C0B6010707047FBF746B914
:1057B00031B54FF461740098A04210D9002502E081
:1057C000FFF7F6FF6D1C00992046B1FBF0F1A942EE
:1057D000F6D80098B0FBF4F104FB110000904FF0F4
:1057E000E0208169009AA2EBC20202EB420211EBB7
:1057F000C20205D483698B4201DA9342FADA38BDDA
:10580000034B134482698A42FCDD9A42FADC38BDBC
:10581000409002001CB5FBF771FAFFF7EFFCFFF7B1
:105820005DFCFFF717FCFBF7F1FE1F494FF47840D2
:1058300008801E481EA182882048FFF74DFD1F4E9C
:10584000182410254FF47A771DA0CDE900401823C5
:10585000D22228211E20FFF7ABFB1DA0CDE900407E
:105860001823C82250211E20FFF7A2FB1BA0CDE960
:1058700000401823C82278211E20FFF799FBCDE9AC
:1058800000561023C822AA211E20FFF791FB16A064
:10589000CDE900501023C822BE211E20FFF788FB4F
:1058A0003846FBF7CBF8CFE700000020400000208F
:1058B0004C43442049443A25303458004E000020DF
:1058C00053544D3332463430375A475400000000A9
:1058D0005446544C434420544553540050204A20CD
:1058E00050616C616E617300323031392F31302F6D
:1058F0003133000000000000000000000000000044
:10590000000000003F4000000000000000003000E8
:10591000400030004000000009000BC03D000BC0FB
:105920003D00090018C024407FE022403180000083
:10593000180024C01B000D803240018003801C40F1
:1059400027401C800740004010006000000000005D
:10595000000000000000000000001F8020404020E8
:105960000000402020401F800000000009000600C9
:105970001F80060009000000040004003F800400AE
:1059800004000000001000600000000000000000A3
:1059900004000400040004000400000000000040B3
:1059A0000000000000000000002001C006003800D8
:1059B000400000001F802040204020401F80000049
:1059C000000010403FC000400000000018C021400F
:1059D00022402440184000001080204024402440F1
:1059E0001B80000002000D0011003FC001400000BC
:1059F0003C80244024402440238000001F80244019
:105A000024403440038000003000200027C03800CC
:105A1000200000001B802440244024401B80000004
:105A20001C0022C0224022401F8000000000000015
:105A300008400000000000000000000004600000BA
:105A400000000000000004000A0011002080404017
:105A50000900090009000900090000000000404099
:105A6000208011000A0004001800200023402400B8
:105A7000180000001F802040274029401F400000E0
:105A8000004007C039000F0001C0004020403FC067
:105A9000244024401B8000001F80204020402040E4
:105AA0003080000020403FC0204020401F80000088
:105AB00020403FC024402E4030C0000020403FC066
:105AC00024402E00300000000F00108020402240B3
:105AD0003380020020403FC0040004003FC020404B
