:020000040800F2
:10000000A0B500209D010008A95900083F2700085D
:10001000A55900080D0900084576000800000000F9
:100020000000000000000000000000006B5D000800
:10003000110C000800000000695D00086D5D0008FB
:10004000B7010008B7010008B7010008B7010008B0
:10005000B7010008B7010008B7010008B7010008A0
:10006000B7010008B7010008B7010008B701000890
:10007000B7010008B7010008B7010008B701000880
:10008000B7010008B7010008B7010008B701000870
:10009000B7010008B7010008B7010008B701000860
:1000A000B7010008B7010008B7010008B701000850
:1000B000B7010008B7010008915E0008B701000809
:1000C000B7010008B7010008B7010008B701000830
:1000D000B701000805760008B7010008B70100085D
:1000E000B7010008B7010008B7010008B701000810
:1000F000B7010008B7010008B7010008B701000800
:10010000B7010008B7010008B7010008B7010008EF
:10011000B7010008B7010008B7010008D55E000864
:10012000B7010008B7010008B7010008B7010008CF
:10013000B7010008B7010008B7010008B7010008BF
:10014000B7010008B7010008B7010008B7010008AF
:10015000B7010008B7010008B7010008B70100089F
:10016000B7010008B7010008B7010008B70100088F
:10017000B7010008B7010008B7010008000000003F
:10018000B7010008B7010008DFF80CD000F0FEFA54
:1001900000480047ED920108A0B5002006488047BE
:1001A00006480047FEE7FEE7FEE7FEE7FEE7FEE75C
:1001B000FEE7FEE7FEE7FEE72D5E00088901000886
:1001C0002DE9F05F0546002092469B46884606468C
:1001D000814640241BE0284641464746224600F01F
:1001E00004FA53465A46C01A914110D31146184694
:1001F000224600F0EBF92D1A67EB01084F46224624
:100200000120002100F0E2F917EB00094E41201E09
:10021000A4F10104DFDC484631462A464346BDE8E6
:10022000F09F40EA01039B0703D009E008C9121FB1
:1002300008C0042AFAD203E011F8013B00F8013BA0
:10024000521EF9D27047D2B201E000F8012B491ECC
:10025000FBD270470022F6E710B513460A46044663
:100260001946FFF7F0FF204610BD421C10F8011B95
:100270000029FBD1801A704710B5002200E0521C03
:10028000835C8C5CA34201D1002BF8D1D8B2E1B2DF
:10029000401A10BD034611F8012B00F8012B002A6B
:1002A000F9D1184670472DE9FE4F804681EA0300D8
:1002B000C00F0C46009021F0004123F00045B8EB40
:1002C0000200A94105D24046214690461C460B46F5
:1002D000024623F00040104347D0270DC7F30A0021
:1002E000C3F30A510290401A019040286BDAC3F31D
:1002F000130040F4801B0098924620B10023D2EBFB
:10030000030A63EB0B0B01985946C0F140025046BB
:1003100000F05CF906460D4650465946019A00F039
:1003200074F910EB08006141002487EA115284EA55
:10033000E7731A4340D0009A62B3019A012A4FEA48
:10034000075215DC001B61EB02014FF0004202EA8C
:100350000752CDE90042001C41F5801132462B4680
:1003600000F074F903B0BDE8F08F40462146F9E78C
:10037000001B61EB0201001C41F5801300185B417A
:100380002018A2F5001747EB030140EAD570B61913
:100390006D4111E06D084FEA360645EAC0754FEA37
:1003A0000752001B61EB0201001C41F58011490856
:1003B0004FEA30000019514132462B4603B0BDE8E8
:1003C000F04F00F034B90098012240000023D0EB38
:1003D000020263EBE073009821464FEAE074B8EB49
:1003E000000061EB0401E9E783F000435BE781F083
:1003F000004158E72DE9FE4F81EA030404F0004470
:1004000021F0004100944FF0000B23F0004350EA2C
:1004100001045ED052EA03045BD0C3F30A54C1F373
:100420000A552C44A4F2F3340194A0FB0254C1F306
:10043000130141F48011C3F3130343F4801301FB50
:10044000024400FB034E840A970A44EA815447EAB7
:100450008357A4FB076802958D0A05FB07854FEAC1
:10046000932C04FB0C542705029D4FEA065847EADB
:100470001637B5EB08056EEB070C870E920E47EAB0
:10048000811742EA8312A7FB0201B6EB0B0164EB72
:1004900000042B0D43EA0C335E1844EB1C50DA4683
:1004A0005146E7FB0201C5F313044FEA0B3343EA5D
:1004B00014534FEA0432019C43EA0603A4F10C04EE
:1004C0000294009CCDE900B400F0C0F803B0BDE890
:1004D000F08F00200146F9E70EB5C10F80EAE07009
:1004E0000844CA07002140F233438DE80E000A4653
:1004F0000B4600F0ABF803B000BD0EB540F233413F
:1005000002910021CDE900110A460B4600F09EF849
:1005100003B000BDC1F30A5210B5C1F3130140F29C
:10052000FF3341F480119A4201DA002010BD40F2FD
:1005300033439A42A2F2334203DC524200F055F8B0
:1005400010BD904010BD00F0004230F000400AD0D5
:10055000C10D01F56071C0F3160042EA0151C208F5
:1005600040071143704700200146704730B5041E14
:1005700071F1000404DB4FF00044404264EB0101E0
:10058000141E73F1000405DB1C464FF00043524279
:1005900063EB04038B4208BF824230BD30B5041EBA
:1005A00071F1000404DB4FF00044404264EB0101B0
:1005B000141E73F1000405DB1C464FF00043524249
:1005C00063EB0403994208BF904230BD202A04DB4C
:1005D000203A00FA02F1002070479140C2F1200356
:1005E00020FA03F3194390407047202A04DB203A95
:1005F00021FA02F00021704721FA02F3D040C2F143
:1006000020029140084319467047202A06DBCB1789
:10061000203A41FA02F043EAE07306E041FA02F3BD
:10062000D040C2F12002914008431946704710B5EE
:10063000141E73F1000408DA401C41F10001921805
:100640005B411A4301D120F0010010BD2DE9F04DAE
:1006500092469B4611B1B1FA81F202E0B0FA80F203
:1006600020329046FFF7B2FF04460F4640EA0A00E8
:1006700041EA0B0153465A46084313D0114653EA48
:10068000010019D0C8F140025046FFF7AEFF054601
:100690000E46504659464246FFF798FF084305D09C
:1006A000012004E020463946BDE8F08D00200543D6
:1006B00046EAE0762C4337430A986305E40AA0EB48
:1006C00008000022FD0A44EA47540A3002D50020FF
:1006D0000146E9E7010510196941DDE908450019FE
:1006E0006941BDE8F04DA2E72DE9F04D00231A461F
:1006F0001B1A8A4103DB00200146BDE8F08DC1F3DF
:100700000A52C1F3130141F480154FF0000BD107D9
:1007100002D100186D41521E0027044640F2FF111D
:10072000384601EB620A3E468046024600204FF4FE
:100730008011FFF75AFFC2197141BB1846EB010047
:10074000B4EB030C75EB000C04D3E41A65EB000565
:1007500017460E46241908F101006D4180463428E1
:10076000E3DDF91946EB0600091BA84103D24FF05F
:10077000FF32134601E0002213461BEB070046EB55
:100780000A51BDE8F04DFFF752BF0000064C074D7F
:1007900006E0E06840F0010394E807009847103451
:1007A000AC42F6D3FFF7F4FC4029020860290208A6
:1007B00070B58C1810F8015B15F0070301D110F823
:1007C000013B2A1106D110F8012B03E010F8016B50
:1007D00001F8016B5B1EF9D12B0705D40023521ED3
:1007E0000DD401F8013BFAE710F8013BCB1A921C3B
:1007F00003E013F8015B01F8015B521EF9D5A14239
:10080000D8D3002070BD10B501F0C4FF10BD2DE994
:10081000F04107460C460026002509E0360239194A
:10082000491B491E88B200F008F80644681CC5B28E
:10083000A542F3DB3046BDE8F08170B504460026E2
:1008400002F068F82546E11704EB11610912A022B5
:1008500002EB4101C8B202F029F802F0A7F8E11753
:1008600004EB11610912A4EB0121C8B202F01EF8D9
:1008700002F09CF802F04EF8A12002F017F802F006
:1008800095F8002001F0DCFF064602F069F83046DA
:1008900070BD2DE9F04105460E461746002409E0DB
:1008A000E20026FA02F2D1B22A1990B200F006F85C
:1008B000601CC4B2BC42F3DBBDE8F08170B50446F5
:1008C0000E4602F027F82546E11704EB11610912E4
:1008D000A02202EB4101C8B201F0E8FF02F066F885
:1008E000E11704EB11610912A4EB0121C8B201F078
:1008F000DDFF02F05BF8304601F0D8FF02F056F859
:1009000002F02EF80A2007F073FA70BD00BFFEE770
:1009100010B5022007F078FA10BD000010B50020D5
:100920000F4908600F48006820F440000D49086036
:100930000846006840F480000860FFF7E9FF0020E7
:100940000949C1F8AC02FFF7E3FF01200449086040
:10095000FFF7DEFF00200549C1F8800210BD00004E
:1009600080824042001402400080424200804042A7
:1009700000B587B000BF002001901A48006840F021
:100980000200184908600846006800F00200019063
:1009900000BF00BF00BF002001900846006840F083
:1009A000200008600846006800F02000019000BFA9
:1009B00000BF01200290039004900320059002A93B
:1009C000094800F09DFD4FF40060029002A907481D
:1009D00000F096FD0120064908600649C1F8800232
:1009E00007B000BD3038024000040240001402404D
:1009F000AC8242420080404210B500200F4908609E
:100A00000F48006820F440000D490860084600685F
:100A100040F480000860FFF77BFF01200949C1F81E
:100A2000AC02FFF775FF012004490860FFF770FF73
:100A300000200549C1F8800210BD000080824042BC
:100A400000140240008042420080404270B50546DA
:100A500000241548006820F4400013490860084647
:100A6000006808601E2007F0CFF9002611E0002082
:100A70000E490860FFF74CFF01200D49C1F88002C4
:100A80006006040E0B48006808B1601CC4B2701CFC
:100A9000C6B2082EEBDB15B9FFF7AEFF01E0FFF79A
:100AA0003DFF204670BD000000140240808240429D
:100AB000008040422C82424270B5044613480068D0
:100AC00020F44000114908600846006840F48000A6
:100AD000086000200E490860FFF71AFF002511E0AA
:100AE000E0090C4908606006040E01200A49C1F8BB
:100AF0008002FFF70DFF002005490860FFF708FF9F
:100B0000681CC5B2082DEBDB70BD0000001402406C
:100B100080824042AC8242420080404210B50F4881
:100B2000006820F440000D4908600846006840F461
:100B30008000086001200A4908600A49C1F8800263
:100B40001E2007F061F9002005490860FFF7E0FE6C
:100B500000200449C1F8800210BD000000140240CA
:100B6000AC8242420080404210B50D48006820F43B
:100B700040000B4908600846006840F480000860A7
:100B80000120084908601E2007F03EF900200649B0
:100B9000C1F8AC02FFF7BCFE01200449086010BD9B
:100BA000001402408082404200804242AC824242B5
:100BB00010B500241248006820F440001049086075
:100BC00008460068086001200E4908600E49C1F817
:100BD0008002FFF79DFE09E0601CC4B2FA2C03DD21
:100BE000FFF7C2FF012010BDFFF792FE05488038D5
:100BF00000680028F0D10549086000BFF3E7000055
:100C000000140240AC824242008040428082404256
:100C10007047704770B504461D460023B5F5804FF8
:100C200013D154F822300C480340D1E9000640EAC1
:100C300006108E6840EA06208E8940EA06408E69DA
:100C40003043034344F8223003E06FF0704044F82F
:100C50002200002070BD00000000F0CF10B5034658
:100C60000022086853F8202012480240D1E901040C
:100C70002043CC6820430C6920434C6920438C6995
:100C80002043CC6920430C6A20434C6A20438C6A81
:100C90002043CC6A2043CC6B20430C6B204302439F
:100CA0008868082801D142F04002086843F82020F3
:100CB000002010BD8000F0FF30B503460024501C1A
:100CC00053F8204004F04044D1E9000540EA051003
:100CD0008D6840EA05208D8940EA0545088A401E56
:100CE00045EA0055087D801E45EA00608D6928436D
:100CF0000443501C43F82040002030BD00B587B0AD
:100D000000BF002000903B48006840F002003949D5
:100D100008600846006800F00200009000BF00BFB5
:100D200000BF002000900846006840F00400086002
:100D30000846006800F00400009000BF00BF0220D9
:100D4000019000200290012003900320049001A94B
:100D5000294800F0D5FB4FF400500190012002908B
:100D600001A9264800F0CCFBFFF702FE0020244931
:100D70000860142007F03CF801202249C1F8B402B1
:100D8000322007F035F800208DF81800012206A95E
:100D900000F03AF9012206A9A42000F035F9162046
:100DA0008DF81800012206A9802000F02DF90C20F2
:100DB0008DF81800012206A9882000F025F90222EA
:100DC00006A9A12000F026F89DF8180030280FD1C0
:100DD0009DF8190003280BD19DF819009DF81820E3
:100DE00000EB022108A006F02FFC002007B000BD98
:100DF0000120FBE7303802400004024000080240B6
:100E0000B4024142000041424354502049443A2533
:100E1000780D0A002DE9F04106460F461546FFF70A
:100E20007DFE7020FFF748FEFFF7C2FEF0B2FFF72D
:100E300043FEFFF7BDFEFFF771FE7120FFF73CFE9A
:100E4000FFF7B6FE00240BE0691EA14201D001218C
:100E500000E000210846FFF7F9FD3855601CC4B2D8
:100E6000AC42F1DBFFF780FEBDE8F08171B581B0E7
:100E70000024002661480078401C6049087008463C
:100E800000780A2190FBF1F201FB120018B15B48D7
:100E900000780A2867DA012201A90220FFF7BAFFC9
:100EA0009DF8040000F00F0000287ED09DF804009B
:100EB00000F00F00062878DA9DF8040000F00F011A
:100EC000FF208840C5B2E843C0B240F0C0004C49A2
:100ED00081F8200000245AE0494890F820000121C0
:100EE000A1400840F0B3474931F814000422694694
:100EF000FFF790FF424890F8300000F00100C0B1C9
:100F00009DF801009DF8001001F00F0100EB012099
:100F10003B49163121F814009DF803009DF802109A
:100F200001F00F0100EB012135480C3020F81410BE
:100F30001DE09DF801009DF8001001F00F0100EB8D
:100F40000120C0F5F07081B22D480C3020F814104B
:100F50009DF803009DF8021001F00F0100EB012144
:100F6000274801E011E020E0163020F814109DF829
:100F7000000000F0F000802807D000212048163043
:100F800020F814100A3820F81410601CC4B2052C84
:100F9000A2DB01261A48808920B91948C08A08B9FD
:100FA000002001900020154908709DF8040000F011
:100FB0001F00D0B9124890F8200000F0800040B126
:100FC0000F4890F8200020F080000D4981F82000A3
:100FD0000BE04FF6FF700A498881C882084690F8F6
:100FE000200000F0E00081F8200004480078F0289C
:100FF00002DD0A200149087030467CBD1C0000203B
:101000002C0000200EB201082DE9F04105460E46E5
:1010100017464FF00008FFF781FD7020FFF74CFDE9
:10102000FFF7C6FDE8B2FFF747FDFFF7C1FD00245B
:101030000BE0305DFFF740FDFFF7BAFD8046B8F1E9
:10104000000F00D003E0601CC4B2BC42F1DB00BF63
:10105000FFF78AFD4046BDE8F081000000B589B089
:1010600000BF002001904648006840F0020044495B
:1010700008600846006800F00200019000BF00BF51
:1010800000BF002001900846006840F0040008609E
:101090000846006800F00400019000BF00BF022075
:1010A000029000200390012004900320059002A9E3
:1010B000344800F025FA4FF40050029001200390CC
:1010C00002A9314800F01CFAFFF752FC00202F491A
:1010D00008600A2006F08CFE01202D49C1F8B402F8
:1010E0000A2006F085FE02200290012003900020D5
:1010F00004900320059002A9224800F001FA642020
:1011000006F076FE042207A948F2401000F056F8D7
:1011100000208DF8200007A91EA006F095FA20A156
:1011200007A8FFF7A9F848BB02208DF81C00012290
:1011300007A948F2400000F0A1F9012207A948F2EE
:10114000470000F03BF89DF81C00602807DA9DF886
:101150001C1015A006F078FA012000F061F90A20B1
:1011600006F046FE00208DF81C00012207A948F277
:10117000400000F083F9002009B000BD0120FBE72A
:10118000303802400004024000080240B4024142EC
:10119000000041424354502049443A25730D0A004F
:1011A000393134370000000044656661756C742085
:1011B0005665723A25640D0A000000002DE9F041E1
:1011C00005460F461646FFF7A9FC2820FFF774FCDA
:1011D000FFF7EEFC2812FFF76FFCFFF7E9FCE8B21F
:1011E000FFF76AFCFFF7E4FCFFF798FC2920FFF704
:1011F00063FCFFF7DDFC00240BE0711EA14201D06F
:10120000012100E000210846FFF720FC3855601C52
:10121000C4B2B442F1DBFFF7A7FCBDE8F0810000E7
:1012200071B583B00024002679480078401C7849C5
:101230000870084600780A2190FBF1F201FB1200C9
:1012400018B1734800780A287EDA012203A948F20F
:101250004E10FFF7B3FF9DF80C0000F0800068B15E
:101260009DF80C0000F00F00062807DA002001901E
:10127000012201A948F24E1000F000F99DF80C007F
:1012800000F00F0000285FD09DF80C0000F00F0068
:101290000628D9DA9DF80C0000F00F01FF208840E5
:1012A000C0B201905B4890F820509DF80400C04304
:1012B000C0B240F0C000574981F82000084681893B
:1012C0008182C18AC183002446E0524890F8200000
:1012D0000121A140084020B34F4931F814000422F5
:1012E00002A9FFF76BFF4B4890F8300000F00100B7
:1012F000C0B19DF808009DF8091000EB012081B2F3
:101300004448163020F814109DF80A009DF80B1080
:1013100000EB0120C0F5487081B23E480C3020F847
:10132000141017E09DF808009DF8091000EB01204B
:1013300081B238480C3020F814109DF80A009DF84E
:101340000B1000EB012000E036E081B2314816308E
:1013500020F81410601CC4B2052CB6DB01262D4801
:1013600080892E490988884205DC2A48C08A2B4991
:10137000498888421DDD9DF80C0000F00F0001280F
:101380000ADD2448C089234988810846008BC88229
:1013900000201F4908700FE01E48808A1D4988817F
:1013A0000846C08BC88280200390084680F82050F1
:1013B00002E00020164908709DF80C0000F08F0034
:1013C00080281AD1134890F8200000F0800040B126
:1013D000104890F8200020F080000E4981F820008D
:1013E0000BE04FF6FF700B498881C882084690F8E1
:1013F000200000F0E00081F8200005480078F02887
:1014000002DD0A2002490870304604B070BD0000B9
:101410001D0000202C000020D0B201081C29002053
:1014200038B50546002400208DF800008DF80150E5
:1014300000BF09E09DF800000F49095D0844C0B2F3
:101440008DF80000601CC4B2B82CF3D39DF80000E6
:10145000C043401CC0B28DF80000B822064948F2D3
:10146000470000F00BF80222694648F2FF0000F046
:1014700005F8002038BD000018B201082DE9F04140
:1014800004460E4617464FF00008FFF747FB28209A
:10149000FFF712FBFFF78CFB2012FFF70DFBFFF7A6
:1014A00087FBE0B2FFF708FBFFF782FB00250BE0AC
:1014B000705DFFF701FBFFF77BFB8046B8F1000F83
:1014C00000D003E0681CC5B2BD42F1DB00BFFFF7EE
:1014D0004BFB4046BDE8F081014691F835000228FB
:1014E00003D08020486501207047052081F8350031
:1014F0000868006820F001000A6810600020F3E727
:10150000F8B502460B460025002400200021DCE04F
:10151000012606FA01F51E6806EA0504AC4273D1FD
:101520005E68022E02D05E68122E13D1CF0802F13F
:10153000200656F827004E07F70E0F26BE40B04390
:101540004F07FF0E1E69BE403043CF0802F1200650
:1015500046F8270010684F000326BE40B0431E79AE
:1015600006F003064F00BE40304310605E68012E57
:1015700008D05E68022E05D05E68112E02D05E682B
:10158000122E13D190684F000326BE40B0434F0087
:10159000DE68BE4030439060506801268E40B04304
:1015A0001E79C6F300168E4030435060D0684F005D
:1015B0000326BE40B0434F009E68BE403043D0601B
:1015C0005E6806F08056B6F1805F7DD100BF0026D0
:1015D0000096404E366846F480463E4F3E603E469A
:1015E000366806F48046009600BF00BF3A4E8F086A
:1015F00056F827008E07370F0F26BE40B043374EF0
:10160000B24202D1002624E05EE0354EB24201D162
:1016100001261EE0334EB24201D1022619E0324EBD
:10162000B24201D1032614E0304EB24201D1042669
:101630000FE02F4EB24201D105260AE02D4EB242F4
:1016400001D1062605E02C4EB24201D1072600E06A
:1016500008268F073F0FBE4030431F4E8F0846F8C5
:101660002700264E3068A0435E6806F48036B6F543
:10167000803F00D12043214E3060361D3068A043AA
:101680005E6806F40036B6F5003F00D120431B4EDD
:10169000361D3060361D3068A0435E6806F4801643
:1016A000B6F5801F00D12043144E08363060361D39
:1016B0003068A0435E6806F40016B6F5001F00D13E
:1016C00020430E4E0C363060491C1029FFF420AF29
:1016D000F8BD0000443802400838014000000240D4
:1016E0000004024000080240000C024000100240CA
:1016F0000014024000180240001C0240003C01405F
:101700000148006870470000080000200348006896
:10171000034909780844014908607047080000201F
:101720001000002010B50D48006840F400700B490F
:1017300008600846006840F4806008600846006859
:1017400040F480700860032000F0A2F8002000F050
:1017500007F800F02BF8002010BD0000003C02400C
:1017600070B504460E4800784FF47A71B1FBF0F082
:101770000C490968B1FBF0F5284600F0C1FC08B13E
:10178000012070BD102C07D200222146501E00F00F
:1017900041F80548046001E00120F2E70020F0E78D
:1017A00010000020140000200C00002008B500BF2D
:1017B000002000900E48006840F480400C4908600A
:1017C0000846006800F48040009000BF00BF00BFE2
:1017D00000200090081F006840F08050091F08603A
:1017E0000846006800F08050009000BF00BF08BDB0
:1017F0004438024001460846002809DB00F01F0378
:1018000001229A4043099B0003F1E023C3F8002121
:1018100000BF70472DE9F05F80460D461646002751
:1018200005F022FF074639462A46334601F00700F5
:10183000C0F1070ABAF1040F02D94FF0040A01E01F
:10184000C0F1070AD14600F1040ABAF1070F02D22B
:101850004FF0000A01E0A0F1030AD4464FF0010A5C
:101860000AFA09FAAAF1010A0AEA020A0AFA0CFAC1
:101870004FF0010B0BFA0CFBABF1010B0BEA030B66
:101880004AEA0B042146404605F0F6FEBDE8F09F0B
:1018900000BF00F00702064B19684FF6FF0319401E
:1018A000044B0B4343EA0221014B196000BF704710
:1018B0000CED00E00000FA0570B504460D460CB9C9
:1018C000012070BD5848006800F00F00A84209D2FE
:1018D00055490D700846006800F00F00A84201D07D
:1018E0000120EEE7207800F0020002281DD12078C8
:1018F00000F00400042805D14C48006840F4E05092
:101900004A490860207800F00800082805D14748B7
:10191000006840F46040454908604448006820F091
:10192000F000A168084341490860207800F00100F8
:10193000A8B36068012807D13C4808380068C0F3A4
:101940004040B8B90120BCE76068022802D0606856
:10195000032807D1354808380068C0F3406048B90B
:101960000120AEE7314808380068C0F3400008B9EC
:101970000120A6E72D48006820F0030061680843B5
:101980002A490860FFF7BCFE064609E0FFF7B8FEEB
:10199000801B41F28831884202D9032091E707E099
:1019A0002248006800F00C006168B0EB810FEDD1B7
:1019B0001D48006800F00F00A84209D91A490D70AF
:1019C0000846006800F00F00A84201D0012078E727
:1019D000207800F00400042807D11448006820F49F
:1019E000E050E168084311490860207800F00800E1
:1019F000082808D10D48006820F46040216940EAB9
:101A0000C1000A49086000F03DF808490968C1F3BF
:101A10000311074A515CC840064908600020FFF7DF
:101A20009FFE00204DE70000003C024008380240C5
:101A3000F6B101081400002001480068704700005A
:101A40001400002000B5FFF7F7FF04490968C1F34F
:101A50008221034A515CC84000BD000008380240A2
:101A600006B2010800B5FFF7E7FF04490968C1F3B2
:101A70004231034A515CC84000BD000008380240B2
:101A800006B201082DE9F047002400250026A146F2
:101A90002548006800F00C0020B1042805D0082873
:101AA0003AD105E0DFF8849039E0DFF8849036E041
:101AB0001D48001F006800F03F041B48001F00681D
:101AC00000F4800078B11A481749091F0968C1F36A
:101AD0008811A0FB01700146224600233846FEF71C
:101AE0006FFB05460EE011480F49091F0968C1F355
:101AF0008811A0FB01700146224600233846FEF7FC
:101B00005FFB05460848001F0068C0F30140401C09
:101B10004600B5FBF6F902E0DFF8109000BF00BF09
:101B20004846BDE8F0870000083802400024F40071
:101B300040787D01F8B504460CB90120F8BD207845
:101B400000F00100002874D0F948006800F00C0093
:101B500004280DD0F648006800F00C00082813D1C6
:101B6000F348001F006800F48000B0F5800F0BD12F
:101B7000EF4808380068C0F34040002859D060683A
:101B8000002856D10120D9E700BF6068B0F5803F3A
:101B900008D1E7480838006840F48030E449083943
:101BA00008601EE06068B0F5A02F0DD1E04808384D
:101BB000006840F48020DE49083908600846006863
:101BC00040F4803008600CE0D9480838006820F400
:101BD0008030D749083908600846006820F4802022
:101BE000086000BF606890B1FFF78AFD054606E017
:101BF000FFF786FD401B642801D903209EE7CC48EF
:101C000008380068C0F340400028F1D011E0FFF729
:101C100077FD054606E0FFF773FD401B642801D9F8
:101C200003208BE7C24808380068C0F34040002812
:101C3000F1D1207800F0020002285FD1BC48006892
:101C400000F00C0058B1BA48006800F00C000828F9
:101C50001CD1B748001F006800F48000B0B9B44838
:101C600008380068C0F3400020B1E068012801D0C6
:101C7000012063E7AE480838006820F0F8002169C9
:101C800040EAC100AA490839086037E0E06800B3BB
:101C90000120A8490860FFF733FD054606E0FFF77D
:101CA0002FFD401B022801D9032047E7A048083830
:101CB0000068C0F340000028F1D09D480838006853
:101CC00020F0F800216940EAC1009949083908600C
:101CD00014E0002097490860FFF712FD054606E072
:101CE000FFF70EFD401B022801D9032026E790488C
:101CF00008380068C0F340000028F1D1207800F0D7
:101D0000080008282CD16069A8B101208A49086020
:101D1000FFF7F6FC054606E0FFF7F2FC401B022841
:101D200001D903200AE782486C300068C0F3400004
:101D30000028F1D014E000207F490860FFF7E0FCA4
:101D4000054606E0FFF7DCFC401B022801D9032012
:101D5000F4E677486C300068C0F340000028F1D109
:101D6000207800F00400042870D100267048383034
:101D7000006800F0805090B900BF002000906C48CF
:101D80003830006840F080506949383108600846B2
:101D9000006800F08050009000BF00BF0126674837
:101DA000006800F48070B0B96448006840F4807046
:101DB00062490860FFF7A4FC054606E0FFF7A0FCB7
:101DC000401B022801D90320B8E65C48006800F4F3
:101DD00080700028F2D000BFA068012808D15448C4
:101DE0006830006840F001005149683108601DE02A
:101DF000A06805280DD14E486830006840F0040006
:101E00004B49683108600846006840F001000860EE
:101E10000CE047486830006820F001004449683110
:101E200008600846006820F00400086000BFA06851
:101E3000A8B1FFF765FC054609E0FFF761FC401B10
:101E400041F28831884202D9032077E626E03848FB
:101E500068300068C0F340000028EED013E0FFF7C0
:101E60004FFC054608E0FFF74BFC401B41F2883170
:101E7000884201D9032061E62D4868300068C0F32C
:101E800040000028EFD1012E07D1294838300068E2
:101E900020F0805026493831086000BFA069B8B3EF
:101EA0002348006800F00C0008285ED0A0690228D2
:101EB00046D100201F490866FFF722FC054606E0D0
:101EC000FFF71EFC401B022801D9032036E6184804
:101ED00008380068C0F340600028F1D1D4E9070158
:101EE0000843616A40EA81110122A06AC2EB5000F6
:101EF00041EA00412C20005D41EA00600C49091FC5
:101F0000086001200B490866FFF7FAFB054607E069
:101F10002DE0FFF7F5FB401B022801D903200DE659
:101F2000034808380068C0F340600028F1D01EE084
:101F30000838024000004742800E474200700040CF
:101F400000200C490866FFF7DBFB054606E0FFF7BB
:101F5000D7FB401B022801D90320EFE506480068A3
:101F6000C0F340600028F2D101E00120E6E5002046
:101F7000E4E50000000047420038024070B5044626
:101F80000E4615460CB9012070BD94F8490028B9D9
:101F9000002084F84800204600F01CF804F10801F5
:101FA0002068FEF75BFE3146A2682068FEF784FEDB
:101FB0002946236BD4E90102FEF72CFEA1682068B4
:101FC00050F8210040F00100A268216841F8220089
:101FD0000020D9E710B586B0044600BF002000906D
:101FE0003848006840F0010036490860084600683B
:101FF00000F00100009000BF00BF00BF0020009073
:1020000030480838006840F008002E490839086058
:102010000846006800F00800009000BF00BF00BF45
:10202000002000900846006840F010000860084654
:10203000006800F01000009000BF00BF00BF00204B
:1020400000900846006840F02000086008460068DC
:1020500000F02000009000BF00BF00BF00200090F3
:102060000846006840F0400008600846006800F03C
:102070004000009000BF00BF4CF23370019002207E
:10208000029001200390032004900C20059001A9E8
:102090000D48FFF735FA4FF68070019001A90B4803
:1020A000FFF72EFA4FF48050019001A90848FFF77E
:1020B00027FA4FF48050019001A90648FFF720FA53
:1020C00006B010BD38380240000C0240001002403B
:1020D0000014024000180240042808D14FF0E0210B
:1020E000096941F004014FF0E022116107E04FF06F
:1020F000E021096921F004014FF0E02211617047ED
:1021000070B504462546681EB0F1807F01D30120DA
:102110000FE0681E4FF0E02148610F214FF0FF30C3
:1021200005F0AAFA00204FF0E0218861072008613D
:10213000002070BD7047704710B5024600BF92F88E
:102140003C00012801D1022010BD012082F83C0092
:1021500000BF022082F83D00106843681068846860
:1021600023F070030868034324F0800448680443A4
:102170001068436010688460012082F83D0000BF51
:10218000002082F83C0000BF00BFDDE710B5044628
:102190000CB9012010BD94F83D0028B9002084F846
:1021A0003C00204600F00CF8022084F83D00211D80
:1021B000206803F09BFE012084F83D000020E9E741
:1021C00038B504460E492068884217D100BF002068
:1021D00000900C48006840F020000A49086008465A
:1021E000006800F02000009000BF00BF00221146F0
:1021F0003720FFF70FFB3720FFF7FCFA38BD000050
:10220000001400404038024001460868C06840F0B1
:1022100001000B68D8600868806800F00702062A91
:1022200005D00868006840F001000B6818600020C5
:102230007047704710B5044620680069C0F340003D
:10224000D8B12068C068C0F34000B0B16FF00200A0
:1022500021680861012020772068806900F0030070
:1022600018B12046FFF7E5FF05E0204600F0ADF885
:10227000204600F0ABF80020207720680069C0F30A
:102280008000D8B12068C068C0F38000B0B16FF0A2
:10229000040021680861022020772068806900F42A
:1022A000407018B12046FFF7C4FF05E0204600F05B
:1022B0008CF8204600F08AF800202077206800691A
:1022C000C0F3C000D8B12068C068C0F3C000B0B18E
:1022D0006FF0080021680861042020772068C06939
:1022E00000F0030018B12046FFF7A3FF05E02046E9
:1022F00000F06BF8204600F069F800202077206895
:102300000069C0F30010D8B12068C068C0F30010A5
:10231000B0B16FF0100021680861082020772068B4
:10232000C06900F4407018B12046FFF782FF05E055
:10233000204600F04AF8204600F048F800202077B8
:102340002068006900F0010058B12068C06800F002
:10235000010030B16FF0010021680861204600F0F3
:1023600036F820680069C0F3C01058B12068C06812
:10237000C0F3C01030B16FF08000216808612046C2
:10238000FFF7D8FE20680069C0F3801058B12068BC
:10239000C068C0F3801030B16FF040002168086160
:1023A000204600F015F820680069C0F3401058B1CD
:1023B0002068C068C0F3401030B16FF02000216881
:1023C00008612046FFF7B7FE10BD704770477047A1
:1023D0007047704701460022002391F8392091F898
:1023E0003A3042EA030070472DE9F047044620687E
:1023F00005682068C668206847694FF00008C14634
:1024000005F00F08B8F1000F0AD105F0200038B12F
:1024100006F0200020B1204604F0B8FEBDE8F087A9
:10242000B8F1000F6ED007F0010018B906F49070F3
:10243000002867D005F0010030B106F4807018B1B3
:10244000E06B40F00100E06305F0040030B107F0FC
:10245000010018B1E06B40F00200E06305F00200FB
:1024600030B107F0010018B1E06B40F00400E06308
:1024700005F0080030B107F0010018B1E06B40F042
:102480000800E063E06B70B305F0200028B106F0AF
:10249000200010B1204604F079FE20684069C0F3A6
:1024A0008019E06B00F0080010B9B9F1000F23D0DB
:1024B000204604F04BFE2068406900F040004028B0
:1024C00016D12068406920F0400021684861606BA7
:1024D00050B11748616B0865606BFEF7FDFF10B1E6
:1024E000606B016D88470CE02046FFF772FF08E043
:1024F0002046FFF76EFF04E02046FFF76AFF00204A
:10250000E0638BE705F0800030B106F0800018B181
:10251000204605F043F881E705F0400030B106F0B1
:10252000400018B1204604F021FE77E700BF75E7B0
:102530003971000810B504460CB9012010BDA0691E
:1025400000B100E000BF94F8390028B9002084F8F9
:102550003800204600F028F8242084F8390020684C
:10256000C06820F400502168C860204604F062FE74
:102570002068006920F49040216808612068406963
:1025800020F02A00216848612068C06840F40050AB
:102590002168C8600020E063202084F8390084F8B6
:1025A0003A000020CAE7000010B586B00446224970
:1025B000206888423ED100BF002000901F4800687C
:1025C00040F001001D4908600846006800F0010065
:1025D000009000BF00BF00BF0020009017481430DB
:1025E000006840F010001549143108600846006882
:1025F00000F01000009000BF00BF481501900220BD
:10260000029001200390022004900720059001A968
:102610000B48FEF775FF4FF48060019001A9084850
:10262000FEF76EFF2520FFF7E5F80322114625206F
:10263000FFF7F0F806B010BD00100140303802403E
:102640000000024010B5034693F83A0020282FD12D
:1026500001B10AB9012010BD00BF93F8380001286C
:1026600001D10220F7E7012083F8380000BF99620A
:102670009A85DA850020D863222083F83A0000BFCB
:10268000002083F8380000BF1868C06840F48070EC
:102690001C68E0601868406940F001001C686061D7
:1026A0001868C06840F020001C68E0600020D2E795
:1026B0000220D0E71D4A0168914236D11C490988A1
:1026C00001F4004189BB1A49098801F4804171B1C4
:1026D000184909780A2903D00021154A118024E0FD
:1026E0001349098841F40041114A11801DE0114944
:1026F00009780D2906D10E49098841F480410C4A18
:10270000118012E00B490978094A1288C2F30D02C0
:10271000094B995406490988491C054A11801146FC
:102720000988C72901DD0021118070470010014090
:10273000680000206A0000202C290020704700BF9C
:10274000FEE7000010B500200F4908600F48006840
:1027500020F440200D4908600846006840F48020BD
:10276000086000200A49C1F8A402022005F04CFBD1
:10277000012005490860022005F046FB00200449BD
:10278000C1F8A00210BD0000A08240420004024037
:102790000080404200B587B000BF00200190104883
:1027A000006840F002000E4908600846006800F02A
:1027B0000200019000BF00BF4FF440700290012062
:1027C000039004900220059002A90648FEF798FEA7
:1027D0000120054908600549C1F8A00207B000BD05
:1027E0003038024000040240A4824042008040424F
:1027F00010B500200F4908600F48006820F4402001
:102800000D4908600846006840F4802008600120F7
:102810000A49C1F8A402022005F0F6FA0120054990
:102820000860022005F0F0FA00200449C1F8A00277
:1028300010BD0000A08240420004024000804042DF
:1028400070B5054600241648006820F4402014495D
:102850000860084600680860002616E0002011495C
:102860000860022005F0D0FA01200F49C1F8A0024B
:102870006006040E0B487C38006808B1601CC4B2C6
:10288000012005F0C1FA701CC6B2082EE6DB15B9AE
:10289000FFF7AEFF01E0FFF755FF204670BD0000D7
:1028A00000040240A08240420080404270B50446CD
:1028B0001548006820F44020134908600846006865
:1028C00040F480200860002010490860002517E0CF
:1028D000E0090E49091D08606006040E022005F09B
:1028E00093FA01200A49C1F8A002022005F08CFAEF
:1028F000002006490860022005F086FA681CC5B26F
:10290000082DE5DB70BD000000040240A0824042BB
:102910000080404210B50F48006820F440200D4967
:1029200008600846006840F48020086001200A49D9
:1029300008600A49C1F8A002042005F065FA0020E9
:1029400005490860042005F05FFA00200349C1F83A
:10295000A00210BD00040240A48240420080404218
:1029600010B50F48006820F440200D490860084663
:10297000006840F48020086000200A4908600A4985
:10298000C1F8A402042005F03FFA012005490860BF
:102990000549C1F8A402042005F036FA10BD000074
:1029A00000040240A08240420080404210B5002452
:1029B0001348006820F44020114908600846006868
:1029C000086001200F49086005F01EFA01200E4939
:1029D000C1F8A00205F018FA07E0601CC4B2FA2C96
:1029E00003DDFFF7BDFF012010BD064880380068F9
:1029F0000028F2D10349091F086000BFF4E7000076
:102A000000040240A48240420080404270B5044667
:102A1000002609480588408845430021084602F001
:102A2000B7FD02F085FF00BF02E004490C80761C70
:102A3000AE42FAD370BD00001C2900208000006C5B
:102A400010B5044655488471002C51D1F0205349EB
:102A500008804FF4A07048800846808849F24131D0
:102A6000884205D04D48808845F21031884214D103
:102A70002C204A4908812A2048812B208881084639
:102A8000808845F21031884206D14FF4A070434946
:102A900008804FF4F07048807BE04048808845F221
:102AA0001051884210D14FF430503C4908814FF406
:102AB000285048814FF42C5088814FF4F0700880E2
:102AC0004FF44870488064E03448808841F66311D0
:102AD00088425ED12C20314908812B2048812A2050
:102AE00088814FF4F07008804FF44870488050E0BF
:102AF0004FF4A07029490880F0204880084680885B
:102B000049F24131884205D02448808845F210318D
:102B1000884207D12C20214908812A2048812B2076
:102B2000888129E01D48808845F21051884210D1E3
:102B30004FF43050194908814FF4285048814FF420
:102B40002C5088814FF4487008804FF4F070488012
:102B500012E01248808841F6631188420CD12C2083
:102B60000E4908812A2048812B2088814FF4487023
:102B700008804FF4F07048800848808845F2103192
:102B8000884206D14FF4F070044908804FF4A070D9
:102B90004880002002F0C2FB10BD00001C2900206C
:102BA0002DE9FF4F84B081468A46002003900290B1
:102BB0000698A0EB09050798A0EB0A06CDF804904B
:102BC000CDF800A0002D01DD012705E00DB900279B
:102BD00002E04FF0FF376D42002E02DD4FF001089A
:102BE00006E016B94FF0000802E04FF0FF387642D9
:102BF000B54201DD2C4600E034464FF0000B21E0E9
:102C0000009A91B2019A90B200F022F803982844F9
:102C100003900298304402900398A04205DD039887
:102C2000001B03900198384401900298A04205DDF2
:102C30000298001B02900098404400900BF10100A4
:102C40001FFA80FB601C8345DADD08B0BDE8F08F19
:102C500030B504460D462946204602F099FC02F0A4
:102C600067FE024800880249088030BD200000202D
:102C70008000006C2DE9F04306460F469046002484
:102C800045460320A0EB48093CE07A1B91B232197B
:102C900090B2FFF7DDFF3A1B91B2721990B2FFF7C5
:102CA000D7FF3A1991B2721990B2FFF7D1FF7A1992
:102CB00091B2321990B2FFF7CBFF7A1991B2321B61
:102CC00090B2FFF7C5FF3A1991B2721B90B2FFF7AD
:102CD000BFFF7A1B91B2321B90B2FFF7B9FF3A1BCC
:102CE00091B2721B90B2FFF7B3FF641CB9F1000FF1
:102CF00003DAA000801D814404E0601B80000A30DC
:102D000081446D1EAC42C0DDBDE8F08330B50446A1
:102D10000D463F48808849F24131884205D03C4801
:102D2000808845F21031884214D13949488902F02F
:102D3000F3FD201202F0E4FDE0B202F0E1FD3449BF
:102D4000888902F0E9FD281202F0DAFDE8B202F00B
:102D5000D7FD54E02E48808845F21051884220D19A
:102D60002B49488902F0D8FD201202F0C9FD2849FC
:102D70004989491C88B202F0CFFDE0B202F0C0FDE3
:102D80002349888902F0C8FD281202F0B9FD2049C4
:102D90008989491C88B202F0BFFDE8B202F0B0FD9B
:102DA0002DE01B48808841F66311884227D11848DE
:102DB000807920B916480088401E001B84B214494F
:102DC000488902F0A9FD201202F09AFDE0B202F05B
:102DD00097FD201202F094FDE0B202F091FD0C4943
:102DE000888902F099FD281202F08AFDE8B202F00B
:102DF00087FD281202F084FDE8B202F081FD04484C
:102E00000089044908804FF0D841A1F8802030BDE6
:102E10001C2900207E00006C00B595B000BF00208A
:102E20000190FE48006840F00200FC490860084636
:102E3000006800F00200019000BF00BF4FF40040A6
:102E400010900120119012900320139010A9F448C3
:102E5000FEF756FB4FF02040F2490860F248486008
:102E6000062088600021EF48C160016110214161A6
:102E700000218161C16141624FF480518162002172
:102E8000C1624FF4804101630021416381634FF4CB
:102E90008011C1630F20099000200A903C200B9004
:102EA00000200F9005900920029000200390082038
:102EB00004900020089002AA09A9DA48FFF75EF8FA
:102EC000322004F095FFD32002F026FD02F0ECF949
:102ED000D649888002F0E8F9D449888002F0E4F904
:102EE000D2498880084680884FF6FF7101EA0020A9
:102EF000CE49888002F0D8F9CC4989880843CB496B
:102F000088800846808849F24131884278D0D420B0
:102F100002F002FD02F0C8F9C449888002F0C4F949
:102F2000C249888002F0C0F9C0498880084680887C
:102F30004FF6FF7101EA0020BC49888002F0B4F925
:102F4000BA4989880843B94988800846808845F28B
:102F50001031884254D04FF45A4002F0DDFC02F0A8
:102F6000A3F9B24988804FF45B4002F0D5FC02F02F
:102F70009BF9AE498880084680884FF6FF7101EAC8
:102F80000020AA4988804FF45C4002F0C5FC02F0A2
:102F90008BF9A64989880843A44988800846808817
:102FA000B0F5004F02D145F2105088809F488088CC
:102FB00045F21051884223D0A12002F0ADFC02F06E
:102FC00073F99A49888002F06FF998498880084619
:102FD00080884FF6FF7101EA00209449888002F052
:102FE00063F9924989880843904988800846808817
:102FF00045F26171884203D141F663108B498880A4
:103000008A4881888AA004F01FFB8848808849F29A
:10301000413188427ED1CF2002F07EFC002002F0B8
:103020006FFCC12002F06CFC302002F069FCED2046
:1030300002F072FC642002F063FC032002F060FCEA
:10304000122002F05DFC812002F05AFCE82002F020
:1030500063FC852002F054FC102002F051FC7A2021
:1030600002F04EFCCB2002F057FC392002F048FC65
:103070002C2002F045FC002002F042FC342002F03B
:103080003FFC022002F03CFCF72002F045FC20202F
:1030900002F036FCEA2002F03FFC002002F030FC97
:1030A000002002F02DFCC02002F036FC1B2002F0B4
:1030B00027FCC12002F030FC012002F021FCC520D9
:1030C00002F02AFC302002F01BFC302002F018FC39
:1030D000C72002F021FCB72002F012FC362002F0DB
:1030E0001BFC482002F00CFC3A2002F015FC552095
:1030F00002F006FCB12002F00FFC002002F000FC00
:103100001A2002F0FDFBB62002F006FC0A2002F0B5
:10311000F7FB00E0AAE0A22002F0F2FBF22002F0AE
:10312000FBFB002002F0ECFB262002F0F5FB012067
:1031300002F0E6FBE02002F0EFFB0F2002F0E0FBE4
:103140002A2002F0DDFB282002F0DAFB082002F042
:10315000D7FB0E2002F0D4FB082002F0D1FB542054
:1031600002F0CEFBA92002F0CBFB432002F0C8FB0B
:103170000A2002F0C5FB0F2002F0C2FB002002F083
:10318000BFFB002002F0BCFB002002F0B9FB0020D6
:1031900002F0B6FBE12002F0BFFB002002F0B0FB22
:1031A000152002F0ADFB172002F0AAFB072002F069
:1031B000A7FB112002F0A4FB062002F0A1FB2B20AC
:1031C00002F09EFB562002F09BFB3C2002F098FB95
:1031D000052002F095FB102002F092FB0F2002F078
:1031E0008FFB3F2002F08CFB3F2002F089FB0F2079
:1031F00002F086FB2B2002F08FFB002002F080FB08
:10320000002002F07DFB012002F07AFB3F2002F05B
:1032100077FB2A2002F080FB002011E030380240CA
:1032200000040240CC280020040100A01C2900203A
:10323000204C43442049443A25780D0A0000000000
:1032400002F05EFB002002F05BFB002002F058FB66
:10325000EF2002F055FB112002F05EFB782004F015
:10326000C7FD292002F058FB01F0CBBFFE48808843
:1032700045F21031884240F07C87ED2002F04CFB93
:10328000012002F03DFBFE2002F03AFBEE2002F0AE
:1032900043FBDE2002F034FB212002F031FBF12061
:1032A00002F03AFB012002F02BFBDF2002F034FB9E
:1032B000102002F025FBC42002F02EFB8F2002F02C
:1032C0001FFBC62002F028FB002002F019FBE220C1
:1032D00002F016FBE22002F013FBE22002F010FBEA
:1032E000BF2002F019FBAA2002F00AFBB02002F076
:1032F00013FB0D2002F004FB002002F001FB0D2067
:1033000002F0FEFA002002F0FBFA112002F0F8FAB7
:10331000002002F0F5FA192002F0F2FA002002F083
:10332000EFFA212002F0ECFA002002F0E9FA2D2059
:1033300002F0E6FA002002F0E3FA3D2002F0E0FAA3
:10334000002002F0DDFA5D2002F0DAFA002002F03F
:10335000D7FA5D2002F0D4FA002002F0D1FAB120B1
:1033600002F0DAFA802002F0CBFA002002F0C8FA6C
:103370008B2002F0C5FA002002F0C2FA962002F07B
:10338000BFFA002002F0BCFAB22002F0C5FA002019
:1033900002F0B6FA002002F0B3FA022002F0B0FA0E
:1033A000002002F0ADFA032002F0AAFA002002F099
:1033B000A7FAB32002F0B0FA002002F0A1FA002030
:1033C00002F09EFA002002F09BFA002002F098FA28
:1033D000002002F095FA002002F092FA002002F09C
:1033E0008FFA002002F08CFA002002F089FA002007
:1033F00002F086FA002002F083FA002002F080FA40
:10340000002002F07DFA002002F07AFA002002F09B
:1034100077FA002002F074FA002002F071FA00201E
:1034200002F06EFA002002F06BFA002002F068FA57
:10343000002002F065FA002002F062FA002002F09B
:103440005FFA002002F05CFAB42002F065FA8B20EB
:1034500002F056FA002002F053FA962002F050FAD9
:10346000002002F04DFAA12002F04AFA002002F0FA
:1034700047FAB52002F050FA022002F041FA00208B
:1034800002F03EFA032002F03BFA002002F038FA84
:10349000042002F035FA002002F032FAB62002F0E1
:1034A0003BFA002002F02CFA002002F029FAB720A3
:1034B00002F032FA002002F023FA002002F020FA93
:1034C0003F2002F01DFA002002F01AFA5E2002F0FE
:1034D00017FA002002F014FA642002F011FA00201A
:1034E00002F00EFA8C2002F00BFA002002F008FA2B
:1034F000AC2002F005FA002002F002FADC2002F013
:10350000FFF9002002F0FCF9702002F0F9F9002028
:1035100002F0F6F9902002F0F3F9002002F0F0F941
:10352000EB2002F0EDF9002002F0EAF9DC2002F0D5
:10353000E7F9002002F0E4F9B82002F0EDF90020EC
:1035400002F0DEF9002002F0DBF9002002F0D8F9E9
:10355000002002F0D5F9002002F0D2F9002002F09C
:10356000CFF9002002F0CCF9002002F0C9F9BA200E
:1035700002F0D2F9242002F0C3F9002002F0C0F9D1
:10358000002002F0BDF9002002F0BAF9C12002F0DB
:10359000C3F9202002F0B4F9002002F0B1F9542060
:1035A00002F0AEF9002002F0ABF9FF2002F0A8F91A
:1035B000002002F0A5F9C22002F0AEF90A2002F0C4
:1035C0009FF9002002F09CF9042002F099F90020F4
:1035D00002F096F9C32002F09FF93C2002F090F926
:1035E000002002F08DF93A2002F08AF9002002F062
:1035F00087F9392002F084F9002002F081F93720A0
:1036000002F07EF9002002F07BF93C2002F078F90C
:10361000002002F075F9362002F072F9002002F065
:103620006FF9322002F06CF9002002F069F92F20C6
:1036300002F066F9002002F063F92C2002F060F934
:10364000002002F05DF9292002F05AF9002002F072
:1036500057F9262002F054F9002002F051F92420F5
:1036600002F04EF9002001E01C29002002F048F988
:10367000242002F045F9002002F042F9232002F054
:103680003FF9002002F03CF93C2002F039F900201B
:1036900002F036F9362002F033F9002002F030F95A
:1036A000322002F02DF9002002F02AF92F2002F03A
:1036B00027F9002002F024F92C2002F021F9002043
:1036C00002F01EF9292002F01BF9002002F018F97F
:1036D000262002F015F9002002F012F9242002F051
:1036E0000FF9002002F00CF9242002F009F9002063
:1036F00002F006F9232002F003F9002002F000F99D
:10370000C42002F009F9622002F0FAF8002002F069
:10371000F7F8052002F0F4F8002002F0F1F8842018
:1037200002F0EEF8002002F0EBF8F02002F0E8F8EA
:10373000002002F0E5F8182002F0E2F8002002F084
:10374000DFF8A42002F0DCF8002002F0D9F81820FD
:1037500002F0D6F8002002F0D3F8502002F0D0F8A2
:10376000002002F0CDF80C2002F0CAF8002002F090
:10377000C7F8172002F0C4F8002002F0C1F8952025
:1037800002F0BEF8002002F0BBF8F32002F0B8F817
:10379000002002F0B5F8E62002F0B2F8002002F0B6
:1037A000AFF8C52002F0B8F8322002F0A9F80020E6
:1037B00002F0A6F8442002F0A3F8002002F0A0F8DE
:1037C000652002F09DF8002002F09AF8762002F0C1
:1037D00097F8002002F094F8882002F091F8002079
:1037E00002F08EF8C62002F097F8202002F088F848
:1037F000002002F085F8172002F082F8002002F085
:103800007FF8012002F07CF8002002F079F8C72050
:1038100002F082F8002002F073F8002002F070F845
:10382000002002F06DF8002002F06AF8C82002F0D3
:1038300073F8002002F064F8002002F061F8002024
:1038400002F05EF8002002F05BF8C92002F064F894
:10385000002002F055F8002002F052F8002002F09B
:103860004FF8002002F04CF8002002F049F8002048
:1038700002F046F8002002F043F8002002F040F881
:10388000002002F03DF8002002F03AF8002002F09B
:1038900037F8002002F034F8002002F031F8002060
:1038A00002F02EF8002002F02BF8002002F028F899
:1038B000E02002F031F8162002F022F8002002F099
:1038C0001FF81C2002F01CF8002002F019F821203B
:1038D00002F016F8002002F013F8362002F010F87B
:1038E000002002F00DF8462002F00AF8002002F055
:1038F00007F8522002F004F8002002F001F86420DA
:1039000001F0FEFF002001F0FBFF7A2001F0F8FF3C
:10391000002001F0F5FF8B2001F0F2FF002001F004
:10392000EFFF992001F0ECFF002001F0E9FFA82053
:1039300001F0E6FF002001F0E3FFB92001F0E0FF15
:10394000002001F0DDFFC42001F0DAFF002001F0CB
:10395000D7FFCA2001F0D4FF002001F0D1FFD22010
:1039600001F0CEFF002001F0CBFFD92001F0C8FF0D
:10397000002001F0C5FFE02001F0C2FF002001F0AF
:10398000BFFFF32001F0BCFF002001F0B9FFE120F0
:1039900001F0C2FF162001F0B3FF002001F0B0FFDC
:1039A0001C2001F0ADFF002001F0AAFF222001F051
:1039B000A7FF002001F0A4FF362001F0A1FF0020A6
:1039C00001F09EFF452001F09BFF002001F098FFD1
:1039D000522001F095FF002001F092FF642001F0D9
:1039E0008FFF002001F08CFF7A2001F089FF00207A
:1039F00001F086FF8B2001F083FF002001F080FFA3
:103A0000992001F07DFF002001F07AFFA82001F04D
:103A100077FF002001F074FFB92001F071FF002052
:103A200001F06EFFC42001F06BFF002001F068FF81
:103A3000CA2001F065FF002001F062FFD22001F0F2
:103A40005FFF002001F05CFFD82001F059FF00204B
:103A500001F056FFE02001F053FF002001F050FF7D
:103A6000F32001F04DFF002001F04AFFE22001F0B9
:103A700053FF052001F044FF002001F041FF0B201F
:103A800001F03EFF002001F03BFF1B2001F038FF5A
:103A9000002001F035FF342001F032FF002001F05A
:103AA0002FFF442001F02CFF002001F029FF4F20C0
:103AB00001F026FF002001F023FF612001F020FF2C
:103AC000002001F01DFF792001F01AFF002001F015
:103AD00017FF882001F014FF002001F011FF97204C
:103AE00001F00EFF002001F00BFFA62001F008FFFF
:103AF000002001F005FFB72001F002FF002001F0D7
:103B0000FFFEC22001F0FCFE002001F0F9FEC720FC
:103B100001F0F6FE002001F0F3FED12001F0F0FEEE
:103B2000002001F0EDFED62001F0EAFE002001F0B9
:103B3000E7FEDD2001F0E4FE002001F0E1FEF320CD
:103B400001F0DEFE002001F0DBFEE32001F0E4FEE8
:103B5000052001F0D5FE002001F0D2FE0A2001F080
:103B6000CFFE002001F0CCFE1C2001F0C9FE002099
:103B700001F0C6FE332001F0C3FE002001F0C0FEBC
:103B8000442001F0BDFE002001F0BAFE502001F0FB
:103B9000B7FE002001F0B4FE622001F0B1FE00206B
:103BA00001F0AEFE782001F0ABFE002001F0A8FE8F
:103BB000882001F0A5FE002001F0A2FE972001F070
:103BC0009FFE002001F09CFEA62001F099FE00203F
:103BD00001F096FEB72001F093FE002001F090FE68
:103BE000C22001F08DFE002001F08AFEC72001F006
:103BF00087FE002001F084FED12001F081FE00202C
:103C000001F07EFED52001F07BFE002001F078FE61
:103C1000DD2001F075FE002001F072FEF32001F0BE
:103C20006FFE002001F06CFEE42001F075FE012023
:103C300001F066FE002001F063FE012001F060FE4D
:103C4000002001F05DFE022001F05AFE002001F08C
:103C500057FE2A2001F054FE002001F051FE3C20C6
:103C600001F04EFE002001F04BFE4B2001F048FE1B
:103C7000002001F045FE5D2001F042FE002001F031
:103C80003FFE742001F03CFE002001F039FE84204C
:103C900001F036FE002001F033FE932001F030FEEB
:103CA000002001F02DFEA22001F02AFE002001F0EC
:103CB00027FEB32001F024FE002001F021FEBE20EB
:103CC00001F01EFE002001F01BFEC42001F018FED2
:103CD000002001F015FECD2001F012FE002001F0C1
:103CE0000FFED32001F00CFE002001F009FEDD20C4
:103CF00001F006FE002001F003FEF32001F000FEBB
:103D0000002001F0FDFDE52001F006FE002001F09D
:103D1000F7FD002001F0F4FD002001F0F1FD00208E
:103D200001F0EEFD022001F0EBFD002001F0E8FDC6
:103D3000292001F0E5FD002001F0E2FD3C2001F02A
:103D4000DFFD002001F0DCFD4B2001F0D9FD00205B
:103D500001F0D6FD5D2001F0D3FD002001F0D0FD83
:103D6000742001F0CDFD002001F0CAFD842001F097
:103D7000C7FD002001F0C4FD932001F0C1FD00202B
:103D800001F0BEFDA22001F0BBFD002001F0B8FD56
:103D9000B32001F0B5FD002001F0B2FDBE2001F01E
:103DA000AFFD002001F0ACFDC42001F0A9FD002012
:103DB00001F0A6FDCD2001F0A3FD002001F0A0FD43
:103DC000D32001F09DFD002001F09AFDDC2001F0E0
:103DD00097FD002001F094FDF32001F091FD0020FB
:103DE00001F08EFDE62001F097FD112001F088FD25
:103DF000002001F085FD342001F082FD002001F05B
:103E00007FFD562001F07CFD002001F079FD762039
:103E100001F076FD002001F073FD772001F070FDC8
:103E2000002001F06DFD662001F06AFD002001F028
:103E300067FD882001F064FD002001F061FD9920FC
:103E400001F05EFD002001F05BFDBB2001F058FD9C
:103E5000002001F055FD992001F052FD002001F0F5
:103E60004FFD662001F04CFD002001F049FD55207A
:103E700001F046FD002001F043FD552001F040FD1A
:103E8000002001F03DFD452001F03AFD002001F049
:103E900037FD432001F034FD002001F031FD4420C6
:103EA00001F02EFD002001F02BFDE72001F034FD94
:103EB000322001F025FD002001F022FD552001F007
:103EC0001FFD002001F01CFD762001F019FD0020EF
:103ED00001F016FD662001F013FD002001F010FD39
:103EE000672001F00DFD002001F00AFD672001F0C0
:103EF00007FD002001F004FD872001F001FD0020F6
:103F000001F0FEFC992001F0FBFC002001F0F8FC20
:103F1000BB2001F0F5FC002001F0F2FC992001F03B
:103F2000EFFC002001F0ECFC772001F0E9FC002020
:103F300001F0E6FC442001F0E3FC002001F0E0FC8D
:103F4000562001F0DDFC002001F0DAFC232001F016
:103F5000D7FC002001F0D4FC332001F0D1FC00207C
:103F600001F0CEFC452001F0CBFC002001F0C8FCA4
:103F7000E82001F0D1FC002001F0C2FC002001F09B
:103F8000BFFC992001F0BCFC002001F0B9FC8720A7
:103F900001F0B6FC002001F0B3FC882001F0B0FC79
:103FA000002001F0ADFC772001F0AAFC002001F018
:103FB000A7FC662001F0A4FC002001F0A1FC8820F1
:103FC00001F09EFC002001F09BFCAA2001F098FC6F
:103FD000002001F095FCBB2001F092FC002001F0D4
:103FE0008FFC992001F08CFC002001F089FC6620F8
:103FF00001F086FC002001F083FC552001F080FCDC
:10400000002001F07DFC552001F07AFC002001F039
:1040100077FC442001F074FC002001F071FC442086
:1040200001F06EFC002001F06BFC552001F068FCF3
:10403000002001F065FCE92001F06EFCAA2001F0EF
:104040005FFC002001F05CFC002001F059FC002026
:1040500001F056FC002001F05FFCAA2001F050FCAA
:10406000CF2001F059FC002001F04AFC002001F0B3
:1040700047FC002001F044FC002001F041FC00203E
:1040800001F03EFC002001F03BFC002001F038FC78
:10409000002001F035FC002001F032FC002001F08E
:1040A0002FFC002001F02CFC002001F029FC002056
:1040B00001F026FC002001F023FC002001F020FC90
:1040C000002001F01DFC002001F01AFCF02001F09E
:1040D00023FC002001F014FC502001F011FC002012
:1040E00001F00EFC002001F00BFC002001F008FCA8
:1040F000F32001F011FC002001F002FCF92001F096
:104100000BFC062001F0FCFB102001F0F9FB29203C
:1041100001F0F6FB002001F0F3FB3A2001F0FCFB7C
:10412000552001F0EDFB112001F0F6FB642003F0B7
:104130005FFE292001F0F0FB352001F0EDFB0020AF
:1041400001F0DEFB512001F0E7FBFF2001F0D8FB7E
:10415000532001F0E1FB2C2001F0D2FB552001F0AF
:10416000DBFB822001F0CCFB2C2001F0D5FB01F021
:1041700048B8FE48808845F2105188427ED15521CA
:104180004FF4704001F0DEFBAA214FF2010001F074
:10419000D9FB52214FF2020001F0D4FB08214FF26B
:1041A000030001F0CFFB01214FF2040001F0CAFB34
:1041B0000D214FF4304001F0C5FB0D214BF2010001
:1041C00001F0C0FB0D214BF2020001F0BBFB3421DA
:1041D0004FF4364001F0B6FB34214BF2016001F0A0
:1041E000B1FB34214BF2026001F0ACFB0D214FF426
:1041F000314001F0A7FB0D214BF2011001F0A2FBB1
:104200000D214BF2021001F09DFB34214FF4374099
:1042100001F098FB34214BF2017001F093FB342143
:104220004BF2027001F08EFB00214FF4324001F09E
:1042300089FB00214BF2012001F084FB00214BF2AD
:10424000022001F07FFB24214FF4384001F07AFB7B
:1042500024214BF6010001F075FB24214BF60200EE
:1042600001F070FB01214FF43F4001F06BFB0F2187
:104270004FF4334001F066FB0F2100E0FEE34BF208
:10428000013001F05FFB0F214BF2023001F05AFBCD
:1042900034214FF4394001F055FB34214BF6011025
:1042A00001F050FB34214BF6021001F04BFB0821CA
:1042B0004FF4354001F046FB08214BF2015001F06C
:1042C00041FB08214BF2025001F03CFB03214FF46B
:1042D000424001F037FB24214FF43A4001F032FB19
:1042E00024214BF6012001F02DFB24214BF6022066
:1042F00001F028FB00214FF43C4001F023FB782122
:104300004BF6014001F01EFB00214BF6024001F08C
:1043100019FB00214FF43D4001F014FB78214BF6CE
:10432000015001F00FFB00214BF6025001F00AFB97
:1043300000214FF43E4001F005FB64214BF6016083
:1043400001F000FB00214FF4514001F0FBFA332152
:104350004DF2011001F0F6FA00214DF2021001F0C9
:10436000F1FA34214DF2031001F0ECFA00214DF284
:10437000041001F0E7FA3A214DF2051001F0E2FADB
:1043800000214DF2061001F0DDFA4A214DF207102E
:1043900001F0D8FA00214DF2081001F0D3FA5C21A7
:1043A0004DF2091001F0CEFA00214DF20A1001F091
:1043B000C9FA81214DF20B1001F0C4FA00214DF22F
:1043C0000C1001F0BFFAA6214DF20D1001F0BAFA5F
:1043D00000214DF20E1001F0B5FAE5214DF20F105B
:1043E00001F0B0FA01214DF2101001F0ABFA1321E7
:1043F0004DF2111001F0A6FA01214DF2121001F058
:10440000A1FA54214DF2131001F09CFA01214DF252
:10441000141001F097FA82214DF2151001F092FA72
:1044200001214DF2161001F08DFACA214DF217103C
:1044300001F088FA02214DF2181001F083FA0021F0
:104440004DF2191001F07EFA02214DF21A1001F01E
:1044500079FA01214DF21B1001F074FA02214DF29C
:104460001C1001F06FFA34214DF21D1001F06AFAB0
:1044700002214DF21E1001F065FA67214DF21F1066
:1044800001F060FA02214DF2201001F05BFA842164
:104490004DF2211001F056FA02214DF2221001F0E6
:1044A00051FAA4214DF2231001F04CFA02214DF2F1
:1044B000241001F047FAB7214DF2251001F042FA1D
:1044C00002214DF2261001F03DFACF214DF22710C6
:1044D00001F038FA02214DF2281001F033FADE2102
:1044E0004DF2291001F02EFA02214DF22A1001F0AE
:1044F00029FAF2214DF22B1001F024FA02214DF29B
:104500002C1001F01FFAFE214DF22D1001F01AFAC5
:1045100003214DF22E1001F015FA10214DF22F104B
:1045200001F010FA03214DF2301001F00BFA3321A3
:104530004DF2311001F006FA03214DF2321001F074
:1045400001FA6D214DF2331001F0FCF900214FF416
:10455000524001F0F7F933214DF2012001F0F2F958
:1045600000214DF2022001F0EDF901E01C290020AC
:1045700034214DF2032001F0E5F900214DF2042031
:1045800001F0E0F93A214DF2052001F0DBF90021BC
:104590004DF2062001F0D6F94A214DF2072001F034
:1045A000D1F900214DF2082001F0CCF95C214DF247
:1045B000092001F0C7F900214DF20A2001F0C2F9EB
:1045C00081214DF20B2001F0BDF900214DF20C20AC
:1045D00001F0B8F9A6214DF20D2001F0B3F9002148
:1045E0004DF20E2001F0AEF9E5214DF20F2001F061
:1045F000A9F901214DF2102001F0A4F913214DF287
:10460000112001F09FF901214DF2122001F09AF9D9
:1046100054214DF2132001F095F901214DF214209F
:1046200001F090F982214DF2152001F08BF9012162
:104630004DF2162001F086F9CA214DF2172001F043
:1046400081F902214DF2182001F07CF900214DF290
:10465000192001F077F902214DF21A2001F072F9C8
:1046600001214DF21B2001F06DF902214DF21C20B9
:1046700001F068F934214DF21D2001F063F90221A7
:104680004DF21E2001F05EF967214DF21F2001F06E
:1046900059F902214DF2202001F054F984214DF204
:1046A000212001F04FF902214DF2222001F04AF9B8
:1046B000A4214DF2232001F045F902214DF22420DE
:1046C00001F040F9B7214DF2252001F03BF902211C
:1046D0004DF2262001F036F9CF214DF2272001F0CE
:1046E00031F902214DF2282001F02CF9DE214DF2A2
:1046F000292001F027F902214DF22A2001F022F9A8
:10470000F2214DF22B2001F01DF902214DF22C2057
:1047100001F018F9FE214DF22D2001F013F90321CB
:104720004DF22E2001F00EF910214DF22F2001F054
:1047300009F903214DF2302001F004F933214DF243
:10474000312001F0FFF803214DF2322001F0FAF898
:104750006D214DF2332001F0F5F800214FF4534064
:1047600001F0F0F833214DF2013001F0EBF80021B7
:104770004DF2023001F0E6F834214DF2033001F041
:10478000E1F800214DF2043001F0DCF83A214DF25D
:10479000053001F0D7F800214DF2063001F0D2F8D3
:1047A0004A214DF2073001F0CDF800214DF20830DA
:1047B00001F0C8F85C214DF2093001F0C3F8002186
:1047C0004DF20A3001F0BEF881214DF20B3001F0BC
:1047D000B9F800214DF20C3001F0B4F8A6214DF2E9
:1047E0000D3001F0AFF800214DF20E3001F0AAF8C3
:1047F000E5214DF20F3001F0A5F801214DF2103006
:1048000001F0A0F813214DF2113001F09BF80121C5
:104810004DF2123001F096F854214DF2133001F0B0
:1048200091F801214DF2143001F08CF882214DF203
:10483000153001F087F801214DF2163001F082F8B1
:10484000CA214DF2173001F07DF802214DF21830E7
:1048500001F078F800214DF2193001F073F80221CF
:104860004DF21A3001F06EF801214DF21B3001F0CB
:1048700069F802214DF21C3001F064F834214DF248
:104880001D3001F05FF802214DF21E3001F05AF8A0
:1048900067214DF21F3001F055F802214DF2203012
:1048A00001F050F884214DF2213001F04BF8022143
:1048B0004DF2223001F046F8A4214DF2233001F0F0
:1048C00041F802214DF2243001F03CF8B7214DF2BD
:1048D000253001F037F802214DF2263001F032F890
:1048E000CF214DF2273001F02DF802214DF2283072
:1048F00001F028F8DE214DF2293001F023F80221E1
:104900004DF22A3001F01EF8F2214DF22B3001F069
:1049100019F802214DF22C3001F014F8FE214DF26D
:104920002D3001F00FF803214DF22E3001F00AF87E
:1049300010214DF22F3001F005F803214DF23030F7
:1049400001F000F833214DF2313000F0FBFF03217C
:104950004DF2323000F0F6FF6D214DF2333000F0B1
:10496000F1FF00214FF4544000F0ECFF33214DF2F1
:10497000014000F0E7FF00214DF2024000F0E2FFAD
:1049800034214DF2034000F0DDFF00214DF20440E0
:1049900000F0D8FF3A214DF2054000F0D3FF00218E
:1049A0004DF2064000F0CEFF4A214DF2074000F0E4
:1049B000C9FF00214DF2084000F0C4FF5C214DF218
:1049C000094000F0BFFF00214DF20A4000F0BAFF9D
:1049D00081214DF20B4000F0B5FF00214DF20C405B
:1049E00000F0B0FFA6214DF20D4000F0ABFF00211A
:1049F0004DF20E4000F0A6FFE5214DF20F4000F011
:104A0000A1FF01214DF2104000F09CFF13214DF257
:104A1000114000F097FF01214DF2124000F092FF8B
:104A200054214DF2134000F08DFF01214DF214404E
:104A300000F088FF82214DF2154000F083FF012134
:104A40004DF2164000F07EFFCA214DF2174000F0F3
:104A500079FF02214DF2184000F074FF00214DF261
:104A6000194000F06FFF02214DF21A4000F06AFF7A
:104A700001214DF21B4000F065FF00E003E302213D
:104A80004DF21C4000F05EFF34214DF21D4000F05D
:104A900059FF02214DF21E4000F054FF67214DF2F4
:104AA0001F4000F04FFF02214DF2204000F04AFF6E
:104AB00084214DF2214000F045FF02214DF22240B9
:104AC00000F040FFA4214DF2234000F03BFF022103
:104AD0004DF2244000F036FFB7214DF2254000F0A2
:104AE00031FF02214DF2264000F02CFFCF214DF284
:104AF000274000F027FF02214DF2284000F022FF5E
:104B0000DE214DF2294000F01DFF02214DF22A4026
:104B100000F018FFF2214DF22B4000F013FF0221AC
:104B20004DF22C4000F00EFFFE214DF22D4000F022
:104B300009FF03214DF22E4000F004FF10214DF239
:104B40002F4000F0FFFE03214DF2304000F0FAFE4E
:104B500033214DF2314000F0F5FE03214DF2324099
:104B600000F0F0FE6D214DF2334000F0EBFE00212D
:104B70004FF4554000F0E6FE33214DF2015000F0B5
:104B8000E1FE00214DF2025000F0DCFE34214DF236
:104B9000035000F0D7FE00214DF2045000F0D2FE89
:104BA0003A214DF2055000F0CDFE00214DF20650A5
:104BB00000F0C8FE4A214DF2075000F0C3FE00216C
:104BC0004DF2085000F0BEFE5C214DF2095000F09D
:104BD000B9FE00214DF20A5000F0B4FE81214DF2E1
:104BE0000B5000F0AFFE00214DF20C5000F0AAFE79
:104BF000A6214DF20D5000F0A5FE00214DF20E5001
:104C000000F0A0FEE5214DF20F5000F09BFE0121C7
:104C10004DF2105000F096FE13214DF2115000F0AD
:104C200091FE01214DF2125000F08CFE54214DF204
:104C3000135000F087FE01214DF2145000F082FE67
:104C400082214DF2155000F07DFE01214DF21650EB
:104C500000F078FECA214DF2175000F073FE0221D9
:104C60004DF2185000F06EFE00214DF2195000F088
:104C700069FE02214DF21A5000F064FE01214DF24E
:104C80001B5000F05FFE02214DF21C5000F05AFE56
:104C900034214DF21D5000F055FE02214DF21E5000
:104CA00000F050FE67214DF21F5000F04BFE022134
:104CB0004DF2205000F046FE84214DF2215000F0CC
:104CC00041FE02214DF2225000F03CFEA4214DF2A3
:104CD000235000F037FE02214DF2245000F032FE46
:104CE000B7214DF2255000F02DFE02214DF2265045
:104CF00000F028FECF214DF2275000F023FE0221C4
:104D00004DF2285000F01EFEDE214DF2295000F039
:104D100019FE02214DF22A5000F014FEF2214DF24C
:104D20002B5000F00FFE02214DF22C5000F00AFE35
:104D3000FE214DF22D5000F005FE03214DF22E50C4
:104D400000F000FE10214DF22F5000F0FBFD03217A
:104D50004DF2305000F0F6FD33214DF2315000F0AD
:104D6000F1FD03214DF2325000F0ECFD6D214DF2CA
:104D7000335000F0E7FD00214FF4564000F0E2FD13
:104D800033214DF2016000F0DDFD00214DF20260A3
:104D900000F0D8FD34214DF2036000F0D3FD002176
:104DA0004DF2046000F0CEFD3A214DF2056000F0B6
:104DB000C9FD00214DF2066000F0C4FD4A214DF20C
:104DC000076000F0BFFD00214DF2086000F0BAFD61
:104DD0005C214DF2096000F0B5FD00214DF20A6042
:104DE00000F0B0FD81214DF20B6000F0ABFD002121
:104DF0004DF20C6000F0A6FDA6214DF20D6000F012
:104E0000A1FD00214DF20E6000F09CFDE5214DF268
:104E10000F6000F097FD01214DF2106000F092FD4F
:104E200013214DF2116000F08DFD01214DF2126051
:104E300000F088FD54214DF2136000F083FD012144
:104E40004DF2146000F07EFD82214DF2156000F0FD
:104E500079FD01214DF2166000F074FDCA214DF27A
:104E6000176000F06FFD02214DF2186000F06AFD3E
:104E700000214DF2196000F065FD02214DF21A602B
:104E800000F060FD01214DF21B6000F05BFD02218E
:104E90004DF21C6000F056FD34214DF21D6000F013
:104EA00051FD02214DF21E6000F04CFD67214DF2D4
:104EB0001F6000F047FD02214DF2206000F042FD2E
:104EC00084214DF2216000F03DFD02214DF222606F
:104ED00000F038FDA4214DF2236000F033FD0221E3
:104EE0004DF2246000F02EFDB7214DF2256000F058
:104EF00029FD02214DF2266000F024FDCF214DF264
:104F0000276000F01FFD02214DF2286000F01AFD1D
:104F1000DE214DF2296000F015FD02214DF22A60DC
:104F200000F010FDF2214DF22B6000F00BFD02218C
:104F30004DF22C6000F006FDFE214DF22D6000F0D8
:104F400001FD03214DF22E6000F0FCFC10214DF21A
:104F50002F6000F0F7FC03214DF2306000F0F2FC0E
:104F600033214DF2316000F0EDFC03214DF232604F
:104F700000F0E8FC6D214DF2336000F0E3FC5521B8
:104F80004FF4704000F0DEFCAA214FF2010000F067
:104F9000D9FC52214FF2020000F0D4FC08214FF25C
:104FA000030000F0CFFC00214FF2040000F0CAFC27
:104FB000CC214FF4314000F0C5FC00214BF2011030
:104FC00000F0C0FC05214FF4364000F0BBFC70211E
:104FD0004FF4374000F0B6FC70214BF2017000F046
:104FE000B1FC01214FF4384000F0ACFC03214BF63A
:104FF000010000F0A7FC03214BF6020000F0A2FC28
:1050000003214BF6030000F09DFC02214FF43C40CD
:1050100000F098FC00214BF6014000F093FC0021C9
:105020004BF6024000F08EFCD0214FF4494000F0D6
:1050300089FC02214CF6011000F084FC50214CF652
:10504000021000F07FFC50214CF6031000F07AFCB7
:1050500050214CF6041000F075FC00214FF4545020
:1050600000F070FC55214FF4685000F06BFC4FF4D9
:10507000885000F051FC782002F0C6FE4FF4245016
:1050800000F04AFCBDE07F48808841F66311884209
:10509000F8D1E22000F040FC1D2000F031FC02209D
:1050A00000F02EFC042000F02BFC642002F0ACFE8B
:1050B000E02000F031FC012000F022FC0A2002F088
:1050C00097FEE02000F028FC032000F019FC0C20E3
:1050D00002F08EFE012000F01FFC0A2002F088FE84
:1050E000E62000F019FC2F2000F00AFCFF2000F061
:1050F00007FCFF2000F004FCB02000F00DFC202095
:1051000000F0FEFB002000F0FBFB032000F0F8FBAA
:1051100040F21F3000F0F4FB012000F0F1FB40F200
:10512000DF1000F0EDFB002000F0EAFBB42000F0FF
:10513000F3FB042000F0E4FB40F21F4000F0E0FB32
:10514000002000F0DDFB2E2000F0DAFB002000F054
:10515000D7FB002000F0D4FB002000F0D1FB0020A2
:1051600000F0CEFBB62000F0D7FB022000F0C8FB19
:105170004FF4037000F0C4FB002000F0C1FB1720C7
:1051800000F0BEFB152000F0BBFB002000F0B8FBD8
:10519000002000F0B5FBF02000F0BEFB032000F083
:1051A000AFFB292000F0B8FBD02000F0B5FB0020B9
:1051B00000F0A6FBBE2000F0AFFB052000F0A0FB36
:1051C000FE2000F09DFB012000F09AFB002000F083
:1051D00097FB002000F094FB002000F091FBB8202A
:1051E00000F09AFB032000F08BFB012000F088FB0D
:1051F000BA2000F091FB012000F082FB642000F057
:105200005DF82048808849F24131884211D01D481C
:10521000808845F2103188420BD01A48808845F2C8
:105220001051884205D01748808841F663118842A2
:105230001CD11548006820F00F004FF02041C1F844
:105240001C010846D0F81C0120F47060C1F81C0154
:105250000846D0F81C0140F00300C1F81C010846C4
:10526000D0F81C0140F40070C1F81C010020FDF7CB
:10527000E7FB0120054908604FF6FF70FDF7C6FB0C
:1052800015B000BD1C2900201C0100A0BC824042BA
:1052900010B50246012000E050430B1EA1F10104AD
:1052A000E1B2F9D110BD000008B5034800880090B4
:1052B000BDF8000008BD00008000006C70B52DED49
:1052C000048B0446BE2000F027FB052000F018FBED
:1052D0002046FBF712F941EC190B9FED0E0B53EC36
:1052E000102BFBF787F841EC180BFBF713F985B28D
:1052F000284600F005FB012000F002FBFF2000F033
:10530000FFFA002000F0FCFA002000F0F9FABDECF2
:10531000048B70BD6666666666660440F0B5054639
:105320000024002799488079012805D19748808872
:1053300041F66311884208D194488079F0B99348C6
:10534000808841F66311884218D1082D15D2DFE814
:1053500005F00406080A0C0E101206250DE00725BC
:105360000BE0042509E0052507E0012505E00025FF
:1053700003E0032501E0022500BF00BF83488088C9
:1053800049F24131884211D08048808845F210317D
:1053900088420BD07D48808845F21051884205D064
:1053A0007A48808841F6631188427DD1082D1CD24D
:1053B000DFE805F00406090C0F12151800BF14E011
:1053C00044F0800411E044F040040EE044F0C004D6
:1053D0000BE044F0200408E044F0600405E044F0F1
:1053E000A00402E044F0E00400BF00BF67488088EA
:1053F00045F21051884202D14FF4585700E0362749
:105400006248808845F2103188420DD05F4880881C
:1054100045F21051884207D05C48808841F66311FC
:10542000884201D044F008042146384600F08AFA48
:105430005648808841F6631188421DD004F0200050
:1054400068B15248008851494988884214DA4F4867
:10545000068840884D490880084646800CE04B4845
:1054600000884A494988884206DD484806884088BD
:1054700046490880084646804448808845F21051D5
:10548000884254D14149488900F046FA002000F092
:1054900037FA3E494989491C88B200F03DFA00209C
:1054A00000F02EFA394900E06FE04989891C88B282
:1054B00000F032FA35490988491EC1F30F2000F087
:1054C0001FFA32494989C91C88B200F025FA2F49D0
:1054D0000978491EC8B200F013FA2C49888900F0F7
:1054E0001BFA002000F00CFA28498989491C88B26F
:1054F00000F012FA002000F003FA24498989891C7F
:1055000088B200F009FA21494988491EC1F30F20E9
:1055100000F0F6F91D498989C91C88B200F0FCF930
:105520001A498978491EC8B200F0EAF92DE01749F6
:10553000488900F0F1F9002000F0E2F9002000F0C5
:10554000DFF912490988491EC1F30F2000F0D8F98C
:105550000E490978491EC8B200F0D2F90B49888972
:1055600000F0DAF9002000F0CBF9002000F0C8F9D3
:1055700006494988491EC1F30F2000F0C1F90349CB
:105580008978491EC8B200F0BBF9F0BD1C29002083
:1055900010B502460C464B48808849F2413188429A
:1055A00005D04848808845F21031884214D14549D9
:1055B000488900F0B1F9101200F0A2F9D0B200F061
:1055C0009FF94049888900F0A7F9201200F098F966
:1055D000E0B200F095F973E03A48808841F6631133
:1055E000884247D137488079A8B936480088401E9C
:1055F000801A82B23349488900F08EF9002000F009
:105600007FF9002000F07CF9101200F079F9D0B297
:1056100000F076F916E02B49488900F07DF9101268
:1056200000F06EF9D0B200F06BF926490988491EE6
:10563000C1F30F2000F064F922490978491EC8B26D
:1056400000F05EF91F49888900F066F9201200F029
:1056500057F9E0B200F054F91A494988491EC1F3DC
:105660000F2000F04DF917498978491EC8B200F0A3
:1056700047F925E01348808845F2105188421FD130
:105680001049488900F048F9101200F039F90D4925
:105690004989491C88B200F03FF9D0B200F030F9D6
:1056A0000849888900F038F9201200F029F90549E5
:1056B0008989491C88B200F02FF9E0B200F020F986
:1056C00010BD00001C2900202DE9F84F80460F4630
:1056D00016461C46BB462046E31704EB5373DB100B
:1056E00021464FEAE47C04EB5C7C4FEAEC0CA4EB33
:1056F000CC0CBCF1000F02D04FF0010C01E04FF0D8
:10570000000C6344224604EBD27C4FEA6C0C03FB92
:105710000CF3DBB20093A6F12000C6B200255EE0D8
:105720000C2C07D106EB46002F4901EB800010F846
:1057300005901BE0102C05D12C4800EB061010F84A
:10574000059013E0182C07D106EBC600284901EBA1
:10575000800010F8059009E0202C05D1254800EBC9
:10576000C61010F8059001E0BDE8F88F4FF0000A70
:105770002FE009F0800030B11F48394602684046EA
:10578000FDF7C4FA07E00A9828B91C4839460268B0
:105790004046FDF7BBFA4FEA49604FEA1069781CB2
:1057A00087B217484088B84200DCDDE7A7EB0B0062
:1057B000A0420AD15F4608F101001FFA80F81048A4
:1057C0000088404500DCCFE706E00AF1010000F068
:1057D000FF0ABAF1080FCCDB00BF681CC5B2009805
:1057E00085429DDB00BFBFE7DAB201084EB7010872
:1057F0003EBD01089ACA01082000002024000020B4
:105800001C2900202DE9FF4F81B0074691461E4616
:105810000E9D4FF0000A002439E0301B401EC1B23B
:105820000A20FFF735FDB9FBF0F00A21B0FBF1F2D9
:1058300001FB1208BAF1000F16D1701EA04213DD51
:10584000B8F1000F0ED10020AB4605EBDB7149101B
:1058500001FB0471009088B22B4620220299FFF7C9
:1058600033FF12E04FF0010A0020AB4605EBDB717D
:10587000491001FB0471009088B208F13001CAB2EE
:105880002B460299FFF720FF00BF601CC4B2B44250
:10589000C3DB05B0BDE8F08F2DE9F84704460D469F
:1058A00090469946DDE9096704F0FF0A08EB040019
:1058B0001FFA80F809EB05001FFA80F916E044454D
:1058C00002DB5446A81985B24D4500DB14E00020E8
:1058D00000903A78334629462046FFF7F5FE3046D9
:1058E00006EBD07104EB61018CB27F1C38787E2806
:1058F00002DC38782028E2DA00BFBDE8F887000033
:1059000001B5BDF800000090BDF800000149088015
:1059100008BD00008000006C01B5BDF800000090DB
:10592000BDF800000149088008BD00007E00006C41
:105930000248008902490880704700001C290020A5
:105940007E00006C034A10804FF0D842A2F880100D
:10595000704700007E00006C1CB500200090019094
:105960000E480F490860A720486000210C4881605C
:1059700040F2E731C16000218161FCF707FC08B10A
:10598000FBF747F900200090019069460448FCF7B6
:10599000D3FB08B1FBF73DF91CBD0000001400402B
:1059A0008C28002000BFFEE77047000000B587B0DC
:1059B0000020069000BF00902B48006840F00200D5
:1059C000294908600846006800F00200009000BF06
:1059D00000BF00BF002000900846006840F00400AF
:1059E00008600846006800F00400009000BF00BF97
:1059F00002200190002002900120039003200490D7
:105A000001A91A48FBF77CFD4FF4005001900120DA
:105A1000029001A91648FBF773FDFAF7A9FF0020D1
:105A200014490860642002F0E3F901201249C1F82A
:105A3000B402642002F0DCF9012000F059F90122DF
:105A400006A94FF4506000F01FF89DF818100BA045
:105A500001F0FAFD9DF81800802802D1002007B05F
:105A600000BD0120FBE70000303802400004024086
:105A700000080240B4024142000041424354502019
:105A800049443A25780D0A002DE9F04105460F46B4
:105A90001646FBF743F8B220FBF70EF8FBF788F841
:105AA0002812FBF709F8FBF783F8E8B2FBF704F8D4
:105AB000FBF77EF8FBF732F8B320FAF7FDFFFBF7B0
:105AC00077F800240BE0711EA14201D0012100E013
:105AD00000210846FAF7BAFF3855601CC4B2B44238
