:020000040800F2
:10000000000500209D010008631400085513000836
:1000100061140008A9020008F91800080000000097
:10002000000000000000000000000000671400084D
:10003000E9020008000000006514000869140008C7
:10004000B7010008B7010008B7010008B7010008B0
:10005000B7010008B7010008B7010008B7010008A0
:10006000B7010008B7010008B7010008B701000890
:10007000B7010008B7010008B7010008B701000880
:10008000B7010008B7010008B7010008B701000870
:10009000B7010008B7010008B7010008B701000860
:1000A000B7010008B7010008B7010008B701000850
:1000B000B7010008B7010008B7010008B701000840
:1000C000B7010008B7010008B7010008B701000830
:1000D000B7010008F1180008B7010008B7010008CF
:1000E000B7010008B7010008B7010008B701000810
:1000F000B7010008B7010008B7010008B701000800
:10010000B7010008B7010008B7010008B7010008EF
:10011000B7010008B7010008B7010008551500082D
:10012000B7010008B7010008AD020008B7010008D8
:10013000B7010008B7010008B7010008B7010008BF
:10014000B7010008B7010008B7010008B7010008AF
:10015000B7010008B7010008B7010008B70100089F
:10016000B7010008B7010008B7010008B70100088F
:10017000B7010008B7010008B7010008000000003F
:10018000B7010008B7010008DFF80CD000F07AF8DA
:100190000048004731190008000500200648804744
:1001A00006480047FEE7FEE7FEE7FEE7FEE7FEE75C
:1001B000FEE7FEE7FEE7FEE70915000889010008F3
:1001C0002DE9F05F0546002092469B46884606468C
:1001D000814640241BE0284641464746224600F01F
:1001E00041F853465A46C01A914110D31146184659
:1001F000224600F028F82D1A67EB01084F462246E8
:100200000120002100F01FF817EB00094E41201ECD
:10021000A4F10104DFDC484631462A464346BDE8E6
:10022000F09FD2B201E000F8012B491EFBD27047CB
:100230000022F6E710B513460A4604461946FFF7B2
:10024000F0FF204610BD202A04DB203A00FA02F11C
:10025000002070479140C2F1200320FA03F31943B4
:1002600090407047202A04DB203A21FA02F0002156
:10027000704721FA02F3D040C2F1200291400843B6
:1002800019467047064C074D06E0E06840F0010350
:1002900094E8070098471034AC42F6D3FFF778FF94
:1002A000A0190008C0190008FEE70000014800F08E
:1002B00037B800BF1800002001686FF00F0240F24D
:1002C000FF3352FA81F2994318235F2AB2FBF3F20B
:1002D00003A388BF043181659A5CC26508467047F4
:1002E00000061016000610167047000002484FF472
:1002F000007101F015BB00BF0014024090F83510EA
:10030000022909D1052180F835100068016821F023
:100310000101016000207047802141650120704784
:10032000F8B5044600200821009058480568D4E933
:1003300016603768814039420CD0226813685B0729
:1003400008D5136823F004031360B160616D41F0B8
:100350000101616501218140394208D0226852695A
:10036000120604D5B160616D41F00201616504219E
:100370008140394208D022681268920704D5B160E2
:10038000616D41F00401616510218140394217D04F
:1003900020680268120713D5B16002680168520331
:1003A00006D4C9055EBF016821F00801016001E0C3
:1003B000080301D4216C00E0A16C09B120468847F4
:1003C000E16D202000FA01F23A423BD02068036838
:1003D000DB0637D5B26094F835300268052B19D1A9
:1003E00022F016020260426922F080024261226C11
:1003F0000AB9A26C1AB1026822F0080202603F201A
:100400008840B060012084F83500002084F8340072
:10041000216D37E0016852030CD4C9050ED4016880
:1004200021F010010160012084F83500002084F8DB
:10043000340003E0080301D4616C00E0E16B09B112
:1004400020468847606D00B3606DC00719D0052154
:100450004FF4165084F83510B5FBF0F021680A68A7
:1004600022F001020A60009A01328242009202D810
:100470000A68D207F7D1012084F83500002084F8FB
:100480003400E16C09B120468847F8BD080000201F
:100490002DE9F041044600F061F9002C4FD00546EB
:1004A000022084F83500002084F8340021680868B0
:1004B00020F00100086005E000F050F9401B05281D
:1004C00040D821680868C007F6D10868394AD4E9DD
:1004D000013504F10C0800EA020C98E8C101D4E9E6
:1004E000072E43EA0C032B431843636A3043384317
:1004F000042B40EA080040EA020040EA0E0225D13F
:10050000D4E90BE042EA0E02BEF1000F40EA02001D
:10051000086051F8140FA26A20F0030040EA0200BC
:1005200040F0040C19D0B8F5005F28D0B8F1000FE6
:1005300035D1022A36D0012A2BD09AB30DE0012002
:10054000BDE8F08103252023032013E00A6051F861
:10055000140F20F0070040EA030C2046C1F800C049
:10056000FFF7AAFEE16D3F220023012502FA01F107
:1005700081600020636584F83550BDE8F081032A6E
:10058000EBD8012540230120DFE802F0020C020332
:10059000F0E7AEF1C070B0FA80F0400904E0032A41
:1005A00004D3DAD1CEF300600028D6D00125402351
:1005B0000120DFE73F8010F02DE9F84F5B4A4FF054
:1005C000080A4FF0010B4FF000084FF0000E904268
:1005D000574A08BF4FF0070A02444FEAB223072BDD
:1005E00038BF4FEAB22A0022102A08BFBDE8F88FB0
:1005F0000B680BFA02F6334200F091804B6843F02F
:100600001004122C13D16FF003040EF01C030F27FB
:1006100004EA520507FA03FC05442C6A24EA0C0C90
:100620000C6904FA03F343EA0C032B624B680327BB
:1006300003F00305122B07FA08F4076805FA08F51A
:100640006FEA040C27EA040747EA0507076013D896
:100650000BFA03F414F0061F0ED08468CD6804EA88
:100660000C0405FA08F52C438460C3F300144568B4
:100670009440B5432C434460C4688D68DB0004EAB1
:100680000C0705FA08F547EA0507C76047D50023B8
:10069000284C0EF00C050093284BA4461F461B68FF
:1006A00043F480433B603B6803F48043009322F0B3
:1006B00003032344224C009FA1461F590F24AC4042
:1006C0000AFA05F5A7432F4343F80970DCF8003018
:1006D0004D6843EA0607EC0358BF23EA0607CCF847
:1006E0000070AC03DCF8043043EA060758BF23EA85
:1006F0000607CCF80470EC02DCF8083043EA060781
:1007000058BF23EA06070C4BCCF80870AD021C4614
:100710001B6843EA060758BF23EA0607276008F16B
:1007200002080EF1040E01325EE700BF001C024019
:100730000000FEBF003C01400C3C01404438024038
:1007400008FCFFFF42690A408A4208BF0904816130
:100750007047002A08BF0904816170470548006896
:10076000704700BF1F48034900780A6810440860BA
:10077000704700BFF800002080B50B48016841F4C5
:1007800000710160016841F480610160016841F419
:1007900080710160032000F06FF8002000F006F87F
:1007A00000F022F8002080BD003C024070B50D4EE4
:1007B00004464FF47A713078B1FBF0F0884909684B
:1007C000B1FBF0F000F0ACFA01250F2C08D838B9D5
:1007D0004FF0FF3021460022002500F02FF8746012
:1007E000284670BD0000002082B000200B49019017
:1007F0004A6842F480424A604A6802F480420192A8
:10080000019A0090086840F080500860086800F085
:1008100080500090009802B0704700BF40380240FE
:10082000002808DB00F01F010122400902FA01F153
:10083000014A42F82010704700E100E080B5144BF7
:100840001B68C3F3022CBCF1030E8CF007034FF0BE
:10085000FF3C38BF4FF0000E042B28BF04230CFAD6
:1008600003F399430CFA0EF301FA0EF19A43114384
:10087000BDE8804001F042B805494FF6FF030A6821
:100880001A4060F30A22034810430860704700BF13
:100890000CED00E00000FA052DE9F041002800F021
:1008A0008380434B04468846D3F8000400F00F00D1
:1008B000884207D283F80084D3F8000400F00F00C8
:1008C000404571D12068810711D5410742BF996821
:1008D00041F4E0519960010742BF996841F46041D9
:1008E00099609968A26821F0F00111439960C007EE
:1008F0002AD06068811E022903D21968890109D4AF
:1009000052E0012803D11968890303D44CE0196827
:10091000890749D599681D4621F00301084398606D
:10092000FFF71CFF064641F28837A86861682B462E
:1009300000F00C00B0EB810F06D0FFF70FFF801B1B
:10094000B842F2D9032430E0D3F8000400F00F00DD
:10095000404507D983F80084D3F8000400F00F0065
:10096000404521D12068410705D59968E26821F406
:10097000E05111439960000706D59868216920F479
:10098000604040EAC10098601C4600F02FF8A16862
:10099000084A0024C1F30311515CC84010490860A3
:1009A0000020FFF703FF00E001242046BDE8F081AE
:1009B000003802408619000809480A490A4A0068B6
:1009C0000968C1F38221515CC84070470448054959
:1009D000054A00680968C1F34231515CC84070475C
:1009E00008000020083802409619000810B5134C82
:1009F000606800F00C00082804D0042814BF1048D8
:100A0000104810BD226820680023400202F03F0217
:100A10000C485CBF42F20040C0F2F4002168C1F310
:100A20008811A0FB0101FFF7CBFB21680222C1F373
:100A3000014102EB4101B0FBF1F010BD043802406E
:100A40000024F40040787D012DE9FC41002800F0ED
:100A5000058104460078AF4EC0072FD0B06800F083
:100A60000C00042823D0B06800F00C00082802D144
:100A7000706840021BD46768B7F5803F07D03068C4
:100A8000B7F5A02F40F00B8140F480203060306833
:100A900040F480303060FFF761FE05463068800327
:100AA0000CD4FFF75BFE401B6428F7D99DE030684B
:100AB000800303D56068002800F0D080207880078C
:100AC0002BD5B06810F00C0F07D0B06800F00C0008
:100AD000082809D17068400206D43068800715D50F
:100AE000E068012812D0B9E0E1688B4800297ED087
:100AF00001210160FFF732FE05463068800705D40A
:100B0000FFF72CFE401B0228F7D96EE03068216900
:100B100020F0F80040EAC10030602078000721D5BD
:100B2000606978B17C480121C0F8801EFFF716FE8D
:100B30000546706F800715D4FFF710FE401B022892
:100B4000F7D952E074480021C0F8801EFFF706FE76
:100B50000546706F800705D5FFF700FE401B022891
:100B6000F7D942E02078400770D5306C4FF000088C
:100B7000C0000CD4CDF804804FF00108306C40F078
:100B800080503064306C00F0805001900198634FC9
:100B90003868C0050FD4386840F480703860FFF7BB
:100BA000DDFD05463868C00505D4FFF7D7FD401BBD
:100BB0000228F7D919E0A768012F05D0306F052F5B
:100BC00025D140F004003067306F40F001003067FD
:100BD000FFF7C4FD054641F28837306F80072ED4F9
:100BE000FFF7BCFD401BB842F7D9032037E00021D6
:100BF0000160FFF7B3FD0546306880077FF58DAFD4
:100C0000FFF7ACFD411B03200229F5D927E020F0B6
:100C100001003067306F20F004003067FFF79EFD61
:100C20000546002FD7D141F28837306F800706D5AF
:100C3000FFF794FD411B0320B942F6D90FE0B8F14C
:100C4000000F1EBF306C20F080503064A769002F69
:100C50005DD0B06800F00C00082803D1012002B07C
:100C6000BDE8F0812C49002088460866FFF776FD34
:100C70000546022F09D13068800128D5FFF76EFDA7
:100C8000411B03200229F6D9E9E7306880013ED5EF
:100C9000FFF764FD411B03200329F6D3DFE720F4AF
:100CA00080303060306820F480203060FFF756FDDF
:100CB0000546002F7FF4F2AE306880037FF5FEAE6C
:100CC000FFF74CFD411B03206429F5D9C7E704F168
:100CD0001C078FCF0843D90340EA82104FF6FF72FA
:100CE000914340EA0760A1F580310843706001201C
:100CF000C8F86000FFF732FD04463068800106D472
:100D0000FFF72CFD011B03200229F6D9A7E70020DD
:100D1000A5E700BF003802400000474200700040D5
:100D2000411E0020B0EB116F1CBF01207047044A28
:100D3000F023516003490B700721906011607047E8
:100D400010E000E023ED00E07047704790F83C3081
:100D50000222012B19D010B580F83D200268D2F88C
:100D600004E0D2F808C0D1E900342EF07001194334
:100D700051602CF08001214391600022012180F814
:100D80003C2080F83D10BDE8104010467047B0B1DF
:100D900010B5044690F83D0028B9002084F83C00C6
:100DA000204600F00FF80220211D84F83D00206845
:100DB00000F0FCFB012084F83D00002010BD012064
:100DC0007047000000680D49884218BF7047E0B5C1
:100DD0000020002201900A48016841F020010160D2
:100DE0000021006800F02000019001983720FFF7F3
:100DF00025FD3720BDE88C40FFF712BD00140040F0
:100E0000403802400068C16841F00101C16081685A
:100E100001F0070106291EBF016841F001010160D0
:100E200000207047704710B50446006801698907C3
:100E300044BFC1685FEA817138D40169490744BF82
:100E4000C1685FEA41713DD40169090744BFC168C7
:100E50005FEA017143D40169C90644BFC1685FEA12
:100E6000C16148D40169C9071CBFC1685FEAC1718B
:100E70004ED10169090644BFC1685FEA01614FD4E0
:100E80000169490644BFC1685FEA416150D4016904
:100E9000890646BFC1685FEA816110BD6FF020011D
:100EA00001612046BDE81040FFF74FBF6FF002011F
:100EB0000161012121778069800741D02046FFF739
:100EC000B1FF43E06FF004010161022121778069E5
:100ED00010F4407F3ED02046FFF7A4FF40E06FF0C3
:100EE0000801016104212177C06980073CD02046B8
:100EF000FFF798FF3EE06FF01001016108212177B4
:100F0000C06910F4407F39D02046FFF78BFF3BE0EB
:100F10006FF001010161204600F03CF82068A8E76D
:100F20006FF0800101612046FFF70EFF2068A7E700
:100F30006FF040010161204600F02DF82068A6E71F
:100F4000204600F025F8204600F023F80020207706
:100F5000206872E7204600F01BF8204600F019F8E0
:100F60000020207720686FE7204600F011F8204627
:100F700000F00FF80020207720686CE7204600F092
:100F800007F8204600F005F800202077206869E780
:100F900070477047704770477047000010B5D0F831
:100FA00000E00446DEF80010DEF80C20DEF8143015
:100FB0005FEA017C50D002F4907003F00103C01886
:100FC00052D0C8071FBF12F48070E06B40F00100E0
:100FD000E063480704D51BB1E06B40F00200E0631A
:100FE000880704D51BB1E06B40F00400E063BCF15E
:100FF000000F04D51BB1E06B40F00800E063E06B2C
:1010000000286ED002EA0100800604D5204600F0D8
:1010100048FBD4F800E0DEF81400E16B00F040007B
:1010200001F0080140184CD0204600F02DFB20684C
:101030004169490640D5416921F040014161606B39
:10104000D0B32F490165FFF759F9002849D0606BEB
:10105000016DBDE81040084711408A0605D52046BD
:10106000BDE8104000F01DBB114008060FD4480633
:1010700037D5DEF80C0020F04000CEF80C00202020
:1010800084F839002046BDE8104000F062B994F8B9
:101090003900212825D1A068216AB0F5805F16D1DA
:1010A00008886FF35F20CEF804002069002814BF81
:1010B000481C881C20620FE02046BDE81040FFF766
:1010C0006BBF2046FFF768FF0020E06310BD481C9F
:1010D00020620878CEF80400E08C0138E084000437
:1010E00000D010BDDEF80C0020F08000CEF80C001F
:1010F000DEF80C0040F04000CEF80C0010BD00BF40
:101100007D16000850B310B5044690F8390028B990
:10111000002084F83800204600F022F8242084F8CB
:1011200039002068C16821F40051C160204600F0F8
:10113000F5FA2068016921F490410161416921F0CB
:101140002A014161C16841F40051C16000202021A1
:10115000E06384F8391084F83A1010BD012070471C
:1011600070B586B0044601A81421FFF761F8216824
:10117000BA48814247D100269A4900F5704000964E
:101180004A6942F010024A614A6902F01002009274
:10119000009A00960A6842F001020A60096801F0AC
:1011A000010100910099072105910321049101217A
:1011B0000391022102914FF4C061019101A9FFF74F
:1011C000FBF9124D124B4FF480704FF480614FF0D9
:1011D0000062C5E90866C5E90032C5E90266C5E9ED
:1011E0000416C5E906602846FFF752F908B1FFF773
:1011F0007DF82520002100226563AC63FFF71EFB0C
:101200002520FFF70DFB06B070BD00BF18000020C1
:1012100040640240034690F83A00202806D101209D
:10122000E9B1E2B193F83800012801D102207047FA
:101230000020DA85D8639A859962222183F83800E4
:1012400083F83A101968CA6842F48072CA604A6921
:1012500042F001024A61CA6842F02002CA60704747
:1012600000687E49884218BF70472DE9F0410C4E56
:10127000794D0122002301274FF00008741C2846F5
:10128000214600F00FF8284621460122FFF7C2FF51
:10129000C3483770C0F80080BDE8F041704700BF18
:1012A000100000202DE9F041044690F83900202874
:1012B0000AD10E460120002949D01746002A46D0FF
:1012C00094F83800012802D10220BDE8F081002006
:1012D0001D46E063012084F83800212084F839009D
:1012E000FFF73CFA8046E784A7841DE0E08C80216C
:1012F00042462B460138E0842046A76800F0CCFA2D
:10130000B7F5805F0BD1C8B9318820686FF35F21D2
:1013100041602069002814BF0136023604E068B934
:10132000206816F8011B4160E08C0028DED12046C1
:10133000402142462B4600F0AFFA10B10320BDE831
:10134000F0810020202184F8380084F83910BDE8AD
:10135000F0817047FEE70000E0B500200022019018
:101360002048016841F4800101600021006800F418
:101370008000019001983A20FFF760FA3A20BDE81A
:101380008C40FFF74DBA00BF70B586B000251548F8
:10139000854C00224FF4007605950095016841F0D8
:1013A00020010160016801F0200100910099009581
:1013B000016841F0010101604FF40071006800F024
:1013C0000100009000982046FFF7C3F90120CDE905
:1013D000035501A9CDE901602046FFF7EDF806B0FD
:1013E00070BD00BF303802401CB56C480D4B002466
:1013F0004FF47A7142F2CF028461C0E90032C0E951
:101400000241CDE90044FFF7C2FC08B1FEF76EFFD0
:1014100062486946CDE90044FFF798FC08B1FEF741
:1014200065FF1CBD0014004010B50B480B4C4FF479
:10143000E13300210C22C0E90043C0E90211C0E9F8
:101440000412C0E90611FFF75DFE002814BFBDE8D5
:10145000104010BDFEF74ABFB80000200010014048
:10146000FEE7704770477047FFF77CB970B592B0E0
:1014700006AC1421201DFEF7DBFE01A81421FEF7A7
:10148000D7FE00251E4802260095016841F08051D4
:101490000160006800F080500090009800951948A5
:1014A000016841F480410160006800F480400090D0
:1014B000009804201190A82010960F9008200E90FC
:1014C0001020CDE90C650A9001200990204606966F
:1014D000FFF7BAFA08B1FEF709FF4FF48050052173
:1014E00005904FF4A05004900F20CDE902650190C3
:1014F00001A8FFF7D1F908B1FEF7F8FE12B070BDF0
:10150000403802400070004010B50E480F4CD0F833
:10151000801041F47001C0F880100B490A6842F055
:1015200001020A6000228A600B6823400B60084BAE
:101530004B600B6823F480230B60CA604FF000619E
:10154000016010BD08ED00E000380240FFFFF6FE2C
:1015500010300024B0B51148FFF765FC104C114D58
:10156000206829780130002920600BD00E484FF404
:10157000007100F0D9F9206808280DD10020206002
:101580002870B0BD0A2818BFB0BD07484FF40071DD
:1015900000F0CAF900202060B0BD00BF7800002034
:1015A0001400002010000020001402400268B0F176
:1015B000804F0ED0264B98420BD0264B984208D035
:1015C000254B984205D0254B984202D0244B984297
:1015D00003D14B6822F070021A43B0F1804F20D043
:1015E0001B4B98421DD01B4B98421AD01A4B984265
:1015F00017D01C4B984214D01B4B984211D01B4B58
:1016000098420ED0164B98420BD0144B984208D0FB
:10161000174B984205D0174B984202D0164B984270
:1016200003D1CB6822F440721A434B6922F0800246
:101630001A430A4B02608A68C2620A68826240F4F6
:1016400080629A4204BF09690163012141617047C8
:101650000004004000080040000C0040000401406D
:101660000000014000180040001C00400020004025
:10167000004001400048014000440140806B0021CF
:10168000C185C184FFF788BC0168CA6822F49072E2
:10169000CA604A6922F001024A61202180F83A10AA
:1016A000704790F83A10222918BF70478168B1F549
:1016B000805F08D102680369816A526883B1D2B23F
:1016C00021F8012B10E0026901684968002A826A4A
:1016D00002F10103836218BF01F07F01117004E081
:1016E0006FF35F2221F8022B8162C18D0139C18520
:1016F000090400D070470168CA6822F02002CA605D
:10170000CA6822F48072CA604A6922F001024A6102
:10171000202180F83A10FFF7A3BD00002DE9F04723
:101720000446006849F20C650169E26821F4405101
:1017300011430161A168D4E90423E769C668114334
:10174000AE43B7F5004F41EA030141EA070141EA20
:101750000601C1604169A26921F4407141EA0201B8
:1017600041614A4940F480603FD188420CBFDFF8B4
:1017700020A1DFF820A1D047D4F804908046D047BC
:1017800067680646D047616819257F00684306FBF5
:1017900005F34900B3FBF7F3B0FBF1F06421B0FBB4
:1017A000F1F202FB1102181A4FEA490310443222E7
:1017B00002EBC0004FF4F872B0FBF1F002EA400017
:1017C00008FB05F2B2FBF3F2B2FBF1F100EB0116FC
:1017D000D047616868434900B0FBF1F7D0476168C2
:1017E00068430722032349003CE0884214BFDFF826
:1017F000A4A0DFF89CA0D047D4F804908046D0473E
:1018000067680646D04761681925BF00684306FB34
:1018100005F38900B3FBF7F3B0FBF1F06421B0FBF3
:10182000F1F202FB1102181A4FEA89031044322226
:1018300002EB001008FB05F2B0FBF1F0B2FBF3F293
:1018400000F0F000B2FBF1F100EB0116D047616847
:1018500068438900B0FBF1F7D047616868430F2205
:1018600004238900B0FBF1F0391A6427B0FBF7F5C7
:1018700005FB17000844216898403230B0FBF7F0B0
:10188000104030438860BDE8F08700BF001401407D
:10189000CD090008B90900082DE9F0411D46904620
:1018A0000F4604465E1C206801683940B94204BFF7
:1018B0000020BDE8F081002EF5D035B1FEF74EFFD7
:1018C000A0EB0800A842EED92068C16821F4D071CD
:1018D000C160416921F0010141612020002184F8AB
:1018E000390084F8381084F83A000320BDE8F0810C
:1018F0001B48FFF753BB00BFFEE7000010B5074CC5
:1019000000F00F03044AB0F1FF3F2344C8BF83181F
:101910000801187010BD00BF00E400E014ED00E005
:1019200089B20022FEF715BF89B2FEF70BBF000097
:10193000FEF722FFFFF79AFDFFF726FDFFF70CFDEC
:10194000FFF772FDFFF750FD04480122411C0448D7
:10195000FFF760FC0348FFF755FAFEE71000002090
:10196000B80000207800002002E008C8121F08C15B
:10197000002AFAD170477047002001E001C1121F10
:10198000002AFBD1704700000000000000000102A7
:101990000304060708090000000001020304000018
:1019A000C01900080000002010000000681900089D
:1019B000D019000810000020F00400007819000879
:1019C00001000000100000000024F40000000000EE
:040000050800018965
:00000001FF
