:020000040800F2
:10000000807301209D010008D35F00080B2F0008BA
:10001000D15F0008CD0C00085D76000800000000EC
:10002000000000000000000000000000DF62000887
:10003000A911000800000000DD620008ED62000860
:10004000B7010008B7010008B7010008B7010008B0
:10005000B7010008B7010008B7010008B7010008A0
:10006000B7010008B7010008B7010008B701000890
:10007000B7010008B7010008B7010008B701000880
:10008000B7010008B7010008B7010008B701000870
:10009000B7010008B7010008B7010008B701000860
:1000A000B7010008B7010008B7010008B701000850
:1000B000B7010008B7010008D9630008B7010008BC
:1000C000B7010008B7010008B7010008B701000830
:1000D000B701000831760008B7010008B701000831
:1000E000B7010008B7010008B7010008B701000810
:1000F000B7010008B7010008B7010008B701000800
:10010000B7010008B7010008B7010008B7010008EF
:10011000B7010008B70100080D640008B5640008C5
:10012000ED100008B7010008F9100008B701000839
:10013000B7010008B7010008B7010008B7010008BF
:10014000B7010008B7010008B7010008B7010008AF
:10015000B7010008B7010008B7010008B70100089F
:10016000B7010008B7010008B7010008B70100088F
:10017000B7010008B7010008B7010008000000003F
:10018000B7010008B7010008DFF80CD000F01AFC36
:1001900000480047253F010880730120064880473A
:1001A00006480047FEE7FEE7FEE7FEE7FEE7FEE75C
:1001B000FEE7FEE7FEE7FEE7856300088901000829
:1001C0002DE9F05F0546002092469B46884606468C
:1001D000814640241BE0284641464746224600F01F
:1001E0004CFA53465A46C01A914110D3114618464C
:1001F000224600F033FA2D1A67EB01084F462246DB
:100200000120002100F02AFA17EB00094E41201EC0
:10021000A4F10104DFDC484631462A464346BDE8E6
:10022000F09F40EA01039B0703D009E008C9121FB1
:1002300008C0042AFAD203E011F8013B00F8013BA0
:10024000521EF9D27047D2B201E000F8012B491ECC
:10025000FBD270470022F6E710B513460A46044663
:100260001946FFF7F0FF204610BD421E12F8013F6D
:10027000002BFBD111F8013B02F8013B002BF9D117
:100280007047CAB2401E10F8011F8A4202D00029EE
:10029000F9D100207047421C10F8011B0029FBD146
:1002A000801A704710B5002200E0521C835C8C5C01
:1002B000A34201D1002BF8D1D8B2E1B2401A10BD4F
:1002C000034611F8012B00F8012B002AF9D118463A
:1002D00070472DE9FE4F804681EA0300C00F0C46AF
:1002E000009021F0004123F00045B8EB0200A94145
:1002F00005D24046214690461C460B46024623F056
:100300000040104347D0270DC7F30A00C3F30A513A
:100310000290401A019040286BDAC3F3130040F4B6
:10032000801B0098924620B10023D2EB030A63EBB6
:100330000B0B01985946C0F14002504600F08EF96F
:1003400006460D4650465946019A00F0A6F910EBB4
:1003500008006141002487EA115284EAE7731A43D6
:1003600040D0009A62B3019A012A4FEA075215DC85
:10037000001B61EB02014FF0004202EA0752CDE997
:100380000042001C41F5801132462B4600F0DDF999
:1003900003B0BDE8F08F40462146F9E7001B61EB52
:1003A0000201001C41F5801300185B412018A2F5E2
:1003B000001747EB030140EAD570B6196D4111E013
:1003C0006D084FEA360645EAC0754FEA0752001B32
:1003D00061EB0201001C41F5801149084FEA300031
:1003E0000019514132462B4603B0BDE8F04F00F0F2
:1003F0009DB90098012240000023D0EB020263EB7C
:10040000E073009821464FEAE074B8EB000061EB1E
:100410000401E9E783F000435BE781F0004158E71E
:100420002DE9FE4F81EA030404F0004421F000416D
:1004300000944FF0000B23F0004350EA01045ED01B
:1004400052EA03045BD0C3F30A54C1F30A552C44A7
:10045000A4F2F3340194A0FB0254C1F3130141F45C
:100460008011C3F3130343F4801301FB024400FB28
:10047000034E840A970A44EA815447EA8357A4FB4F
:10048000076802958D0A05FB07854FEA932C04FB4C
:100490000C542705029D4FEA065847EA1637B5EB7C
:1004A00008056EEB070C870E920E47EA811742EAA9
:1004B0008312A7FB0201B6EB0B0164EB00042B0DCA
:1004C00043EA0C335E1844EB1C50DA465146E7FB16
:1004D0000201C5F313044FEA0B3343EA14534FEA06
:1004E0000432019C43EA0603A4F10C040294009C2C
:1004F000CDE900B400F029F903B0BDE8F08F002089
:100500000146F9E70EB5C10F80EAE0700844CA075A
:10051000002140F233438DE80E000A460B4600F0FE
:1005200014F903B000BD0EB540F233410291002131
:10053000CDE900110A460B4600F007F903B000BDF3
:10054000C1F30A5210B5C1F3130140F2FF3341F475
:1005500080119A4201DA002010BD40F233439A42E2
:10056000A2F2334203DC524200F087F810BD904003
:1005700010BD00F0004230F000400AD0C10D01F57E
:100580006071C0F3160042EA0151C20840071143EE
:10059000704700200146704730B5041E71F1000419
:1005A00004DB4FF00044404264EB0101141E73F180
:1005B000000405DB1C464FF00043524263EB04038A
:1005C0008B4208BF824230BD30B5041E71F1000479
:1005D00004DB4FF00044404264EB0101141E73F150
:1005E000000405DB1C464FF00043524263EB04035A
:1005F000994208BF904230BD01F0004330B421F071
:10060000004150EA010206D00A0DA2F56072C1F362
:100610001301002A02DC30BC00207047440F44EA7A
:10062000C104C100E01830BC00EBC25000F047B874
:1006300030B50B46014600202022012409E021FAB2
:1006400002F59D4205D303FA02F5491B04FA02F5AF
:100650002844151EA2F10102F1DC30BD202A04DB82
:10066000203A00FA02F1002070479140C2F12003C5
:1006700020FA03F3194390407047202A04DB203A04
:1006800021FA02F00021704721FA02F3D040C2F1B2
:1006900020029140084319467047202A06DBCB17F9
:1006A000203A41FA02F043EAE07306E041FA02F32D
:1006B000D040C2F1200291400843194670470029FA
:1006C000A8BF7047401C490008BF20F001007047D8
:1006D00010B4B0FA80FC00FA0CF050EA010404BF38
:1006E00010BC704749B1CCF1200421FA04F411FA8E
:1006F0000CF118BF012121430843A3EB0C01CB1DD2
:100700004FEA00614FEA102042BF002010BC704742
:1007100000EBC35010440029A4BF10BC7047401C1C
:10072000490008BF20F0010010BC704710B5141E2E
:1007300073F1000408DA401C41F1000192185B419A
:100740001A4301D120F0010010BD2DE9F04D924671
:100750009B4611B1B1FA81F202E0B0FA80F2203288
:100760009046FFF77BFF04460F4640EA0A0041EA45
:100770000B0153465A46084313D0114653EA010071
:1007800019D0C8F140025046FFF777FF05460E46E4
:10079000504659464246FFF761FF084305D0012005
:1007A00004E020463946BDE8F08D0020054346EAC6
:1007B000E0762C4337430A986305E40AA0EB08006F
:1007C0000022FD0A44EA47540A3002D500200146BF
:1007D000E9E7010510196941DDE90845001969419A
:1007E000BDE8F04DA2E72DE9F04D81EA030404F0E5
:1007F000004B21F0004514464FF0000A23F0004161
:1008000050EA050220D054EA01021DD0C5F30A5770
:100810000246C5F31303C1F31300C1F30A5640F4B3
:10082000801543F48013A7EB0608101BD64608F288
:10083000FD3873EB050002D308F1010801E09218BE
:100840005B41B8F1000F03DA00200146BDE8F08DEE
:1008500000204FF48011064684460EE0171B73EB10
:10086000050705D3121B63EB050306434CEA010C95
:1008700049084FEA300092185B4150EA0107EDD178
:1008800052EA030012D082EA040083EA0501084319
:1008900005D0101BAB4106D20122002306E0002246
:1008A0004FF0004302E06FF0010253101AEB060014
:1008B0004CEB085110EB0A0041EB0B01BDE8F04D89
:1008C000FFF734BF70B521F0004303430CD0C1F3F0
:1008D0000A550024D5EB040564EB0403D617AD1AC2
:1008E000B34102DB0020014670BD201841EB0251EC
:1008F00070BD2DE9F04D00231A461B1A8A4103DB17
:1009000000200146BDE8F08DC1F30A52C1F3130186
:1009100041F480154FF0000BD10702D100186D4152
:10092000521E0027044640F2FF11384601EB620ACE
:100930003E468046024600204FF48011FFF79DFEA0
:10094000C2197141BB1846EB0100B4EB030C75EB07
:10095000000C04D3E41A65EB000517460E46241973
:1009600008F101006D4180463428E3DDF91946EBBA
:100970000600091BA84103D24FF0FF32134601E0E5
:10098000002213461BEB070046EB0A51BDE8F04D71
:10099000FFF7CCBEC1F30A52C1F3130140F2FF339B
:1009A00041F480119A4202DA00200146704740F279
:1009B00033439A42A2F2334202DC5242FFF75DBE59
:1009C000FFF74CBE064C074D06E0E06840F001031F
:1009D00094E8070098471034AC42F6D3FFF7D8FBF1
:1009E000BCD00108DCD0010870B58C1810F8015B90
:1009F00015F0070301D110F8013B2A1106D110F8B8
:100A0000012B03E010F8016B01F8016B5B1EF9D1BB
:100A10002B0705D40023521E0DD401F8013BFAE741
:100A200010F8013BCB1A921C03E013F8015B01F8AC
:100A3000015B521EF9D5A142D8D3002070BD10B57C
:100A40000146806B026C12F0500F05D0026CD2068A
:100A500026D501F065F810BD016C41F40071016408
:100A600001688A6812F0405F17D1027EAAB9CA6A8B
:100A700012F4700F02D08A6852050ED44A6822F030
:100A800020024A60016C21F480710164016CC90488
:100A900003D4016C41F00101016401F03FF810BD85
:100AA000806BC26CBDE810400846104710B5806BE3
:100AB00040210164416C41F00401416401F030F8CF
:100AC00010BD10B5806B01F02AF810BD464910B575
:100AD0004A6822F440324A604A6843681A434A60CE
:100AE00001684A6822F480724A6001684A680369B2
:100AF00042EA03224A6001684A6822F040724A6072
:100B000001684A6883681A434A6001688A6822F467
:100B100000628A6001688A68C3681A438A60816AD1
:100B20006FF07062D14201688A6822F070628A6058
:100B300001688A680CD0836A1A438A6001688A68EF
:100B400022F040528A6001688A68C36A1A4301E051
:100B500022F040528A6001688A6822F002028A60AC
:100B600001688A68037E42EA43028A6090F8201096
:100B7000002901684A680FD042F400624A600168A7
:100B80004A6822F460424A6001684A68174C436A26
:100B900004EB43331A4301E022F400624A60016827
:100BA000CA6A22F47002CA620168CA6A838B104C56
:100BB00004EB03531A43CA6201688A6822F4007284
:100BC0008A6001688A6890F8303042EA43228A607D
:100BD00001688A6822F480628A6001688A684069D4
:100BE00042EA8020886010BD0023014000E0FFFF42
:100BF0000000F0FF02F0AAB92DE9F0410D460146D0
:100C0000002004464E1908E00702301B401E80B247
:100C100000F007F8641C3844E4B2AC42F4D3BDE8F9
:100C2000F08110B5044602F039FA200AA02101EB48
:100C30004000C0B202F002FA02F072FAE0B202F032
:100C4000FDF902F06DFA02F029FAA12002F0F6F99E
:100C500002F066FA002002F0BDF9044602F03EFA06
:100C6000204610BD2DE9F04116460D4607460024EA
:100C700009E0E00025FA00F0C1B2381980B200F0B6
:100C800006F8641CE4B2B442F3D3BDE8F08170B559
:100C90000D46044602F002FA200AA02101EB4000B2
:100CA000C0B202F0CBF902F03BFAE0B202F0C6F9B2
:100CB00002F036FA284602F0C1F902F031FA02F0E9
:100CC0000DFABDE870400A2008F0F6B9FEE7000012
:100CD00070B50F4C0025C4F880520E48016821F40D
:100CE00040010160016841F480010160022004F5C7
:100CF000207408F0EFF90848C0F8AC52022008F060
:100D0000E9F901202060022008F0E4F9256070BDB7
:100D1000008040420014024000804242154810B555
:100D2000016886B041F002010160016801F0020132
:100D30000591016841F0200101600068012400F084
:100D40002000009405900320CDE9024001946946FB
:100D5000094801F0B3F9E00200906946074801F044
:100D6000ADF90748C0F8AC420648C0F8804206B06A
:100D700010BD000030380240000402400014024060
:100D8000008042420080404270B50F4C0025C4F8FC
:100D900080520E48016821F440010160016841F46D
:100DA00080010160022004F5207408F093F90848DE
:100DB0000126C0F8AC62022008F08CF926600220FF
:100DC00008F088F9256070BD0080404200140240A0
:100DD000008042422DE9F04782461848002401680D
:100DE00021F440010160016801601E2008F072F9E1
:100DF0000025134EDFF84C902F464FF0010800BF3E
:100E0000C6F88072022008F065F9C6F88082600694
:100E1000040ED9F82C0208B1641CE4B26D1CEDB2CA
:100E2000082DEDD3BAF1000F04D0FFF751FF204693
:100E3000BDE8F087FFF7A8FFF9E7000000140240C3
:100E400000804042008042422DE9F04706461548A6
:100E5000016821F440010160016841F480010160F2
:100E6000114D0027C5F88072022008F033F9DFF831
:100E70003C8000244FF00109F109C8F8AC1270065B
:100E8000060EC5F88092022008F024F9C5F8807299
:100E9000022008F01FF9641CE4B2082CECD3BDE872
:100EA000F08700000014024000804042008042426F
:100EB00070B50F48016821F440010160016841F4F8
:100EC000800101600B4C0120C4F8AC020A4DC5F84A
:100ED00080021E2004F52B7405F5207508F0FAF841
:100EE00000262660022008F0F5F82E6070BD000094
:100EF00000140240008042420080404270B50D481C
:100F0000016821F440010160016841F48001016041
:100F100009480125C0F880521E2008F0DBF8074C74
:100F20000020C4F8AC02022004F52B7408F0D2F8BB
:100F3000256070BD001402400080404200804242A3
:100F400070B511480024016821F440010160016876
:100F500001600E4E0120C6F8AC020D4DC5F88002AE
:100F600007E0641CE4B2FA2C03D9FFF7C7FF0120A5
:100F700070BD022008F0AEF8D6F82C020028F0D19F
:100F8000C5F8800270BD000000140240008042429B
:100F90000080404270B504462DED028BB0EE408AD1
:100FA0000568284602F006F9002828461CD000F003
:100FB00027FBD4ED010A284630EEC00A84ED010A71
:100FC000B0EE480A00F006F994ED010A70EE080A46
:100FD000C4ED010A206890ED000AB8EEC01A80EE58
:100FE000810ABDEC028B70BDB0EE480A00F0F2F849
:100FF00094ED010A30EE080A84ED010ABFEE000A02
:10100000EFE770B504462DED028BB0EE408A05681F
:10101000284602F0CFF8002828462AD000F0F0FA3F
:10102000D4ED010A284640EE400AB0EE480AC4ED6D
:10103000010A00F0CFF894ED010A08EE080A84EDE9
:10104000010A2068D0ED000AB8EEE01AC0EE010AED
:1010500010EE900AFFF78DFA41EC100B07F078F9CB
:1010600051EC100BFFF7C8FA00EE100ABDEC028B32
:1010700070BDB0EE480A00F0ADF894ED010A08EE3C
:10108000080A84ED010ABFEE000AEFE770B50546D5
:10109000052802DA0BA006F0E3FA142013F04CF84E
:1010A00004000AD0A80013F047F8206128B12046B8
:1010B000256004F087FF204670BD08A006F0D0FA36
:1010C000F9E7000051756575652073697A652069D7
:1010D0007320746F6F20736D616C6C004F7574209A
:1010E0006F6620737061636521212100014800F063
:1010F0005DBE000074290020014800F057BE0000CA
:10110000D429002001681823CAB2103AB2FBF3F2C6
:10111000054B6FF30901032A9B5CC36500D9091DC8
:1011200081650846704700005058010810B5014617
:1011300000208B698A6A4FF0C07453B1B3F5005F29
:1011400015D072B1012A0CD0022A0AD0032A09D183
:1011500004E01AB1012A06D0022A03D1C96AC901E2
:1011600000D5012010BDC96AA142FAD010BD002AE5
:10117000F7D0012AF2D0022AF3D0032AF3D010BD0F
:1011800030B50468256825F480252560046863600F
:101190008368402B036803D099600068C26030BD4B
:1011A0009A600068C16030BD7047000010B5044609
:1011B000C06838B1401EE0602146606805F090F8D4
:1011C000606010BDBDE81040014806F049BA00005B
:1011D000F015000810B504462DED028BB0EE408AE4
:1011E0000168C068814206D1BDEC028B09A0BDE850
:1011F000104006F035BA401CE0602146A06805F0BA
:101200006FF8A060216901EB800080ED008ABDECE1
:10121000028B10BD46756C6C20717565756500009C
:101220000248C169491CC1617047000000000020EC
:1012300070B5B3F5804F05D06FF0704140F82210C3
:10124000002070BD50F82240084B8E891C40D1E927
:10125000003543EA05138D6889692D0245EA064584
:101260002B430B43234340F82230E9E70000F0CF43
:10127000F0B50C6850F82430114A1340D1E901252B
:10128000D1E903672A433E4332434E6932438E69B4
:101290003243CE6932430E6A32434E6A32438E6A1B
:1012A0003243CE6A3243CE6B096B32430A431A4350
:1012B000082D01D142F0400240F824200020F0BD6A
:1012C0008000F0FF30B500EB820250688D8900F09D
:1012D0004043D1E9000440EA04108C68240244EA47
:1012E000054420430C8A074D05EB045420430C7D34
:1012F0006D0105EB0464896920430843184350607D
:10130000002030BD0000F0FF70B5324888B00024E6
:10131000016841F002010160016801F002010691DB
:10132000016841F004010160006801A900F00400B7
:1013300006900220012581E8310003200490264810
:1013400000F0BCFE6803CDE9010501A9234800F0C7
:10135000B5FEFFF7E3FC224EC6F8B442142006F5B2
:101360002D7607F0A9FE3560322007F0A5FE8DF836
:10137000004001226946002000F006F9012269467A
:10138000A42000F001F916208DF800000122694622
:10139000802000F0F9F80C208DF800000122694649
:1013A000882000F0F1F802226946A12000F020F820
:1013B0009DF80000302803D19DF80100032802D0D9
:1013C000012008B070BD43F2030106A006F048F901
:1013D0000020F6E7303802400004024000080240D6
:1013E000000041424354502049443A25780D0A00F8
:1013F0002DE9F04115460E460446FFF759FD7020D1
:10140000FFF722FDFFF79CFDE0B2FFF71DFDFFF7A0
:1014100097FDFFF74DFD7120FFF716FDFFF790FDDB
:1014200000246F1E09E0BC4201D0012000E0002032
:10143000FFF7D0FC3055641CE4B2AC42F3D3BDE8F6
:10144000F041FFF75BBD00002DE9F1474B4E002452
:101450004FF00A0A307881B0401CC0B2B0FBFAF2FB
:101460000AFB1201DFF818812746307009B10A28FB
:1014700067D2012201A90220FFF7BAFF9DF80400FC
:1014800001075ED000F00F0106295AD2FF208840E4
:10149000C04340F0C000454688F8200001274FF0C7
:1014A000000900BF95F8200007FA04F108423BD07C
:1014B00034480422694630F81400FFF799FF95F884
:1014C00030009DF80010C0079DF8010001F00F01E9
:1014D0000ED000EB012105EB4400C1829DF80220F3
:1014E0009DF8031002F00F0201EB022181810FE051
:1014F00000EB0120C0F5F07105EB440081819DF8FF
:1015000002209DF8031002F00F0201EB0221C182BC
:101510009DF800000821B1EB101F05D005EB440039
:10152000A0F81690A0F80C90641CE4B2052CB9D376
:10153000A889012718B9E88A08B98DF8049086F8B7
:1015400000909DF80400C00610D198F82000010614
:1015500002D520F0800007E04FF6FF71A8F80C10CC
:10156000A8F8161000F0E00088F820003078F02885
:1015700001D986F800A03846BDE8FC87700000203D
:1015800084000020705801082DE9F04116460F46EE
:1015900004460025FFF78CFC7020FFF755FCFFF791
:1015A000CFFCE0B2FFF750FCFFF7CAFC002408E0D4
:1015B000385DFFF749FCFFF7C3FC050003D1641C4D
:1015C000E4B2B442F4D3FFF799FC2846BDE8F081B9
:1015D00010B5C16831B10169406801EB800090ED40
:1015E000000A10BD02A006F03BF89FED040A10BDF2
:1015F000456D707479207175657565000000000097
:1016000010B504462DED028BFFF7E2FFB0EE408AE5
:101610002046FFF7CBFDB0EE480ABDEC028B10BDB3
:101620002DE9F0433C4889B00024016841F00201F3
:101630000160016801F002010791016841F00401B5
:1016400001600068022600F00400079001AA01254D
:1016500003270096DFF8C49082E8B0006946484648
:1016600000F02CFD6803CDE9000569462C4800F028
:1016700025FDFFF753FBDFF8AC80C8F8B4420A2021
:1016800007F01AFDC8F8B4520A2007F015FD0397B9
:101690000096CDE901546946484600F00FFD6420EC
:1016A00007F00AFD042205A948F2401000F050F8A6
:1016B0008DF8184005A91CA005F0D2FF1DA105A8B2
:1016C000FEF7F0FD18B1012009B0BDE8F08348F243
:1016D00040058DF81460012205A9284600F04EF956
:1016E000012205A9E81D00F033F89DF814106029C7
:1016F00005D212A005F0B4FF012000F017F90A206E
:1017000007F0DAFC8DF81440012205A9284600F004
:1017100035F90020D8E700003038024000040240CC
:1017200000080240000041424354502049443A25F9
:10173000730D0A00393134370000000044656661DA
:10174000756C74205665723A25640D0A000000001D
:101750002DE9F04115460E460446FFF7A9FB282067
:10176000FFF772FBFFF7ECFB200AFFF76DFBFFF7BB
:10177000E7FBE0B2FFF768FBFFF7E2FBFFF798FB40
:101780002920FFF761FBFFF7DBFB00246F1E09E058
:10179000BC4201D0012000E00020FFF71BFB3055C8
:1017A000641CE4B2AC42F3D3BDE8F041FFF7A6BB42
:1017B0002DE9F147594E00244FF00A0A307885B0E0
:1017C000401CC0B2B0FBFAF20AFB1201544DA04615
:1017D000307009B10A2878D248F24E19012205A9C1
:1017E0004846FFF7B5FF9DF814004FF000070106CB
:1017F0000AD500F00F00062806D28DF800700122ED
:101800006946484600F0BAF89DF8140001075CD01C
:1018100000F00F01062958D2FF2088408DF8000003
:10182000C04395F8209040F0C00085F82000A889BA
:10183000A882E88AE8834FF0010800BF95F82010DD
:1018400008FA04F0014225D03648042202A930F8F3
:101850001400FFF77DFF95F830009DF80910C007D0
:101860009DF8080000EB012105EB44000AD0C1827D
:101870009DF80A109DF80B2001EB0221C1F548717B
:10188000818107E081819DF80A109DF80B2001EB12
:101890000221C182641CE4B2052CCFD32249AA895B
:1018A0004FF001080B8828469A4203D8C28A49881B
:1018B0008A4209D99DF8141001F00F0101290BD9B2
:1018C000C1898181018BE98237709DF8140000F095
:1018D0008F0080280AD018E0818A8181C18BC18263
:1018E00080218DF8141085F82090EEE795F82000FF
:1018F000010602D520F0800005E04FF6FF71A981B6
:10190000E98200F0E00085F820003078F02801D965
:1019100086F800A006B04046BDE8F08771000020C0
:101920008400002032590108042B002008B5002152
:101930008DF800108DF801000F4800BF435C9DF842
:101940000020491C1A44C9B28DF80020B829F5D3EB
:10195000D0B2C043401C8DF80000B822064948F2BE
:10196000470000F00BF80222694648F2FF0000F041
:1019700005F8002008BD00007A5801082DE9F04163
:1019800016460F4604460025FFF792FA2820FFF777
:101990005BFAFFF7D5FA200AFFF756FAFFF7D0FAFD
:1019A000E0B2FFF751FAFFF7CBFA002408E0385D08
:1019B000FFF74AFAFFF7C4FA050003D1641CE4B24A
:1019C000B442F4D3FFF79AFA2846BDE8F08100004C
:1019D00078B50024009490F83C20012A19D0012207
:1019E00080F83C200A6807230568092A13D9EE68A5
:1019F0000A3A02EB420293409E43EE600B788A68FB
:101A00000A3B03EB43039A400368DD682A43DA602C
:101A100010E0022078BD2E6902EB420293409E4303
:101A20002E610B788A6803EB43039A4003681D69B3
:101A30002A431A614A681F23072A13D205686E6B6E
:101A4000521E02EB820293409E436E630B790A881A
:101A50005B1E92B203EB83039A4003685D6B2A43DB
:101A60005A6327E005680D2A12D22E6BD21F02EBB3
:101A7000820293409E432E630B790A88DB1F92B249
:101A800003EB83039A4003681D6B2A431A6311E03A
:101A9000EE6A0D3A02EB820293409E43EE620B79AE
:101AA0000A880D3B92B203EB83039A400368DD6A18
:101AB0002A43DA62164B0568144A9D4206D10D6826
:101AC000122D03D1556845F48005556005689D4287
:101AD00018D10B68102B01D0112B13D1536843F48C
:101AE00000035360096810290CD10A490A4A0968A1
:101AF000B1FBF2F101EB8101490000E0491E0091C8
:101B00000029FBD180F83C40002078BD0023014033
:101B1000002001406800002040420F0070477047DD
:101B2000704770B504004FF0000503D0206C00260C
:101B300010B107E0012070BD204600F01DF866647A
:101B400084F83C60206CC00610D4206C20F48850CF
:101B500040F0020020642046FEF7B8FF6664206C67
:101B600020F0020040F00100206400E0012584F82C
:101B70003C60284670BD00002DE9F04786B006465F
:101B800014216846FEF766FB2E482D4A3168002571
:101B900007154FF480584FF480494FF4807A9142F2
:101BA00019D1016841F4807101600068274C00F48C
:101BB000807005902448C4E9000504F10C01A5607B
:101BC00081E8A00725622046656232E0B463A6631F
:101BD00006B0BDE8F0871E4A9142F9D1016841F490
:101BE00000710160006800F4007005901548143819
:101BF000016841F0010101600068694600F00100E0
:101C00000590112000900320CDE90105114800F056
:101C100055FA0E4C0C486034303020604FF00070A4
:101C2000C4E9010504F10C01204681E8A007256202
:101C3000656200F08BF90028C8D0FFF7F1FAC5E71C
:101C40000020014044380240106402407429002002
:101C50000021014000000240F8B50E460021044674
:101C6000009190F83C00012807D0012084F83C0046
:101C700020688368DB0702D011E00220F8BD83688A
:101C800043F0010383603748374B0068B0FBF3F043
:101C900000EB400000E0401E00900028FBD12068CF
:101CA0008368DB075CD0236C40F20165AB4343F4EF
:101CB000807323644068400505D5206C20F40050F3
:101CC00040F480502064206CC00404D5606C20F087
:101CD0000600606400E0616484F83C10A16B244855
:101CE000224DC863A16B23480864A16B2248C864D5
:101CF00021686FF0220008602068416841F080612F
:101D000041602068816841F48071816021681346D8
:101D100032464C31A06B00F083F968681749C00661
:101D2000206806D088421BD1816811F0405F13D033
:101D300016E08842F8D0124A904203D1D1F8042329
:101D4000D206F1D00F4A90420AD1D1F8041301F023
:101D50001F011029E8D303E0816841F080418160D0
:101D60000020F8BD6800002040420F000023014021
:101D70003F0A0008C30A0008AD0A0008002001401D
:101D8000002101400022014090F83510022903D0C3
:101D90008021416501207047052180F835100068D9
:101DA000016821F001010160002070472DE9F8432E
:101DB00004464FF00009CDF8009063484FF41651E7
:101DC000A56D0068B0FBF1F72E6894F85C10082050
:101DD00000FA01F131420FD021680A6852070BD591
:101DE0000A6822F004020A6094F85C108840A86037
:101DF000606D40F00100606594F85C104FF00108E0
:101E000008FA01F0304208D021684969090604D572
:101E1000A860606D40F00200606594F85C100420DA
:101E20008840304208D021680968890704D5A86035
:101E3000606D40F00400606594F85C1010208840EC
:101E4000304218D021680968090714D5A8602068B5
:101E50000168490304D50068000308D5A16C07E0B8
:101E60000168C90503D4016821F008010160216CF3
:101E700009B12046884794F85C1020208840304201
:101E800031D021680968C9062DD5A86094F83500BD
:101E900005282068016806D0490347D5006800037B
:101EA0001DD4616C1CE021F01601016020684169BD
:101EB00021F080014161206C08B9A06C20B120683C
:101EC000016821F00801016094F85C103F2088400F
:101ED000A86084F8349084F83580216D1FE0E16BB0
:101EE00009B120468847606D00282BD0606DC0077F
:101EF00014D0052084F835002068016821F0010124
:101F000001600098401C0090B84203D82068006827
:101F1000C007F6D184F8349084F83580E16C00294C
:101F200010D001B02046BDE8F04308470168C9055C
:101F3000D5D4016821F01001016084F8349084F850
:101F40003580CCE7BDE8F883680000202DE9F0413A
:101F5000044600F08BF906465CB1002584F8345045
:101F6000022084F835002068016821F00101016039
:101F70000DE00120BDE8F08100F078F9801B052814
:101F800005D920206065032084F83500F2E7206839
:101F90000068C007F0D12268116820480140D4E9E8
:101FA00001031843D4E903363343184363691843E4
:101FB000A3691843E3691843236A18430843616A15
:101FC000042903D1D4E90B13194308431060206896
:101FD0004069666A20F0070130460E430127042855
:101FE0000CD1A06A0643E06A40B12046FFF79EF894
:101FF00020B14020606584F83570BAE720684661FA
:102000002046FFF77FF894F85C203F2191408160E3
:10201000656584F835700020ACE700003F8010F063
:102020002DE9F0410446866D90F834000025012822
:102030000DD0012084F8340094F835700020012F71
:1020400007D084F8340002252846BDE8F08102203C
:10205000FBE7022784F8357060652046FFF790F8AB
:1020600094F85C103F208840B0602068016841F01F
:10207000160101602068416941F080014161206CD6
:1020800020B12068016841F0080101602068016802
:1020900041F001010160D7E770B5044600F0E6F8B1
:1020A0000546601C02D004480078044400F0DEF8C5
:1020B000401BA042FAD370BD5C0000202DE9F84F10
:1020C000DFF87CB100224FF001084FF0030A4FF017
:1020D0000F090BF1040E00BF0B6808FA02F423404D
:1020E000A3426ED14D68022D01D0122D0ED1D5081C
:1020F00000EB850CDCF820505607F70E09FA07F6BE
:10210000B5430E69BE402E43CCF8206006685500EA
:102110000F790AFA05FC07F0030726EA0C06AF4020
:10212000374307604E68012E05D0022E03D0112ED2
:1021300001D0122E0ED18668CF6826EA0C06AF4079
:10214000374387604668A6430C79C4F30014944073
:1021500034434460C6688C6826EA0C06AC403443BD
:10216000C4604C68E40065D5364C256845F480456C
:102170002560246822F0030504F480440094324C66
:102180002E19D6F8084895072F0F09FA07F5AC4322
:102190002E4DA84201D1002524E02D4DA84201D1A9
:1021A00001251FE02B4DA84201D102251AE02A4D3E
:1021B000A84201D1032515E0284DA84202D10425EB
:1021C00010E037E0264DA84201D105250AE0254D53
:1021D000A84201D1062505E0234DA84201D10725DB
:1021E00000E00825BD402543C6F80858DBF800404C
:1021F0005D464E689C43F60300D51C432C60DEF818
:10220000004075464E689C43B60300D51C432C60C5
:102210000B4D08352C684E689C43F60200D51C43D4
:102220002C60074D0C352C684E689C43B60200D5D7
:102230001C432C60521C102AFFF44EAFBDE8F88FEF
:10224000003C0140443802400030014000000240A0
:102250000004024000080240000C0240001002404E
:102260000014024000180240001C0240014880682F
:10227000704700005C000020024881680278114429
:10228000816070475C0000200B4810B5016841F484
:1022900000710160016841F480610160016841F4EE
:1022A00080710160032000F06FF8002000F006F854
:1022B00000F024F8002010BD003C024070B50D4D28
:1022C00004464FF47A712878B1FBF0F00A490968A6
:1022D000B1FBF0F000F076FB48B9102C07D20022D9
:1022E0002146501E00F030F800206C6070BD0120C7
:1022F00070BD00005C000020680000200A4808B59E
:10230000016841F480410160006800F48040009061
:102310000548001F016841F080510160006800F02D
:102320008050009008BD000044380240002809DBBE
:1023300000F01F02012191404009800000F1E020DF
:10234000C0F8001170470000F0B40E4B1B680C463B
:10235000C3F30223C3F10705042D00D90425191D79
:10236000072901D2002300E0DB1E012606FA05F151
:10237000491E214099409E40761E16403143F0BCD4
:1023800005F0AEB90CED00E0064900F00702086860
:102390004FF6FF03184040EA0220034A104308604A
:1023A000704700000CED00E00000FA052DE9F04751
:1023B0000E46050065D0DFF81481D8F80000F7B2AA
:1023C00000F00F00B04207D288F80070D8F8000083
:1023D00000F00F00B04254D128683D4C810712D55F
:1023E000400703D5206840F4E050206028780007BB
:1023F00003D5206840F4604020602068A96820F080
:10240000F000084320602878C0072DD03049686864
:102410000839012812D0022813D0032811D00968E6
:10242000890700292DDA216821F003010143216089
:10243000FFF71CFF814641F2883A0EE009688903E4
:10244000EFE709688901ECE7FFF710FFA0EB09014E
:10245000514502D90320BDE8F0872068696800F083
:102460000C00B0EB810FEFD1D8F80010404601F01E
:102470000F01B14207D90770006800F00F00B042A9
:1024800001D00120E7E72878400705D52068E968F2
:1024900020F4E050084320602878000706D5206823
:1024A000296920F4604040EAC100206000F036F85D
:1024B0002168084AC1F30311515CC840064908600D
:1024C0000020FFF7FBFE0020C5E70000003C0240B3
:1024D000083802405858010868000020044805499F
:1024E00000680968044AC1F38221515CC840704702
:1024F000680000200838024068580108044805496F
:1025000000680968044AC1F34231515CC840704711
:10251000680000200838024068580108154810B5C6
:10252000006810F00C02144813D01449042A0FD08C
:10253000082A0ED10F4C241F2268236802F03F02A4
:102540005B0207D52068C0F38810A0FB010106E0FC
:10255000084610BD2168C1F38811A1FB00010023CA
:10256000FDF72EFE2168C1F30141491C4900B0FB73
:10257000F1F010BD083802400024F40040787D01DD
:102580002DE9F84F050076D02878DFF8F8B2BE4C78
:10259000C00749D0DBF800105846C1F3810101297A
:1025A00008D00068C0F3810002280AD1201D00680D
:1025B000400206D52068800336D568680028E2D03E
:1025C00032E06868B0F5803F10D0B0F5A02F2068E9
:1025D00010D020F480302060206820F4802020601B
:1025E0006868A0B1FFF742FE06460CE0206840F4A0
:1025F0008030F4E740F480202060F7E7FFF736FEF4
:10260000801B642873D820688003F7D50CE0FFF79F
:102610002DFE064605E000BFFFF728FE801B64285C
:10262000F0D820688003F7D42878DFF8608280072C
:102630004FF000093ED5DBF80010584611F00C0FA2
:1026400009D00068C0F3810002280BD18D48001F1B
:102650000068400206D42068800715D5E868012884
:1026600009D111E0E868B8B10120C8F80000FFF70F
:10267000FDFD064605E002E1FFF7F8FD801B02289C
:10268000C0D820688007F7D52068296920F0F800B5
:1026900040EAC10020600DE0C8F80090FFF7E6FDB9
:1026A000064604E0FFF7E2FD801B02281FD82068E1
:1026B0008007F7D42878000722D5724E74486969DC
:1026C0006C3671B101210160FFF7D0FD074604E0CF
:1026D000FFF7CCFDC01B022809D830688007F7D56A
:1026E0000EE0C0F80090FFF7C1FD074605E083E06B
:1026F000FFF7BCFDC01B02287ED830688007F7D4E6
:102700002878400768D5DFF87CA100270AF1380A4D
:10271000DAF80000C0000BD4DAF8001041F0805164
:10272000CAF80010DAF80000012700F0805000908D
:10273000584E3068C00510D4306840F48070306066
:10274000FFF794FD009005E0FFF790FD0099401A17
:10275000022851D83068C005F6D54A4EA8686836B8
:1027600001280FD00528306810D020F0010030601B
:10277000306820F004003060A868B8B1FFF776FD3B
:1027800000900FE0306840F00100F4E740F00400F2
:102790003060F7E7FFF76AFD0099411A41F288308F
:1027A000814264D830688007F4D50EE0FFF75EFD03
:1027B000009007E0FFF75AFD0099411A41F2883076
:1027C000814254D830688007F4D42FB1DAF8001071
:1027D00021F08051CAF80010A869C0B3DBF80010DE
:1027E000C1F3810102294AD00228484607D0C8F81F
:1027F0006000FFF73BFD00E039E005463AE0474660
:10280000C8F86000FFF732FD064604E0FFF72EFD32
:10281000801B02282BD820688001F7D4D5E9070156
:102820000843A96A1C4A490802EB01416A6A41EA65
:102830008211084395F82C1040EA01611148001FED
:10284000016001203866FFF711FD054605E014E040
:10285000FFF70CFD401B022809D820688001F7D53E
:102860000BE000BFFFF702FD401B022802D9032046
:10287000BDE8F88F20688001F4D40020F8E701203B
:10288000F6E70000083802400038024000004742E6
:10289000800E4742007000400000FFFF70B51546F3
:1028A0000E46040003D094F8490010B107E001205F
:1028B00070BD002084F84800204600F01BF804F1A9
:1028C00008012068FEF7D4FC3146A2682068FEF7B4
:1028D000F9FCD4E901022946236BFEF7A9FCA168A3
:1028E000206850F8212042F0010240F82120002009
:1028F00070BD0000284810B5016886B041F00101A4
:102900000160006800F00100059023480838016864
:1029100041F008010160016801F0080105910168BA
:1029200041F010010160016801F01001059101689A
:1029300041F020010160016801F02001059101686A
:1029400041F0400101600068694600F040000590D8
:102950004CF233700090022001900120029003207D
:1029600003900C2004900D48FFF7A8FB4FF68070F1
:10297000009069460A48FFF7A1FB4FF4805469466E
:1029800008480094FFF79AFB694607480094FFF750
:1029900095FB06B010BD000038380240000C024024
:1029A0000010024000140240001802404FF0E021E5
:1029B0000428086903D020F004000861704740F043
:1029C0000400FAE710B5401EB0F1807F01D301206A
:1029D00010BD4FF0E02460610F21601704F080FE0D
:1029E0000020A06107202061002010BD70477047C3
:1029F00070B590F83C20012A19D0012400F83C4F12
:102A00000222427050F83C3C5A689D6822F07006E1
:102A10000A684968324325F0800529435A6050F816
:102A20003C2C9160447000210170084670BD02206A
:102A300070BD10B5040003D094F83D0010B107E05C
:102A4000012010BD002084F83C00204600F00CF866
:102A5000022084F83D00211D206803F039FD01208B
:102A600084F83D00002010BD08B5154A01681548DE
:102A700091420ED1016841F010010160006800220E
:102A800000F01000009011463620FFF75DFC362064
:102A900010E00D4A914211D1016841F0200101601E
:102AA0000068002200F02000009011463720FFF758
:102AB0004BFC3720BDE80840FFF738BC08BD0000DC
:102AC0000010004040380240001400400168CA680D
:102AD00042F00102CA600068816801F0070106291E
:102AE00003D0016841F00101016000207047704788
:102AF00070B50446006801694FF00005C9438907B5
:102B000015D4C168C943890711D4E91E01610120A8
:102B10002077206880698007204602D0FFF7E7FF12
:102B200004E000F098F8204600F096F82577206839
:102B30000169C943490717D4C168C943490713D478
:102B40006FF004010161022020772068806910F491
:102B5000407F204602D0FFF7CAFF04E000F07BF878
:102B6000204600F079F8257720680169C9430907F4
:102B700016D4C168C943090712D46FF00801016176
:102B8000042020772068C0698007204602D0FFF724
:102B9000AEFF04E000F05FF8204600F05DF8257716
:102BA00020680169C943C90617D4C168C943C90669
:102BB00013D46FF010010161082020772068C069EC
:102BC00010F4407F204602D0FFF791FF04E000F0B0
:102BD00042F8204600F040F8257720680169C94393
:102BE000C90708D1C168C943C90704D1891E016159
:102BF000204600F032F820680169C943090609D46B
:102C0000C168C943090605D46FF0800101612046FF
:102C1000FFF7ECFE20680169C943490609D4C16881
:102C2000C943490605D46FF040010161204600F018
:102C300015F820680169C94389060BD4C168C943E6
:102C4000890607D46FF0200101612046BDE870407D
:102C5000FFF7CDBE70BD7047704770477047704733
:102C600010F8391F407808437047000070B50268BB
:102C700004461068D168536910F00F0F50D003F06C
:102C8000010501F4907635435DD0C20705D0CA0531
:102C900003D5E26B42F00102E263420705D5DA0791
:102CA00003D0E26B42F00202E263820705D5DA0745
:102CB00003D0E26B42F00402E263020705D5DA07B3
:102CC00003D0E26B42F00802E263E26B002A33D0E9
:102CD000800604D5880602D5204604F0D5FA20687F
:102CE0004069E16BC0F38010090700D428B3204687
:102CF00004F0BCFA2068416949061AD5416921F0FF
:102D000040014161606BA0B11B490165606BFFF739
:102D10003BF8002810D0606B016DBDE8704008479B
:102D2000830610D58B060ED52046BDE8704004F012
:102D3000ABBA2046FFF793FF70BD2046FFF78FFF29
:102D40000020E06370BD030606D50B0604D52046BF
:102D5000BDE8704004F03ABC4006F3D54806F1D512
:102D6000D168204621F04001D160202184F839103B
:102D700000F0CAF870BD00005D72000870B5040074
:102D800004D094F83900002510B106E0012070BD90
:102D900084F83850204600F023F8242084F83900C5
:102DA0002068C16821F40051C160204604F0B8FADF
:102DB0002068016921F4904101612068416921F096
:102DC0002A0141612068C16841F40051C160E56396
:102DD000202084F8390084F83A00002070BD0000FB
:102DE00010B500681A4986B088422FD11948016889
:102DF00041F001010160006800F0010005901548F4
:102E00001430016841F0100101600068012100F0F8
:102E1000100005904FF4007000900220CDE90101F0
:102E2000039007200C4C049069462046FFF746F9B2
:102E30002015009069462046FFF740F92520FFF74E
:102E400075FA032211462520FFF77EFA06B010BD61
:102E500000100140303802400000024090F83A3043
:102E6000202B22D1F9B1F2B190F83830012B1CD0CF
:102E700081628285C2850021C163222280F83A20C6
:102E800080F838100168CA6842F48072CA6001682C
:102E90004A6942F001024A610068C16841F02001BC
:102EA000C160002070470120704702207047000079
:102EB00030B50068114988420CD1114841880A0494
:102EC00008D402464C0412784FF0000306D50A2AB3
:102ED00001D0438030BD41F400410DE00D2A09D0FE
:102EE000C1F30D04074D491C89B22A554180C729F9
:102EF000EFD830BD41F48041418030BD0010014029
:102F0000B8000020142B00207047FEE770B50D4C70
:102F10000025C4F8A0520C48016821F4402101604A
:102F2000016841F480210160C4F8A452022004F534
:102F3000287406F0CFF801202060022006F0CAF8BD
:102F4000256070BD00804042000402400E4810B56C
:102F5000016886B041F0020101600068012400F0C0
:102F6000020005904FF44070CDE900040220CDE945
:102F7000024069460548FFF7A1F80548C0F8A44299
:102F8000C0F8A04206B010BD303802400004024034
:102F90000080404270B50D4C0025C4F8A0520C488A
:102FA000016821F440210160016841F48021016041
:102FB0000126C4F8A462022004F5287406F08AF8F9
:102FC0002660022006F086F8256070BD0080404231
:102FD000000402402DE9F0478146164800240168AC
:102FE00021F44021016001680160134E2546274607
:102FF0004FF00108C6F8A072022006F06BF8C6F880
:10300000A0826006040ED6F8240208B1641CE4B263
:10301000012006F05FF86D1CEDB2082DEAD3B9F17E
:10302000000F04D0FFF772FF2046BDE8F087FFF7DE
:10303000B1FFF9E700040240008040422DE9F04171
:1030400006461448016821F440210160016841F4FA
:1030500080210160104C0027C4F8A0723D464FF05B
:103060000108F009C4F8A4027006060E022006F05A
:1030700031F8C4F8A082022006F02CF8C4F8A0723F
:10308000022006F027F86D1CEDB2082DE9D3BDE84B
:10309000F0810000000402400080404270B50D48FD
:1030A000016821F440210160016841F48021016040
:1030B000094C0120C4F8A402C4F8A002042004F5BD
:1030C000287406F007F800256560042006F002F871
:1030D000256070BD00040240008040420E4810B5DB
:1030E000016821F440210160016841F48021016000
:1030F0000A4C0020C4F8A002C4F8A402042004F57D
:10310000287405F0E7FF012020606060BDE81040F2
:10311000042005F0DFBF00000004024000804042B0
:1031200070B512480024016821F440210160016853
:1031300001600F4D0126C5F8A462304605F0CAFFB4
:10314000C5F8A062012005F0C5FF07E0641CE4B2E9
:10315000FA2C03D9FFF7C2FF012070BDD5F8240275
:103160000028F3D1C5F8A00270BD000000040240A1
:103170000080404270B50546082010F0DDFF0400D5
:1031800009D02846FDF782FF9FED050A206084EDF7
:10319000010A204670BD03A004F062FAF9E70000BE
:1031A000000000004F7574206F66207370616365C6
:1031B000212121000168C068814201D101207047AE
:1031C0000020704770B50B490646002408884D88DA
:1031D00021464543204602F085FC02F0F5FDB0B2E1
:1031E0004FF0D84103E000BFA1F88000641CAC425E
:1031F000FAD370BD042B00202DE9F04F33492C2465
:103200000A4688712A2592882B2645F2105B4FF4D6
:10321000305E4FF448774FF0F00949F2413A4FF4ED
:10322000A07845F2103C4FF4F07358B1A1F800803B
:10323000A1F80290524501D0624529D10C814D81FF
:103240008E8139E0A1F80090A1F80280524501D0AA
:10325000624508D10C814D818E81624531D1A1F842
:1032600000804B802DE05A4508D1A1F808E04FF4CA
:10327000285048814FF42C50888106E0A2F5C850B0
:1032800063381ED10C814E818D810B804F8018E0F8
:103290005A4508D1A1F808E04FF4285048814FF46E
:1032A0002C50888106E0A2F5C850633804D10C8107
:1032B0004D818E810F804B80624502D10B80A1F839
:1032C0000280BDE8F04F002002F030BB042B00204C
:1032D0002DE9FE4F161ACDE900104FF000085D1AD7
:1032E00047464FF0FF30002E02DD4FF0010102E0B3
:1032F00003D14FF000018B4602E08346C6F1000681
:10330000002D02DD4FF0010002E003D14FF000007C
:10331000824602E08246C5F10005AE4201DD344638
:1033200000E02C46601C4FF00009029018E0009865
:1033300081B2019880B200F019F8B0442F44A04542
:1033400004DD0198A8EB040858440190A74203DD6E
:1033500000983F1B5044009009F101001FFA80F9CA
:1033600002998945E3DDBDE8FE8F000000B502F05B
:10337000B9FB02F029FD03484FF0D8410088A1F8BD
:10338000800000BD740000202DE9FC4F8046002520
:10339000144603200F46A0EB440649E0381B81B2D7
:1033A00008EB050A01901FFA8AF0FFF7DFFF781B90
:1033B00081B208EB040900901FFA89F0FFF7D6FFED
:1033C00007EB050B1FFA8BF11FFA89F0FFF7CEFF11
:1033D00007EB04091FFA89F11FFA8AF0FFF7C6FF0D
:1033E000A8EB050A1FFA89F11FFA8AF0FFF7BEFF62
:1033F000A8EB04091FFA8BF11FFA89F0FFF7B6FF5B
:10340000019881B21FFA8AF0FFF7B0FF009881B2ED
:103410001FFA89F0FFF7AAFF6D1C002E03DA06EBF6
:103420008506B61D04E0281B06EB8006641E0A36DE
:10343000A542B3DDBDE8FC8F2DE9F041354C904647
:103440000D460246060AA18820462F0A4089A1F5AA
:103450001343413B0CD0A1F5A643103B08D0A1F586
:10346000AA43103B10D0A1F5C853633B25D048E0D8
:1034700002F09DFC304602F08EFCD0B202F08BFCD4
:10348000A08902F094FC36E002F091FC304602F094
:1034900082FC6089401C80B202F089FCD0B202F04C
:1034A0007AFCA08902F083FC384602F074FCA08903
:1034B000401C80B202F07BFC20E0A17919B9218880
:1034C000891A491E8AB202F072FC160A304602F0CE
:1034D00062FCD0B202F05FFC304602F05CFCD0B27D
:1034E00002F059FCA08902F062FC384602F053FC5D
:1034F000E8B202F050FC384602F04DFCE8B202F0AF
:103500004AFC4FF0D840218920F87E1FA0F80280A5
:10351000BDE8F081042B00202DE9F04FFF4895B065
:103520000025016841F00201016000684FF00109C7
:1035300000F00200079003204FF4004ACDE91290FA
:10354000CDE910A910A9F648FEF7B8FDF548F649EF
:103550004FF02044C0E900410621C0E902151021C6
:10356000C0E9045185610902C561C0E909518900BA
:10357000C0E90B5189014563C0E90E510F20CDE927
:1035800009053C200B900F950920CDE90005082086
:10359000029003956A4609A90695E248FFF77EF96D
:1035A000322005F089FDD32002F001FC02F08CF9F5
:1035B000DC4A5032908002F087F9908002F084F962
:1035C0004FF6FF7B0BEA0020908002F07DF9918896
:1035D00045F210360843A0F51341908045F210558E
:1035E00041F66317413949D0D42002F0E0FB02F0E4
:1035F0006BF9908002F068F9908002F065F90BEAAF
:103600000020D846908002F05FF9918808439080AE
:10361000B04233D04FF45A4002F0C9FB02F054F9E3
:1036200090804FF45B4002F0C2FB02F04DF908EAD3
:10363000002090804FF45C4002F0B9FB02F044F9A6
:10364000918808439080504501D1958016E0A842AA
:1036500014D0A12002F0ABFB02F036F9908002F00A
:1036600033F908EA0020908002F02EF9918808438F
:10367000A0F5AE419080613900D197809246918843
:10368000AAA003F0EDFFBAF8040049F24138404522
:103690007ED1CF2002F08BFB002002F07CFBC1200A
:1036A00002F079FB302002F076FBED2002F07FFB88
:1036B000642002F070FB032002F06DFB122002F088
:1036C0006AFB812002F067FBE82002F070FB852096
:1036D00002F061FB102002F05EFB7A2002F05BFB3F
:1036E000CB2002F064FB392002F055FB2C2002F0C5
:1036F00052FB002002F04FFB342002F04CFB022072
:1037000002F049FBF72002F052FB202002F043FBBD
:10371000EA2002F04CFB002002F03DFB002002F00A
:103720003AFBC02002F043FB1B2002F034FBC12017
:1037300002F03DFB012002F02EFBC52002F037FB1A
:10374000302002F028FB302002F025FBC72002F0D9
:103750002EFBB72002F01FFB362002F028FB48208A
:1037600002F019FB3A2002F022FB552002F013FB75
:10377000B12002F01CFB002002F00DFB1A2002F029
:103780000AFBB62002F013FB0A2002F004FB00E063
:1037900095E0A22002F0FFFAF22002F008FB0020E0
:1037A00002F0F9FA262002F002FB012002F0F3FAFF
:1037B000E02002F0FCFA0F2002F0EDFA2A2002F0DD
:1037C000EAFA282002F0E7FA082002F0E4FA0E20D4
:1037D00002F0E1FA082002F0DEFA542002F0DBFAEF
:1037E000A92002F0D8FA432002F0D5FA0A2002F00C
:1037F000D2FA0F2002F0CFFA002002F0CCFA00201B
:1038000002F0C9FA002002F0C6FA002002F0C3FA62
:10381000E12002F0CCFA002002F0BDFA152002F0FF
:10382000BAFA172002F0B7FA072002F0B4FA112012
:1038300002F0B1FA062002F0AEFA2B2002F0ABFA49
:10384000562002F0A8FA3C2002F0A5FA052002F06A
:10385000A2FA102002F09FFA0F2002F09CFA3F20FB
:1038600002F099FA3F2002F096FA0F2002F093FA44
:103870002B2002F09CFA002002F08DFA002002F0CA
:103880008AFA012002F087FA3F2002F084FA2A2007
:1038900002F08DFA002002F07EFA002002F07BFA9E
:1038A000002002F078FAEF2002F075FA112002F001
:1038B0007EFA782005F000FC292001F010BFB0420C
:1038C0007ED1ED2002F073FA012002F064FAFE20AE
:1038D00002F061FAEE2002F06AFADE2002F05BFAF2
:1038E000212002F058FAF12002F061FA012002F0E2
:1038F00052FADF2002F05BFA102002F04CFAC420EA
:1039000002F055FA8F2002F046FAC62002F04FFA74
:10391000002002F040FAE22010E0000030380240BF
:1039200000040240B42A0020040100A0204C4344BB
:103930002049443A25780D0A0000000002F02BFAD5
:10394000E22002F028FAE22002F025FABF2002F07D
:103950002EFAAA2002F01FFAB02002F028FA0D2059
:1039600002F019FA002002F016FA0D2002F013FA04
:10397000002002F010FA112002F00DFA002002F0EF
:103980000AFA192002F007FA002002F004FA2120B6
:1039900002F001FA002002F0FEF92D2002F0FBF9FE
:1039A000002002F0F8F93D2002F0F5F9002002F0C5
:1039B000F2F95D2002F0EFF9002002F0ECF900E0EE
:1039C000FDE35D2002F0E7F9002002F0E4F9B12008
:1039D00002F0EDF9802002F0DEF9002002F0DBF9C0
:1039E0008B2002F0D8F9002002F0D5F9962002F0E1
:1039F000D2F9002002F0CFF9B22002F0D8F900206D
:103A000002F0C9F9002002F0C6F9022002F0C3F961
:103A1000002002F0C0F9032002F0BDF9002002F0FE
:103A2000BAF9B32002F0C3F9002002F0B4F9002083
:103A300002F0B1F9002002F0AEF9002002F0ABF97B
:103A4000002002F0A8F9002002F0A5F9002002F001
:103A5000A2F9002002F09FF9002002F09CF900205A
:103A600002F099F9002002F096F9002002F093F993
:103A7000002002F090F9002002F08DF9002002F001
:103A80008AF9002002F087F9002002F084F9002072
:103A900002F081F9002002F07EF9002002F07BF9AB
:103AA000002002F078F9002002F075F9002002F001
:103AB00072F9002002F06FF9B42002F078F98B203F
:103AC00002F069F9002002F066F9962002F063F92D
:103AD000002002F060F9A12002F05DF9002002F060
:103AE0005AF9B52002F063F9022002F054F90020DF
:103AF00002F051F9032002F04EF9002002F04BF9D8
:103B0000042002F048F9002002F045F9B62002F046
:103B10004EF9002002F03FF9002002F03CF9B720F6
:103B200002F045F9002002F036F9002002F033F9E6
:103B30003F2002F030F9002002F02DF95E2002F063
:103B40002AF9002002F027F9642002F024F900206D
:103B500002F021F98C2002F01EF9002002F01BF97E
:103B6000AC2002F018F9002002F015F9DC2002F078
:103B700012F9002002F00FF9702002F00CF9002079
:103B800002F009F9902002F006F9002002F003F992
:103B9000EB2002F000F9002002F0FDF8DC2002F03A
:103BA000FAF8002002F0F7F8B82002F000F900203F
:103BB00002F0F1F8002002F0EEF8002002F0EBF83D
:103BC000002002F0E8F8002002F0E5F8002002F002
:103BD000E2F8002002F0DFF8002002F0DCF8BA2062
:103BE00002F0E5F8242002F0D6F8002002F0D3F825
:103BF000002002F0D0F8002002F0CDF8C12002F041
:103C0000D6F8202002F0C7F8002002F0C4F85420B3
:103C100002F0C1F8002002F0BEF8FF2002F0BBF86D
:103C2000002002F0B8F8C22002F0C1F80A2002F029
:103C3000B2F8002002F0AFF8042002F0ACF8002047
:103C400002F0A9F8C32002F0B2F83C2002F0A3F879
:103C5000002002F0A0F83A2002F09DF8002002F0C7
:103C60009AF8392002F097F8002002F094F83720F3
:103C700002F091F8002002F08EF83C2002F08BF860
:103C8000002002F088F8362002F085F8002002F0CB
:103C900082F8322002F07FF8002002F07CF82F201A
:103CA00002F079F8002002F076F82C2002F073F888
:103CB000002002F070F8292002F06DF8002002F0D8
:103CC0006AF8262002F067F8002002F064F8242049
:103CD00002F061F8002002F05EF8242002F05BF8A8
:103CE000002002F058F8232002F055F8002002F0DE
:103CF00052F83C2002F04FF8002002F04CF8362039
:103D000002F049F8002002F046F8322002F043F8B1
:103D1000002002F040F82F2002F03DF8002002F0D1
:103D20003AF82C2002F037F8002002F034F829206D
:103D300002F031F8002002F02EF8262002F02BF8D5
:103D4000002002F028F8242002F025F8002002F0DC
:103D500022F8242002F01FF8002002F01CF8232093
:103D600002F019F8002002F016F8C42002F01FF843
:103D7000622002F010F8002002F00DF8052002F099
:103D80000AF8002002F007F8842002F004F800206E
:103D900002F001F8F02001F0FEFF002001F0FBFF2F
:103DA000182001F0F8FF002001F0F5FFA42001F039
:103DB000F2FF002001F0EFFF182001F0ECFF0020DF
:103DC00001F0E9FF502001F0E6FF002001F0E3FFE1
:103DD0000C2001F0E0FF002001F0DDFF172001F0D2
:103DE000DAFF002001F0D7FF952001F0D4FF00207A
:103DF00001F0D1FFF32001F0CEFF002001F0CBFF56
:103E0000E62001F0C8FF002001F0C5FFC52001F049
:103E1000CEFF322001F0BFFF002001F0BCFF4420A4
:103E200001F0B9FF002001F0B6FF652001F0B3FFFB
:103E3000002001F0B0FF762001F0ADFF002001F07E
:103E4000AAFF882001F0A7FF002001F0A4FFC620F0
:103E500001F0ADFF202001F09EFF002001F09BFF4C
:103E6000172001F098FF002001F095FF012001F0DC
:103E700092FF002001F08FFFC72001F098FF002083
:103E800001F089FF002001F086FF002001F083FF90
:103E9000002001F080FFC82001F089FF002001F020
:103EA0007AFF002001F077FF002001F074FF00206E
:103EB00001F071FFC92001F07AFF002001F06BFFD3
:103EC000002001F068FF002001F065FF002001F0F4
:103ED00062FF002001F05FFF002001F05CFF002086
:103EE00001F059FF002001F056FF002001F053FFC0
:103EF000002001F050FF002001F04DFF002001F0F4
:103F00004AFF002001F047FF002001F044FF00209D
:103F100001F041FF002001F03EFFE02001F047FFEB
:103F2000162001F038FF002001F035FF1C2001F0C1
:103F300032FF002001F02FFF212001F02CFF002094
:103F400001F029FF362001F026FF002001F023FFB9
:103F5000462001F020FF002001F01DFF522001F05B
:103F60001AFF002001F017FF642001F014FF002069
:103F700001F011FF7A2001F00EFF002001F00BFF8D
:103F80008B2001F008FF002001F005FF992001F0CF
:103F900002FF002001F0FFFEA82001F0FCFE00203F
:103FA00001F0F9FEB92001F0F6FE002001F0F3FE69
:103FB000C42001F0F0FE002001F0EDFECA2001F067
:103FC000EAFE002001F0E7FED22001F0E4FE00202E
:103FD00001F0E1FED92001F0DEFE002001F0DBFE61
:103FE000E02001F0D8FE002001F0D5FEF32001F022
:103FF000D2FE002001F0CFFEE12001F0D8FE162015
:1040000001F0C9FE002001F0C6FE1C2001F0C3FE35
:10401000002001F0C0FE222001F0BDFE002001F0D2
:10402000BAFE362001F0B7FE002001F0B4FE4520B4
:1040300001F0B1FE002001F0AEFE522001F0ABFE17
:10404000002001F0A8FE642001F0A5FE002001F090
:10405000A2FE7A2001F09FFE002001F09CFE8B2042
:1040600001F099FE002001F096FE992001F093FEE8
:10407000002001F090FEA82001F08DFE002001F04C
:104080008AFEB92001F087FE002001F084FEC420E2
:1040900001F081FE002001F07EFECA2001F07BFECF
:1040A000002001F078FED22001F075FE002001F022
:1040B00072FED82001F06FFE002001F06CFEE020BF
:1040C00001F069FE002001F066FEF32001F063FEBE
:1040D000002001F060FEE22001F069FE052001F001
:1040E0005AFE002001F057FE0B2001F054FE002084
:1040F00001F051FE1B2001F04EFE002001F04BFEAE
:10410000342001F048FE002001F045FE442001F07B
:1041100042FE002001F03FFE4F2001F03CFE002057
:1041200001F039FE612001F036FE002001F033FE7F
:10413000792001F030FE002001F02DFE882001F0F2
:104140002AFE002001F027FE972001F024FE002027
:1041500001F021FEA62001F01EFE002001F01BFE52
:10416000B72001F018FE002001F015FEC22001F07A
:1041700012FE002001F00FFEC72001F00CFE00200F
:1041800001F009FED12001F006FE002001F003FE3F
:10419000D62001F000FE002001F0FDFDDD2001F041
:1041A000FAFD002001F0F7FDF32001F0F4FD0020FE
:1041B00001F0F1FDE32001F0FAFD052000E00CE341
:1041C00001F0E9FD002001F0E6FD0A2001F0E3FD29
:1041D000002001F0E0FD1C2001F0DDFD002001F0D9
:1041E000DAFD332001F0D7FD002001F0D4FD44209A
:1041F00001F0D1FD002001F0CEFD502001F0CBFDFB
:10420000002001F0C8FD622001F0C5FD002001F092
:10421000C2FD782001F0BFFD002001F0BCFD882028
:1042200001F0B9FD002001F0B6FD972001F0B3FDCB
:10423000002001F0B0FDA62001F0ADFD002001F04E
:10424000AAFDB72001F0A7FD002001F0A4FDC220C7
:1042500001F0A1FD002001F09EFDC72001F09BFDB3
:10426000002001F098FDD12001F095FD002001F023
:1042700092FDD52001F08FFD002001F08CFDDD20A6
:1042800001F089FD002001F086FDF32001F083FD9F
:10429000002001F080FDE42001F089FD012001F003
:1042A0007AFD002001F077FD012001F074FD00206F
:1042B00001F071FD022001F06EFD002001F06BFDA8
:1042C0002A2001F068FD002001F065FD3C2001F08E
:1042D00062FD002001F05FFD4B2001F05CFD00203D
:1042E00001F059FD5D2001F056FD002001F053FD65
:1042F000742001F050FD002001F04DFD842001F0FC
:104300004AFD002001F047FD932001F044FD00200C
:1043100001F041FDA22001F03EFD002001F03BFD37
:10432000B32001F038FD002001F035FDBE2001F082
:1043300032FD002001F02FFDC42001F02CFD0020F3
:1043400001F029FDCD2001F026FD002001F023FD24
:10435000D32001F020FD002001F01DFDDD2001F043
:104360001AFD002001F017FDF32001F014FD0020DC
:1043700001F011FDE52001F01AFD002001F00BFD18
:10438000002001F008FD002001F005FD002001F0F3
:1043900002FD022001F0FFFC002001F0FCFC2920BE
:1043A00001F0F9FC002001F0F6FC3C2001F0F3FCE8
:1043B000002001F0F0FC4B2001F0EDFC002001F0AA
:1043C000EAFC5D2001F0E7FC002001F0E4FC742031
:1043D00001F0E1FC002001F0DEFC842001F0DBFCB8
:1043E000002001F0D8FC932001F0D5FC002001F062
:1043F000D2FCA22001F0CFFC002001F0CCFCB320C5
:1044000001F0C9FC002001F0C6FCBE2001F0C3FC95
:10441000002001F0C0FCC42001F0BDFC002001F030
:10442000BAFCCD2001F0B7FC002001F0B4FCD32091
:1044300001F0B1FC002001F0AEFCDC2001F0ABFC8F
:10444000002001F0A8FCF32001F0A5FC002001F001
:10445000A2FCE62001F0ABFC112001F09CFC002046
:1044600001F099FC342001F096FC002001F093FC4F
:10447000562001F090FC002001F08DFC762001F028
:104480008AFC002001F087FC772001F084FC0020EA
:1044900001F081FC662001F07EFC002001F07BFC35
:1044A000882001F078FC002001F075FC992001F0D3
:1044B00072FC002001F06FFCBB2001F06CFC0020BE
:1044C00001F069FC992001F066FC002001F063FC1A
:1044D000662001F060FC002001F05DFC552001F039
:1044E0005AFC002001F057FC552001F054FC00203C
:1044F00001F051FC452001F04EFC002001F04BFC86
:10450000432001F048FC002001F045FC442001F06C
:1045100042FC002001F03FFCE72001F048FC322083
:1045200001F039FC002001F036FC552001F033FC8D
:10453000002001F030FC762001F02DFC002001F07D
:104540002AFC662001F027FC002001F024FC6720F3
:1045500001F021FC002001F01EFC672001F01BFC93
:10456000002001F018FC872001F015FC002001F06C
:1045700012FC992001F00FFC002001F00CFCBB2084
:1045800001F009FC002001F006FC992001F003FC79
:10459000002001F000FC772001F0FDFB002001F07D
:1045A000FAFB442001F0F7FB002001F0F4FB562059
:1045B00001F0F1FB002001F0EEFB232001F0EBFB0A
:1045C000002001F0E8FB332001F0E5FB002001F0C2
:1045D000E2FB452001F0DFFB002001F0DCFBE820DE
:1045E00001F0E5FB002001F0D6FB002001F0D3FB39
:1045F000992001F0D0FB002001F0CDFB872001F0D5
:10460000CAFB002001F0C7FB882001F0C4FB00209A
:1046100001F0C1FB772001F0BEFB002001F0BBFBE5
:10462000662001F0B8FB002001F0B5FB882001F006
:10463000B2FB002001F0AFFBAA2001F0ACFB002090
:1046400001F0A9FBBB2001F0A6FB002001F0A3FBB9
:10465000992001F0A0FB002001F09DFB662001F0F5
:104660009AFB002001F097FB552001F094FB0020FD
:1046700001F091FB552001F08EFB002001F08BFB37
:10468000442001F088FB002001F085FB442001F06C
:1046900082FB002001F07FFB552001F07CFB002015
:1046A00001F079FBE92001F082FBAA2001F073FB05
:1046B000002001F070FB002001F06DFB002001F0F4
:1046C0006AFB002001F073FBAA2001F064FBCF20FD
:1046D00001F06DFB002001F05EFB002001F05BFBB0
:1046E000002001F058FB002001F055FB002001F0F4
:1046F00052FB002001F04FFB002001F04CFB00209A
:1047000001F049FB002001F046FB002001F043FBD3
:10471000002001F040FB002001F03DFB002001F0F3
:104720003AFB002001F037FB002001F034FB0020B1
:1047300001F031FB002001F02EFBF02001F037FBEF
:10474000002001F028FB502001F025FB002001F0A3
:1047500022FB002001F01FFB002001F01CFBF320D6
:1047600001F025FB002001F016FBF92001F01FFBF2
:10477000062001F010FB102001F00DFB292001F0B4
:104780000AFB002001F007FB3A2001F010FB552046
:1047900001F001FB112001F00AFB642004F08CFC05
:1047A000292001F004FB352001F001FB002001F07D
:1047B000F2FA512001F0FBFAFF2001F0ECFA53204D
:1047C00001F0F5FA2C2001F0E6FA552001F0EFFA9D
:1047D000822001F0E0FA2C20FDE3A8427ED14FF4C4
:1047E00070435521184601F0F9FAAA214FF2010051
:1047F00001F0F4FA52214FF2020001F0EFFA082121
:104800004FF2030001F0EAFA01214FF2040001F037
:10481000E5FA0D214FF4304001F0E0FA0D214BF2A2
:10482000010001F0DBFA0D214BF2020001F0D6FA93
:1048300034214FF4364001F0D1FA34214BF20160BB
:1048400001F0CCFA34214BF2026001F0C7FA0D21DD
:104850004FF4314001F0C2FA0D214BF2011001F08A
:10486000BDFA0D214BF2021001F0B8FA34214FF4D9
:10487000374001F0B3FA34214BF2017001F0AEFA87
:1048800034214BF2027001F0A9FA00214FF43240BA
:1048900001F0A4FA00214BF2012001F09FFA00215F
:1048A0004BF2022001F09AFA24214FF4384001F033
:1048B00095FA24214BF6010001F090FA24214BF6E1
:1048C000020001F08BFA01214FF43F4001F086FA1B
:1048D0000F214FF4334001F081FA00E0FEE30F2195
:1048E0004BF2013001F07AFA0F214BF2023001F065
:1048F00075FA34214FF4394001F070FA34214BF647
:10490000011001F06BFA34214BF6021001F066FA47
:1049100008214FF4354001F061FA08214BF20150B3
:1049200001F05CFA08214BF2025001F057FA032122
:104930004FF4424001F052FA24214FF43A4001F082
:104940004DFA24214BF6012001F048FA24214BF6C0
:10495000022001F043FA00214FF43C4001F03EFAFE
:1049600078214BF6014001F039FA00214BF6024064
:1049700001F034FA00214FF43D4001F02FFA782184
:104980004BF6015001F02AFA00214BF6025001F0DB
:1049900025FA00214FF43E4001F020FA64214BF645
:1049A000016001F01BFA00214FF4514001F016FAAA
:1049B00033214DF2011001F011FA00214DF20210E5
:1049C00001F00CFA34214DF2031001F007FA002136
:1049D0004DF2041001F002FA3A214DF2051001F0F7
:1049E000FDF900214DF2061001F0F8F94A214DF2CF
:1049F000071001F0F3F900214DF2081001F0EEF973
:104A00005C214DF2091001F0E9F900214DF20A1084
:104A100001F0E4F981214DF20B1001F0DFF90021E2
:104A20004DF20C1001F0DAF9A6214DF20D1001F053
:104A3000D5F900214DF20E1001F0D0F9E5214DF22B
:104A40000F1001F0CBF901214DF2101001F0C6F961
:104A500013214DF2111001F0C1F901214DF2121094
:104A600001F0BCF954214DF2131001F0B7F9012106
:104A70004DF2141001F0B2F982214DF2151001F03F
:104A8000ADF901214DF2161001F0A8F9CA214DF23D
:104A9000171001F0A3F902214DF2181001F09EF950
:104AA00000214DF2191001F099F902214DF21A106E
:104AB00001F094F901214DF21B1001F08FF9022150
:104AC0004DF21C1001F08AF934214DF21D1001F055
:104AD00085F902214DF21E1001F080F967214DF297
:104AE0001F1001F07BF902214DF2201001F076F940
:104AF00084214DF2211001F071F902214DF22210B2
:104B000001F06CF9A4214DF2231001F067F90221A4
:104B10004DF2241001F062F9B7214DF2251001F099
:104B20005DF902214DF2261001F058F9CF214DF226
:104B3000271001F053F902214DF2281001F04EF92F
:104B4000DE214DF2291001F049F902214DF22A101F
:104B500001F044F9F2214DF22B1001F03FF902214E
:104B60004DF22C1001F03AF9FE214DF22D1001F01A
:104B700035F903214DF22E1001F030F910214DF2DC
:104B80002F1001F02BF903214DF2301001F026F91E
:104B900033214DF2311001F021F903214DF2321091
:104BA00001F01CF96D214DF2331001F017F90021CD
:104BB0004FF4524001F012F933214DF2012001F07F
:104BC0000DF900214DF2022001F008F934214DF2D7
:104BD000032001F003F900214DF2042001F0FEF85A
:104BE0003A214DF2052001F0F9F800214DF206209E
:104BF00001F0F4F84A214DF2072001F0EFF800210E
:104C00004DF2082001F0EAF85C214DF2092001F094
:104C1000E5F800214DF20A2001F0E0F881214DF283
:104C20000B2001F0DBF800214DF20C2001F0D6F84A
:104C3000A6214DF20D2001F0D1F800214DF20E20F9
:104C400001F0CCF8E5214DF20F2001F0C7F8012169
:104C50004DF2102001F0C2F813214DF2112001F0A5
:104C6000BDF801214DF2122001F0B8F854214DF2A7
:104C7000132001F0B3F801214DF2142001F0AEF839
:104C800082214DF2152001F0A9F801214DF21620E4
:104C900001F0A4F8CA214DF2172001F09FF802217B
:104CA0004DF2182001F09AF800214DF2192001F080
:104CB00095F802214DF21A2001F090F801214DF2F1
:104CC0001B2001F08BF802214DF21C2001F086F828
:104CD00034214DF21D2001F081F802214DF21E20F9
:104CE00001F07CF867214DF21F2001F077F80221D6
:104CF0004DF2202001F072F884214DF2212001F0C4
:104D00006DF802214DF2222001F068F8A4214DF245
:104D1000232001F063F802214DF2242001F05EF817
:104D2000B7214DF2252001F059F802214DF226203D
:104D300001F054F8CF214DF2272001F04FF8022165
:104D40004DF2282001F04AF8DE214DF2292001F031
:104D500045F802214DF22A2001F040F8F2214DF2EF
:104D60002B2001F03BF802214DF22C2001F036F807
:104D7000FE214DF22D2001F031F803214DF22E20BD
:104D800001F02CF810214DF22F2001F027F803211B
:104D90004DF2302001F022F833214DF2312001F0A4
:104DA0001DF803214DF2322001F018F86D214DF26B
:104DB000332001F013F800214FF4534001F00EF8B6
:104DC00033214DF2013001F009F800214DF202309B
:104DD00001F004F834214DF2033000F0FFFF002110
:104DE0004DF2043000F0FAFF3A214DF2053000F0A8
:104DF000F5FF00214DF2063000F0F0FF4A214DF2A0
:104E0000073000F0EBFF00214DF2083000F0E6FF24
:104E10005C214DF2093000F0E1FF00214DF20A3033
:104E200000F0DCFF81214DF20B3000F0D7FF0021B4
:104E30004DF20C3000F0D2FFA6214DF20D3000F003
:104E4000CDFF00214DF20E3000F0C8FFE5214DF2FC
:104E50000F3000F0C3FF01214DF2103000F0BEFF13
:104E600013214DF2113000F0B9FF01214DF2123043
:104E700000F0B4FF54214DF2133000F0AFFF0121D8
:104E80004DF2143000F0AAFF82214DF2153000F0EF
:104E9000A5FF01214DF2163000F0A0FFCA214DF20E
:104EA000173000F09BFF02214DF2183000F096FF02
:104EB00000214DF2193000F091FF02214DF21A301D
:104EC00000F08CFF01214DF21B3000F087FF022122
:104ED0004DF21C3000F082FF34214DF21D3000F005
:104EE0007DFF02214DF21E3000F078FF67214DF268
:104EF0001F3000F073FF02214DF2203000F06EFFF2
:104F000084214DF2213000F069FF02214DF2223060
:104F100000F064FFA4214DF2233000F05FFF022176
:104F20004DF2243000F05AFFB7214DF2253000F049
:104F300055FF02214DF2263000F050FFCF214DF2F7
:104F4000273000F04BFF02214DF2283000F046FFE1
:104F5000DE214DF2293000F041FF02214DF22A30CE
:104F600000F03CFFF2214DF22B3000F037FF022120
:104F70004DF22C3000F032FFFE214DF22D3000F0CA
:104F80002DFF03214DF22E3000F028FF10214DF2AD
:104F90002F3000F023FF03214DF2303000F01EFFD0
:104FA00033214DF2313000F019FF03214DF2323040
:104FB00000F014FF6D214DF2333000F00FFF00219F
:104FC0004FF4544000F00AFF33214DF2014000F04D
:104FD00005FF002100E082E34DF2024000F0FEFEFA
:104FE00034214DF2034000F0F9FE00214DF204405F
:104FF00000F0F4FE3A214DF2054000F0EFFE0021F2
:105000004DF2064000F0EAFE4A214DF2074000F062
:10501000E5FE00214DF2084000F0E0FE5C214DF27B
:10502000094000F0DBFE00214DF20A4000F0D6FE00
:1050300081214DF20B4000F0D1FE00214DF20C40D9
:1050400000F0CCFEA6214DF20D4000F0C7FE00217D
:105050004DF20E4000F0C2FEE5214DF20F4000F08F
:10506000BDFE01214DF2104000F0B8FE13214DF2BB
:10507000114000F0B3FE01214DF2124000F0AEFEEF
:1050800054214DF2134000F0A9FE01214DF21440CD
:1050900000F0A4FE82214DF2154000F09FFE012198
:1050A0004DF2164000F09AFECA214DF2174000F072
:1050B00095FE02214DF2184000F090FE00214DF2C5
:1050C000194000F08BFE02214DF21A4000F086FEDE
:1050D00001214DF21B4000F081FE00E002E30221BD
:1050E0004DF21C4000F07AFE34214DF21D4000F0DC
:1050F00075FE02214DF21E4000F070FE67214DF258
:105100001F4000F06BFE02214DF2204000F066FED1
:1051100084214DF2214000F061FE02214DF2224037
:1051200000F05CFEA4214DF2234000F057FE022166
:105130004DF2244000F052FEB7214DF2254000F020
:105140004DFE02214DF2264000F048FECF214DF2E7
:10515000274000F043FE02214DF2284000F03EFEC1
:10516000DE214DF2294000F039FE02214DF22A40A5
:1051700000F034FEF2214DF22B4000F02FFE022110
:105180004DF22C4000F02AFEFE214DF22D4000F0A1
:1051900025FE03214DF22E4000F020FE10214DF29D
:1051A0002F4000F01BFE03214DF2304000F016FEB0
:1051B00033214DF2314000F011FE03214DF2324017
:1051C00000F00CFE6D214DF2334000F007FE00218F
:1051D0004FF4554000F002FE33214DF2015000F033
:1051E000FDFD00214DF2025000F0F8FD34214DF29A
:1051F000035000F0F3FD00214DF2045000F0EEFDED
:105200003A214DF2055000F0E9FD00214DF2065023
:1052100000F0E4FD4A214DF2075000F0DFFD0021CF
:105220004DF2085000F0DAFD5C214DF2095000F01B
:10523000D5FD00214DF20A5000F0D0FD81214DF244
:105240000B5000F0CBFD00214DF20C5000F0C6FDDC
:10525000A6214DF20D5000F0C1FD00214DF20E507F
:1052600000F0BCFDE5214DF20F5000F0B7FD01212B
:105270004DF2105000F0B2FD13214DF2115000F02C
:10528000ADFD01214DF2125000F0A8FD54214DF268
:10529000135000F0A3FD01214DF2145000F09EFDCB
:1052A00082214DF2155000F099FD01214DF216506A
:1052B00000F094FDCA214DF2175000F08FFD02213D
:1052C0004DF2185000F08AFD00214DF2195000F007
:1052D00085FD02214DF21A5000F080FD01214DF2B2
:1052E0001B5000F07BFD02214DF21C5000F076FDBA
:1052F00034214DF21D5000F071FD02214DF21E507F
:1053000000F06CFD67214DF21F5000F067FD022197
:105310004DF2205000F062FD84214DF2215000F04A
:105320005DFD02214DF2225000F058FDA4214DF206
:10533000235000F053FD02214DF2245000F04EFDA9
:10534000B7214DF2255000F049FD02214DF22650C3
:1053500000F044FDCF214DF2275000F03FFD022127
:105360004DF2285000F03AFDDE214DF2295000F0B8
:1053700035FD02214DF22A5000F030FDF2214DF2B0
:105380002B5000F02BFD02214DF22C5000F026FD99
:10539000FE214DF22D5000F021FD03214DF22E5043
:1053A00000F01CFD10214DF22F5000F017FD0321DD
:1053B0004DF2305000F012FD33214DF2315000F02B
:1053C0000DFD03214DF2325000F008FD6D214DF22C
:1053D000335000F003FD00214FF4564000F0FEFC76
:1053E00033214DF2016000F0F9FC00214DF2026022
:1053F00000F0F4FC34214DF2036000F0EFFC0021DA
:105400004DF2046000F0EAFC3A214DF2056000F034
:10541000E5FC00214DF2066000F0E0FC4A214DF26F
:10542000076000F0DBFC00214DF2086000F0D6FCC4
:105430005C214DF2096000F0D1FC00214DF20A60C0
:1054400000F0CCFC81214DF20B6000F0C7FC002184
:105450004DF20C6000F0C2FCA6214DF20D6000F090
:10546000BDFC00214DF20E6000F0B8FCE5214DF2CC
:105470000F6000F0B3FC01214DF2106000F0AEFCB3
:1054800013214DF2116000F0A9FC01214DF21260D0
:1054900000F0A4FC54214DF2136000F09FFC0121A8
:1054A0004DF2146000F09AFC82214DF2156000F07C
:1054B00095FC01214DF2166000F090FCCA214DF2DE
:1054C000176000F08BFC02214DF2186000F086FCA2
:1054D00000214DF2196000F081FC02214DF21A60AA
:1054E00000F07CFC01214DF21B6000F077FC0221F2
:1054F0004DF21C6000F072FC34214DF21D6000F092
:105500006DFC02214DF21E6000F068FC67214DF237
:105510001F6000F063FC02214DF2206000F05EFC91
:1055200084214DF2216000F059FC02214DF22260ED
:1055300000F054FCA4214DF2236000F04FFC022146
:105540004DF2246000F04AFCB7214DF2256000F0D6
:1055500045FC02214DF2266000F040FCCF214DF2C7
:10556000276000F03BFC02214DF2286000F036FC81
:10557000DE214DF2296000F031FC02214DF22A605B
:1055800000F02CFCF2214DF22B6000F027FC0221F0
:105590004DF22C6000F022FCFE214DF22D6000F057
:1055A0001DFC03214DF22E6000F018FC10214DF27D
:1055B0002F6000F013FC03214DF2306000F00EFC70
:1055C00033214DF2316000F009FC03214DF23260CD
:1055D00000F004FC6D214DF2336000F0FFFB55211B
:1055E000184600F0FBFBAA214FF2010000F0F6FB89
:1055F00052214FF2020000F0F1FB08214FF20300AC
:1056000000F0ECFB00214FF2040000F0E7FBCC219E
:105610004FF4314000F0E2FB00214BF2011000F0AA
:10562000DDFB05214FF4364000F0D8FB70214FF42C
:10563000374000F0D3FB70214BF2017000F0CEFB3D
:1056400001214FF4384000F0C9FB03214BF6010063
:1056500000F0C4FB03214BF6020000F0BFFB032166
:105660004BF6030000F0BAFB02214FF43C4000F07F
:10567000B5FB00214BF6014000F0B0FB00214BF6DA
:10568000024000F0ABFBD0214FF4494000F0A6FBF4
:1056900002214CF6011000F0A1FB50214CF6021043
:1056A00000F09CFB50214CF6031000F097FB5021BA
:1056B0004CF6041000F092FB00214FF4545000F01F
:1056C0008DFB55214FF4685000F088FB4FF4885053
:1056D00000F06DFB782003F0FDFC4FF4245000F047
:1056E00066FBB9E0B842FCD1E22000F060FB1D206F
:1056F00000F051FB022000F04EFB042000F04BFBB9
:10570000642003F0E7FCE02000F051FB012000F0F2
:1057100042FB0A2003F0D0FCE02000F048FB03200D
:1057200000F039FB0C2003F0C7FC012000F03FFB28
:105730000A2003F0C1FCE62000F039FB2F2000F026
:105740002AFBFF2000F027FBFF2000F024FBB02005
:1057500000F02DFB202000F01EFB002000F01BFBC2
:10576000032000F018FB40F21F3000F014FB012072
:1057700000F011FB40F2DF1000F00DFB002000F004
:105780000AFBB42000F013FB042000F004FB40F2FD
:105790001F4000F000FB002000F0FDFA2E2000F07A
:1057A000FAFA002000F0F7FA002000F0F4FA0020E6
:1057B00000F0F1FA002000F0EEFAB62000F0F7FA5F
:1057C000022000F0E8FA4FF4037000F0E4FA002041
:1057D00000F0E1FA172000F0DEFA152000F0DBFA05
:1057E000002000F0D8FA002000F0D5FAF02000F0F8
:1057F000DEFA032000F0CFFA292000F0D8FAD020FA
:1058000000F0D5FA002000F0C6FABE2000F0CFFA72
:10581000052000F0C0FAFE2000F0BDFA012000F0E3
:10582000BAFA002000F0B7FA002000F0B4FA002025
:1058300000F0B1FAB82000F0BAFA032000F0ABFA99
:10584000012000F0A8FABA2000F0B1FA012000F01F
:10585000A2FA642000F042F8BAF80400404505D0EE
:10586000B04203D0A84201D0B84217D1D4F81C01ED
:1058700020F00F00C4F81C01D4F81C0120F4706063
:10588000C4F81C01D4F81C0140F00300C4F81C014A
:10589000D4F81C0140F40070C4F81C010020FDF78E
:1058A000ABFC0449C1F8BC925846FDF78BFC15B01F
:1058B000BDE8F08F008040420246012000E05043E6
:1058C000491EC9B2FBD2704708B54FF0D840B0F8B6
:1058D0008000ADF80000BDF8000008BD10B502461C
:1058E000BE2000F064FA052000F055FA1046FAF7E1
:1058F0001AFE9FED0C1B53EC112BFAF791FDFAF7F2
:105900001FFE80B200F047FA012000F044FAFF20A9
:1059100000F041FA002000F03EFABDE810400020FF
:1059200000F039BA6666666666660440F0B56C4C8F
:1059300000232146A279898841F66316012A01D005
:105940001AB11BE0B14202D118E0B14216D10828C9
:1059500014D2DFE800F00406080A0C0E101206202C
:105960000CE007200AE0042008E0052006E0012002
:1059700004E0002002E0032000E00220A1F513472C
:1059800045F2103245F21055413F05D0914203D007
:10599000A94201D0B14277D1082812D2DFE800F045
:1059A000110406080A0C0E1080230AE0402308E0C8
:1059B000C02306E0202304E0602302E0A02300E0EF
:1059C000E023A94202D14FF4585000E03620914222
:1059D00005D0A94203D0B14201D043F008031946D3
:1059E00000F0FCF9A188B1420AD0980620886288AC
:1059F00002D5904202D303E0904201D92280608018
:105A00006089A94241D100F0D2F9002000F0C3F929
:105A10006089401C80B200F0CAF9002000F0BBF998
:105A20006089801C80B200F0C2F92088401EC0F35B
:105A30000F2000F0B0F96089C01C80B200F0B7F907
:105A40002078401EC0B200F0A6F9A08900F0AFF99E
:105A5000002000F0A0F9A089401C80B200F0A7F956
:105A6000002000F098F9A089801C80B200F09FF916
:105A70006088401EC0F30F2000F08DF9A089C01C83
:105A800080B200F094F922E028E000F090F90020C4
:105A900000F081F9002000F07EF92088401EC0F35C
:105AA0000F2000F078F92078401EC0B200F073F9A2
:105AB000A08900F07CF9002000F06DF9002000F0D2
:105AC0006AF96088401EC0F30F2000F064F9A078E6
:105AD000BDE8F040401EC0B200F05DB9F0BD00006E
